{
  "contractName": "MyContract",
  "abi": [
    {
      "inputs": [],
      "stateMutability": "nonpayable",
      "type": "constructor"
    },
    {
      "anonymous": false,
      "inputs": [
        {
          "indexed": true,
          "internalType": "address",
          "name": "owner",
          "type": "address"
        },
        {
          "indexed": true,
          "internalType": "address",
          "name": "approved",
          "type": "address"
        },
        {
          "indexed": true,
          "internalType": "uint256",
          "name": "tokenId",
          "type": "uint256"
        }
      ],
      "name": "Approval",
      "type": "event"
    },
    {
      "anonymous": false,
      "inputs": [
        {
          "indexed": true,
          "internalType": "address",
          "name": "owner",
          "type": "address"
        },
        {
          "indexed": true,
          "internalType": "address",
          "name": "operator",
          "type": "address"
        },
        {
          "indexed": false,
          "internalType": "bool",
          "name": "approved",
          "type": "bool"
        }
      ],
      "name": "ApprovalForAll",
      "type": "event"
    },
    {
      "anonymous": false,
      "inputs": [
        {
          "indexed": true,
          "internalType": "address",
          "name": "previousOwner",
          "type": "address"
        },
        {
          "indexed": true,
          "internalType": "address",
          "name": "newOwner",
          "type": "address"
        }
      ],
      "name": "OwnershipTransferred",
      "type": "event"
    },
    {
      "anonymous": false,
      "inputs": [
        {
          "indexed": true,
          "internalType": "address",
          "name": "from",
          "type": "address"
        },
        {
          "indexed": true,
          "internalType": "address",
          "name": "to",
          "type": "address"
        },
        {
          "indexed": true,
          "internalType": "uint256",
          "name": "tokenId",
          "type": "uint256"
        }
      ],
      "name": "Transfer",
      "type": "event"
    },
    {
      "inputs": [
        {
          "internalType": "address",
          "name": "to",
          "type": "address"
        },
        {
          "internalType": "uint256",
          "name": "tokenId",
          "type": "uint256"
        }
      ],
      "name": "approve",
      "outputs": [],
      "stateMutability": "nonpayable",
      "type": "function"
    },
    {
      "inputs": [
        {
          "internalType": "address",
          "name": "owner",
          "type": "address"
        }
      ],
      "name": "balanceOf",
      "outputs": [
        {
          "internalType": "uint256",
          "name": "",
          "type": "uint256"
        }
      ],
      "stateMutability": "view",
      "type": "function",
      "constant": true
    },
    {
      "inputs": [
        {
          "internalType": "uint256",
          "name": "tokenId",
          "type": "uint256"
        }
      ],
      "name": "getApproved",
      "outputs": [
        {
          "internalType": "address",
          "name": "",
          "type": "address"
        }
      ],
      "stateMutability": "view",
      "type": "function",
      "constant": true
    },
    {
      "inputs": [
        {
          "internalType": "address",
          "name": "owner",
          "type": "address"
        },
        {
          "internalType": "address",
          "name": "operator",
          "type": "address"
        }
      ],
      "name": "isApprovedForAll",
      "outputs": [
        {
          "internalType": "bool",
          "name": "",
          "type": "bool"
        }
      ],
      "stateMutability": "view",
      "type": "function",
      "constant": true
    },
    {
      "inputs": [],
      "name": "name",
      "outputs": [
        {
          "internalType": "string",
          "name": "",
          "type": "string"
        }
      ],
      "stateMutability": "view",
      "type": "function",
      "constant": true
    },
    {
      "inputs": [],
      "name": "owner",
      "outputs": [
        {
          "internalType": "address",
          "name": "",
          "type": "address"
        }
      ],
      "stateMutability": "view",
      "type": "function",
      "constant": true
    },
    {
      "inputs": [
        {
          "internalType": "uint256",
          "name": "tokenId",
          "type": "uint256"
        }
      ],
      "name": "ownerOf",
      "outputs": [
        {
          "internalType": "address",
          "name": "",
          "type": "address"
        }
      ],
      "stateMutability": "view",
      "type": "function",
      "constant": true
    },
    {
      "inputs": [],
      "name": "renounceOwnership",
      "outputs": [],
      "stateMutability": "nonpayable",
      "type": "function"
    },
    {
      "inputs": [
        {
          "internalType": "address",
          "name": "from",
          "type": "address"
        },
        {
          "internalType": "address",
          "name": "to",
          "type": "address"
        },
        {
          "internalType": "uint256",
          "name": "tokenId",
          "type": "uint256"
        }
      ],
      "name": "safeTransferFrom",
      "outputs": [],
      "stateMutability": "nonpayable",
      "type": "function"
    },
    {
      "inputs": [
        {
          "internalType": "address",
          "name": "from",
          "type": "address"
        },
        {
          "internalType": "address",
          "name": "to",
          "type": "address"
        },
        {
          "internalType": "uint256",
          "name": "tokenId",
          "type": "uint256"
        },
        {
          "internalType": "bytes",
          "name": "data",
          "type": "bytes"
        }
      ],
      "name": "safeTransferFrom",
      "outputs": [],
      "stateMutability": "nonpayable",
      "type": "function"
    },
    {
      "inputs": [
        {
          "internalType": "address",
          "name": "operator",
          "type": "address"
        },
        {
          "internalType": "bool",
          "name": "approved",
          "type": "bool"
        }
      ],
      "name": "setApprovalForAll",
      "outputs": [],
      "stateMutability": "nonpayable",
      "type": "function"
    },
    {
      "inputs": [
        {
          "internalType": "bytes4",
          "name": "interfaceId",
          "type": "bytes4"
        }
      ],
      "name": "supportsInterface",
      "outputs": [
        {
          "internalType": "bool",
          "name": "",
          "type": "bool"
        }
      ],
      "stateMutability": "view",
      "type": "function",
      "constant": true
    },
    {
      "inputs": [],
      "name": "symbol",
      "outputs": [
        {
          "internalType": "string",
          "name": "",
          "type": "string"
        }
      ],
      "stateMutability": "view",
      "type": "function",
      "constant": true
    },
    {
      "inputs": [
        {
          "internalType": "uint256",
          "name": "tokenId",
          "type": "uint256"
        }
      ],
      "name": "tokenURI",
      "outputs": [
        {
          "internalType": "string",
          "name": "",
          "type": "string"
        }
      ],
      "stateMutability": "view",
      "type": "function",
      "constant": true
    },
    {
      "inputs": [
        {
          "internalType": "address",
          "name": "from",
          "type": "address"
        },
        {
          "internalType": "address",
          "name": "to",
          "type": "address"
        },
        {
          "internalType": "uint256",
          "name": "tokenId",
          "type": "uint256"
        }
      ],
      "name": "transferFrom",
      "outputs": [],
      "stateMutability": "nonpayable",
      "type": "function"
    },
    {
      "inputs": [
        {
          "internalType": "address",
          "name": "newOwner",
          "type": "address"
        }
      ],
      "name": "transferOwnership",
      "outputs": [],
      "stateMutability": "nonpayable",
      "type": "function"
    },
    {
      "inputs": [
        {
          "internalType": "string",
          "name": "_tokenURI",
          "type": "string"
        },
        {
          "internalType": "string",
          "name": "_released",
          "type": "string"
        },
        {
          "internalType": "string",
          "name": "_imageName",
          "type": "string"
        },
        {
          "internalType": "uint256",
          "name": "_price",
          "type": "uint256"
        }
      ],
      "name": "mintNFT",
      "outputs": [
        {
          "internalType": "uint256",
          "name": "",
          "type": "uint256"
        }
      ],
      "stateMutability": "nonpayable",
      "type": "function"
    },
    {
      "inputs": [],
      "name": "getAllNFT",
      "outputs": [
        {
          "components": [
            {
              "internalType": "uint256",
              "name": "tokenId",
              "type": "uint256"
            },
            {
              "internalType": "string",
              "name": "tokenURI",
              "type": "string"
            }
          ],
          "internalType": "struct MyNFT.ShortNFT[]",
          "name": "",
          "type": "tuple[]"
        }
      ],
      "stateMutability": "view",
      "type": "function",
      "constant": true
    },
    {
      "inputs": [
        {
          "internalType": "uint256",
          "name": "_startIdx",
          "type": "uint256"
        },
        {
          "internalType": "uint256",
          "name": "_endIdx",
          "type": "uint256"
        }
      ],
      "name": "getListShortNFT",
      "outputs": [
        {
          "components": [
            {
              "internalType": "uint256",
              "name": "tokenId",
              "type": "uint256"
            },
            {
              "internalType": "string",
              "name": "tokenURI",
              "type": "string"
            }
          ],
          "internalType": "struct MyNFT.ShortNFT[]",
          "name": "",
          "type": "tuple[]"
        }
      ],
      "stateMutability": "view",
      "type": "function",
      "constant": true
    },
    {
      "inputs": [
        {
          "internalType": "address",
          "name": "_who",
          "type": "address"
        }
      ],
      "name": "getListHolder",
      "outputs": [
        {
          "components": [
            {
              "internalType": "uint256",
              "name": "tokenId",
              "type": "uint256"
            },
            {
              "internalType": "string",
              "name": "tokenURI",
              "type": "string"
            }
          ],
          "internalType": "struct MyNFT.ShortNFT[]",
          "name": "",
          "type": "tuple[]"
        }
      ],
      "stateMutability": "view",
      "type": "function",
      "constant": true
    },
    {
      "inputs": [
        {
          "internalType": "uint256",
          "name": "_tokenId",
          "type": "uint256"
        }
      ],
      "name": "getDetailOfNft",
      "outputs": [
        {
          "components": [
            {
              "internalType": "uint256",
              "name": "tokenId",
              "type": "uint256"
            },
            {
              "internalType": "address",
              "name": "owner",
              "type": "address"
            },
            {
              "internalType": "string",
              "name": "tokenURI",
              "type": "string"
            },
            {
              "internalType": "string",
              "name": "imageName",
              "type": "string"
            },
            {
              "internalType": "uint256",
              "name": "price",
              "type": "uint256"
            },
            {
              "internalType": "string",
              "name": "released",
              "type": "string"
            }
          ],
          "internalType": "struct MyNFT.DetailOfNFT",
          "name": "",
          "type": "tuple"
        }
      ],
      "stateMutability": "view",
      "type": "function",
      "constant": true
    },
    {
      "inputs": [],
      "name": "getNFTId",
      "outputs": [
        {
          "internalType": "uint256",
          "name": "",
          "type": "uint256"
        }
      ],
      "stateMutability": "view",
      "type": "function",
      "constant": true
    },
    {
      "inputs": [
        {
          "internalType": "uint256",
          "name": "_tokenId",
          "type": "uint256"
        },
        {
          "internalType": "uint256",
          "name": "_price",
          "type": "uint256"
        }
      ],
      "name": "changePrice",
      "outputs": [],
      "stateMutability": "nonpayable",
      "type": "function"
    },
    {
      "inputs": [
        {
          "internalType": "uint256",
          "name": "_tokenId",
          "type": "uint256"
        }
      ],
      "name": "buyNFT",
      "outputs": [],
      "stateMutability": "payable",
      "type": "function",
      "payable": true
    }
  ],
  "bytecode": "0x60806040523480156200001157600080fd5b506040518060400160405280600581526020017f4d794e46540000000000000000000000000000000000000000000000000000008152506040518060400160405280600381526020017f4e4654000000000000000000000000000000000000000000000000000000000081525081600090816200008f919062000412565b508060019081620000a1919062000412565b505050620000c4620000b8620000ca60201b60201c565b620000d260201b60201c565b620004f9565b600033905090565b6000600760009054906101000a900473ffffffffffffffffffffffffffffffffffffffff16905081600760006101000a81548173ffffffffffffffffffffffffffffffffffffffff021916908373ffffffffffffffffffffffffffffffffffffffff1602179055508173ffffffffffffffffffffffffffffffffffffffff168173ffffffffffffffffffffffffffffffffffffffff167f8be0079c531659141344cd1fd0a4f28419497f9722a3daafe3b4186f6b6457e060405160405180910390a35050565b600081519050919050565b7f4e487b7100000000000000000000000000000000000000000000000000000000600052604160045260246000fd5b7f4e487b7100000000000000000000000000000000000000000000000000000000600052602260045260246000fd5b600060028204905060018216806200021a57607f821691505b60208210810362000230576200022f620001d2565b5b50919050565b60008190508160005260206000209050919050565b60006020601f8301049050919050565b600082821b905092915050565b6000600883026200029a7fffffffffffffffffffffffffffffffffffffffffffffffffffffffffffffffff826200025b565b620002a686836200025b565b95508019841693508086168417925050509392505050565b6000819050919050565b6000819050919050565b6000620002f3620002ed620002e784620002be565b620002c8565b620002be565b9050919050565b6000819050919050565b6200030f83620002d2565b620003276200031e82620002fa565b84845462000268565b825550505050565b600090565b6200033e6200032f565b6200034b81848462000304565b505050565b5b8181101562000373576200036760008262000334565b60018101905062000351565b5050565b601f821115620003c2576200038c8162000236565b62000397846200024b565b81016020851015620003a7578190505b620003bf620003b6856200024b565b83018262000350565b50505b505050565b600082821c905092915050565b6000620003e760001984600802620003c7565b1980831691505092915050565b6000620004028383620003d4565b9150826002028217905092915050565b6200041d8262000198565b67ffffffffffffffff811115620004395762000438620001a3565b5b62000445825462000201565b6200045282828562000377565b600060209050601f8311600181146200048a576000841562000475578287015190505b620004818582620003f4565b865550620004f1565b601f1984166200049a8662000236565b60005b82811015620004c4578489015182556001820191506020850194506020810190506200049d565b86831015620004e45784890151620004e0601f891682620003d4565b8355505b6001600288020188555050505b505050505050565b613f0880620005096000396000f3fe60806040526004361061014b5760003560e01c8063715018a6116100b6578063b88d4fde1161006f578063b88d4fde146104a7578063c87b56dd146104d0578063d4c5e9921461050d578063e985e9c51461054a578063f2fde38b14610587578063f3b1633d146105b05761014b565b8063715018a6146103bd5780638da5cb5b146103d457806395d89b41146103ff578063a22cb4651461042a578063a2c7fc5414610453578063b3de019c1461047e5761014b565b806342842e0e1161010857806342842e0e14610284578063444d1423146102ad57806351ed8288146102ea5780636352211e146103065780636f5db7151461034357806370a08231146103805761014b565b806301ffc9a71461015057806306fdde031461018d578063081812fc146101b8578063095ea7b3146101f557806323b872dd1461021e578063345a98c414610247575b600080fd5b34801561015c57600080fd5b50610177600480360381019061017291906127c6565b6105db565b604051610184919061280e565b60405180910390f35b34801561019957600080fd5b506101a26106bd565b6040516101af91906128b9565b60405180910390f35b3480156101c457600080fd5b506101df60048036038101906101da9190612911565b61074f565b6040516101ec919061297f565b60405180910390f35b34801561020157600080fd5b5061021c600480360381019061021791906129c6565b610795565b005b34801561022a57600080fd5b5061024560048036038101906102409190612a06565b6108ac565b005b34801561025357600080fd5b5061026e60048036038101906102699190612b8e565b61090c565b60405161027b9190612c58565b60405180910390f35b34801561029057600080fd5b506102ab60048036038101906102a69190612a06565b610a23565b005b3480156102b957600080fd5b506102d460048036038101906102cf9190612911565b610a43565b6040516102e19190612d72565b60405180910390f35b61030460048036038101906102ff9190612911565b610c12565b005b34801561031257600080fd5b5061032d60048036038101906103289190612911565b610ec5565b60405161033a919061297f565b60405180910390f35b34801561034f57600080fd5b5061036a60048036038101906103659190612d94565b610f4b565b6040516103779190612ed3565b60405180910390f35b34801561038c57600080fd5b506103a760048036038101906103a29190612ef5565b61102d565b6040516103b49190612c58565b60405180910390f35b3480156103c957600080fd5b506103d26110e4565b005b3480156103e057600080fd5b506103e96110f8565b6040516103f6919061297f565b60405180910390f35b34801561040b57600080fd5b50610414611122565b60405161042191906128b9565b60405180910390f35b34801561043657600080fd5b50610451600480360381019061044c9190612f4e565b6111b4565b005b34801561045f57600080fd5b506104686111ca565b6040516104759190612c58565b60405180910390f35b34801561048a57600080fd5b506104a560048036038101906104a09190612d94565b6111e0565b005b3480156104b357600080fd5b506104ce60048036038101906104c9919061302f565b611275565b005b3480156104dc57600080fd5b506104f760048036038101906104f29190612911565b6112d7565b60405161050491906128b9565b60405180910390f35b34801561051957600080fd5b50610534600480360381019061052f9190612ef5565b6113e9565b6040516105419190612ed3565b60405180910390f35b34801561055657600080fd5b50610571600480360381019061056c91906130b2565b61156f565b60405161057e919061280e565b60405180910390f35b34801561059357600080fd5b506105ae60048036038101906105a99190612ef5565b611603565b005b3480156105bc57600080fd5b506105c5611686565b6040516105d29190612ed3565b60405180910390f35b60007f80ac58cd000000000000000000000000000000000000000000000000000000007bffffffffffffffffffffffffffffffffffffffffffffffffffffffff1916827bffffffffffffffffffffffffffffffffffffffffffffffffffffffff191614806106a657507f5b5e139f000000000000000000000000000000000000000000000000000000007bffffffffffffffffffffffffffffffffffffffffffffffffffffffff1916827bffffffffffffffffffffffffffffffffffffffffffffffffffffffff1916145b806106b657506106b582611762565b5b9050919050565b6060600080546106cc90613121565b80601f01602080910402602001604051908101604052809291908181526020018280546106f890613121565b80156107455780601f1061071a57610100808354040283529160200191610745565b820191906000526020600020905b81548152906001019060200180831161072857829003601f168201915b5050505050905090565b600061075a826117cc565b6004600083815260200190815260200160002060009054906101000a900473ffffffffffffffffffffffffffffffffffffffff169050919050565b60006107a082610ec5565b90508073ffffffffffffffffffffffffffffffffffffffff168373ffffffffffffffffffffffffffffffffffffffff1603610810576040517f08c379a0000000000000000000000000000000000000000000000000000000008152600401610807906131c4565b60405180910390fd5b8073ffffffffffffffffffffffffffffffffffffffff1661082f611817565b73ffffffffffffffffffffffffffffffffffffffff16148061085e575061085d81610858611817565b61156f565b5b61089d576040517f08c379a000000000000000000000000000000000000000000000000000000000815260040161089490613256565b60405180910390fd5b6108a7838361181f565b505050565b6108bd6108b7611817565b826118d8565b6108fc576040517f08c379a00000000000000000000000000000000000000000000000000000000081526004016108f3906132e8565b60405180910390fd5b61090783838361196d565b505050565b60006109186008611c66565b60006109246008611c7c565b90506109303382611c8a565b61093a8187611ea7565b600960003373ffffffffffffffffffffffffffffffffffffffff1673ffffffffffffffffffffffffffffffffffffffff168152602001908152602001600020819080600181540180825580915050600190039060005260206000200160009091909190915055604051806080016040528082815260200185815260200184815260200186815250600a60008381526020019081526020016000206000820151816000015560208201518160010190816109f391906134b4565b50604082015181600201556060820151816003019081610a1391906134b4565b5090505080915050949350505050565b610a3e83838360405180602001604052806000815250611275565b505050565b610a4b6126f4565b6000600a600084815260200190815260200160002060405180608001604052908160008201548152602001600182018054610a8590613121565b80601f0160208091040260200160405190810160405280929190818152602001828054610ab190613121565b8015610afe5780601f10610ad357610100808354040283529160200191610afe565b820191906000526020600020905b815481529060010190602001808311610ae157829003601f168201915b5050505050815260200160028201548152602001600382018054610b2190613121565b80601f0160208091040260200160405190810160405280929190818152602001828054610b4d90613121565b8015610b9a5780601f10610b6f57610100808354040283529160200191610b9a565b820191906000526020600020905b815481529060010190602001808311610b7d57829003601f168201915b505050505081525050905060006040518060c00160405280858152602001610bc186610ec5565b73ffffffffffffffffffffffffffffffffffffffff168152602001610be5866112d7565b81526020018360200151815260200183604001518152602001836060015181525090508092505050919050565b6000610c1d82610ec5565b90503373ffffffffffffffffffffffffffffffffffffffff168173ffffffffffffffffffffffffffffffffffffffff1603610c8d576040517f08c379a0000000000000000000000000000000000000000000000000000000008152600401610c84906135d2565b60405180910390fd5b6000600a60008481526020019081526020016000206002015403610ce6576040517f08c379a0000000000000000000000000000000000000000000000000000000008152600401610cdd9061363e565b60405180910390fd5b8073ffffffffffffffffffffffffffffffffffffffff166108fc349081150290604051600060405180830381858888f19350505050158015610d2c573d6000803e3d6000fd5b50610d3881338461196d565b60005b600960008373ffffffffffffffffffffffffffffffffffffffff1673ffffffffffffffffffffffffffffffffffffffff16815260200190815260200160002080549050811015610ec05782600960008473ffffffffffffffffffffffffffffffffffffffff1673ffffffffffffffffffffffffffffffffffffffff1681526020019081526020016000208281548110610dd757610dd661365e565b5b906000526020600020015403610ead57600960008373ffffffffffffffffffffffffffffffffffffffff1673ffffffffffffffffffffffffffffffffffffffff1681526020019081526020016000208181548110610e3857610e3761365e565b5b9060005260206000200160009055600960003373ffffffffffffffffffffffffffffffffffffffff1673ffffffffffffffffffffffffffffffffffffffff1681526020019081526020016000208390806001815401808255809150506001900390600052602060002001600090919091909150555b8080610eb8906136bc565b915050610d3b565b505050565b600080610ed183611f14565b9050600073ffffffffffffffffffffffffffffffffffffffff168173ffffffffffffffffffffffffffffffffffffffff1603610f42576040517f08c379a0000000000000000000000000000000000000000000000000000000008152600401610f3990613750565b60405180910390fd5b80915050919050565b6060600060018484610f5d9190613770565b610f6791906137a4565b67ffffffffffffffff811115610f8057610f7f612a63565b5b604051908082528060200260200182016040528015610fb957816020015b610fa6612740565b815260200190600190039081610f9e5790505b50905060008490505b838111611022576040518060400160405280828152602001610fe3836112d7565b815250828683610ff39190613770565b815181106110045761100361365e565b5b6020026020010181905250808061101a906136bc565b915050610fc2565b508091505092915050565b60008073ffffffffffffffffffffffffffffffffffffffff168273ffffffffffffffffffffffffffffffffffffffff160361109d576040517f08c379a00000000000000000000000000000000000000000000000000000000081526004016110949061384a565b60405180910390fd5b600360008373ffffffffffffffffffffffffffffffffffffffff1673ffffffffffffffffffffffffffffffffffffffff168152602001908152602001600020549050919050565b6110ec611f51565b6110f66000611fcf565b565b6000600760009054906101000a900473ffffffffffffffffffffffffffffffffffffffff16905090565b60606001805461113190613121565b80601f016020809104026020016040519081016040528092919081815260200182805461115d90613121565b80156111aa5780601f1061117f576101008083540402835291602001916111aa565b820191906000526020600020905b81548152906001019060200180831161118d57829003601f168201915b5050505050905090565b6111c66111bf611817565b8383612095565b5050565b6000806111d76008611c7c565b90508091505090565b6111e982610ec5565b73ffffffffffffffffffffffffffffffffffffffff163373ffffffffffffffffffffffffffffffffffffffff1614611256576040517f08c379a000000000000000000000000000000000000000000000000000000000815260040161124d906138b6565b60405180910390fd5b80600a6000848152602001908152602001600020600201819055505050565b611286611280611817565b836118d8565b6112c5576040517f08c379a00000000000000000000000000000000000000000000000000000000081526004016112bc906132e8565b60405180910390fd5b6112d184848484612201565b50505050565b60606112e2826117cc565b600060066000848152602001908152602001600020805461130290613121565b80601f016020809104026020016040519081016040528092919081815260200182805461132e90613121565b801561137b5780601f106113505761010080835404028352916020019161137b565b820191906000526020600020905b81548152906001019060200180831161135e57829003601f168201915b50505050509050600061138c61225d565b905060008151036113a15781925050506113e4565b6000825111156113d65780826040516020016113be929190613912565b604051602081830303815290604052925050506113e4565b6113df84612274565b925050505b919050565b60606000600960008473ffffffffffffffffffffffffffffffffffffffff1673ffffffffffffffffffffffffffffffffffffffff16815260200190815260200160002080549050905060008167ffffffffffffffff81111561144e5761144d612a63565b5b60405190808252806020026020018201604052801561148757816020015b611474612740565b81526020019060019003908161146c5790505b50905060005b82811015611564576000600960008773ffffffffffffffffffffffffffffffffffffffff1673ffffffffffffffffffffffffffffffffffffffff16815260200190815260200160002082815481106114e8576114e761365e565b5b9060005260206000200154905060008114611550576040518060400160405280828152602001611517836112d7565b81525083836001876115299190613770565b6115339190613770565b815181106115445761154361365e565b5b60200260200101819052505b50808061155c906136bc565b91505061148d565b508092505050919050565b6000600560008473ffffffffffffffffffffffffffffffffffffffff1673ffffffffffffffffffffffffffffffffffffffff16815260200190815260200160002060008373ffffffffffffffffffffffffffffffffffffffff1673ffffffffffffffffffffffffffffffffffffffff16815260200190815260200160002060009054906101000a900460ff16905092915050565b61160b611f51565b600073ffffffffffffffffffffffffffffffffffffffff168173ffffffffffffffffffffffffffffffffffffffff160361167a576040517f08c379a0000000000000000000000000000000000000000000000000000000008152600401611671906139a8565b60405180910390fd5b61168381611fcf565b50565b606060006116946008611c7c565b67ffffffffffffffff8111156116ad576116ac612a63565b5b6040519080825280602002602001820160405280156116e657816020015b6116d3612740565b8152602001906001900390816116cb5790505b5090506000600190505b6116fa6008611c7c565b811161175a57604051806040016040528082815260200161171a836112d7565b8152508260018361172b9190613770565b8151811061173c5761173b61365e565b5b60200260200101819052508080611752906136bc565b9150506116f0565b508091505090565b60007f01ffc9a7000000000000000000000000000000000000000000000000000000007bffffffffffffffffffffffffffffffffffffffffffffffffffffffff1916827bffffffffffffffffffffffffffffffffffffffffffffffffffffffff1916149050919050565b6117d5816122dc565b611814576040517f08c379a000000000000000000000000000000000000000000000000000000000815260040161180b90613750565b60405180910390fd5b50565b600033905090565b816004600083815260200190815260200160002060006101000a81548173ffffffffffffffffffffffffffffffffffffffff021916908373ffffffffffffffffffffffffffffffffffffffff160217905550808273ffffffffffffffffffffffffffffffffffffffff1661189283610ec5565b73ffffffffffffffffffffffffffffffffffffffff167f8c5be1e5ebec7d5bd14f71427d1e84f3dd0314c0f7b2291e5b200ac8c7c3b92560405160405180910390a45050565b6000806118e483610ec5565b90508073ffffffffffffffffffffffffffffffffffffffff168473ffffffffffffffffffffffffffffffffffffffff1614806119265750611925818561156f565b5b8061196457508373ffffffffffffffffffffffffffffffffffffffff1661194c8461074f565b73ffffffffffffffffffffffffffffffffffffffff16145b91505092915050565b8273ffffffffffffffffffffffffffffffffffffffff1661198d82610ec5565b73ffffffffffffffffffffffffffffffffffffffff16146119e3576040517f08c379a00000000000000000000000000000000000000000000000000000000081526004016119da90613a3a565b60405180910390fd5b600073ffffffffffffffffffffffffffffffffffffffff168273ffffffffffffffffffffffffffffffffffffffff1603611a52576040517f08c379a0000000000000000000000000000000000000000000000000000000008152600401611a4990613acc565b60405180910390fd5b611a5f838383600161231d565b8273ffffffffffffffffffffffffffffffffffffffff16611a7f82610ec5565b73ffffffffffffffffffffffffffffffffffffffff1614611ad5576040517f08c379a0000000000000000000000000000000000000000000000000000000008152600401611acc90613a3a565b60405180910390fd5b6004600082815260200190815260200160002060006101000a81549073ffffffffffffffffffffffffffffffffffffffff02191690556001600360008573ffffffffffffffffffffffffffffffffffffffff1673ffffffffffffffffffffffffffffffffffffffff168152602001908152602001600020600082825403925050819055506001600360008473ffffffffffffffffffffffffffffffffffffffff1673ffffffffffffffffffffffffffffffffffffffff16815260200190815260200160002060008282540192505081905550816002600083815260200190815260200160002060006101000a81548173ffffffffffffffffffffffffffffffffffffffff021916908373ffffffffffffffffffffffffffffffffffffffff160217905550808273ffffffffffffffffffffffffffffffffffffffff168473ffffffffffffffffffffffffffffffffffffffff167fddf252ad1be2c89b69c2b068fc378daa952ba7f163c4a11628f55a4df523b3ef60405160405180910390a4611c618383836001612323565b505050565b6001816000016000828254019250508190555050565b600081600001549050919050565b600073ffffffffffffffffffffffffffffffffffffffff168273ffffffffffffffffffffffffffffffffffffffff1603611cf9576040517f08c379a0000000000000000000000000000000000000000000000000000000008152600401611cf090613b38565b60405180910390fd5b611d02816122dc565b15611d42576040517f08c379a0000000000000000000000000000000000000000000000000000000008152600401611d3990613ba4565b60405180910390fd5b611d5060008383600161231d565b611d59816122dc565b15611d99576040517f08c379a0000000000000000000000000000000000000000000000000000000008152600401611d9090613ba4565b60405180910390fd5b6001600360008473ffffffffffffffffffffffffffffffffffffffff1673ffffffffffffffffffffffffffffffffffffffff16815260200190815260200160002060008282540192505081905550816002600083815260200190815260200160002060006101000a81548173ffffffffffffffffffffffffffffffffffffffff021916908373ffffffffffffffffffffffffffffffffffffffff160217905550808273ffffffffffffffffffffffffffffffffffffffff16600073ffffffffffffffffffffffffffffffffffffffff167fddf252ad1be2c89b69c2b068fc378daa952ba7f163c4a11628f55a4df523b3ef60405160405180910390a4611ea3600083836001612323565b5050565b611eb0826122dc565b611eef576040517f08c379a0000000000000000000000000000000000000000000000000000000008152600401611ee690613c36565b60405180910390fd5b80600660008481526020019081526020016000209081611f0f91906134b4565b505050565b60006002600083815260200190815260200160002060009054906101000a900473ffffffffffffffffffffffffffffffffffffffff169050919050565b611f59611817565b73ffffffffffffffffffffffffffffffffffffffff16611f776110f8565b73ffffffffffffffffffffffffffffffffffffffff1614611fcd576040517f08c379a0000000000000000000000000000000000000000000000000000000008152600401611fc490613ca2565b60405180910390fd5b565b6000600760009054906101000a900473ffffffffffffffffffffffffffffffffffffffff16905081600760006101000a81548173ffffffffffffffffffffffffffffffffffffffff021916908373ffffffffffffffffffffffffffffffffffffffff1602179055508173ffffffffffffffffffffffffffffffffffffffff168173ffffffffffffffffffffffffffffffffffffffff167f8be0079c531659141344cd1fd0a4f28419497f9722a3daafe3b4186f6b6457e060405160405180910390a35050565b8173ffffffffffffffffffffffffffffffffffffffff168373ffffffffffffffffffffffffffffffffffffffff1603612103576040517f08c379a00000000000000000000000000000000000000000000000000000000081526004016120fa90613d0e565b60405180910390fd5b80600560008573ffffffffffffffffffffffffffffffffffffffff1673ffffffffffffffffffffffffffffffffffffffff16815260200190815260200160002060008473ffffffffffffffffffffffffffffffffffffffff1673ffffffffffffffffffffffffffffffffffffffff16815260200190815260200160002060006101000a81548160ff0219169083151502179055508173ffffffffffffffffffffffffffffffffffffffff168373ffffffffffffffffffffffffffffffffffffffff167f17307eab39ab6107e8899845ad3d59bd9653f200f220920489ca2b5937696c31836040516121f4919061280e565b60405180910390a3505050565b61220c84848461196d565b61221884848484612329565b612257576040517f08c379a000000000000000000000000000000000000000000000000000000000815260040161224e90613da0565b60405180910390fd5b50505050565b606060405180602001604052806000815250905090565b606061227f826117cc565b600061228961225d565b905060008151116122a957604051806020016040528060008152506122d4565b806122b3846124b0565b6040516020016122c4929190613912565b6040516020818303038152906040525b915050919050565b60008073ffffffffffffffffffffffffffffffffffffffff166122fe83611f14565b73ffffffffffffffffffffffffffffffffffffffff1614159050919050565b50505050565b50505050565b600061234a8473ffffffffffffffffffffffffffffffffffffffff1661257e565b156124a3578373ffffffffffffffffffffffffffffffffffffffff1663150b7a02612373611817565b8786866040518563ffffffff1660e01b81526004016123959493929190613e15565b6020604051808303816000875af19250505080156123d157506040513d601f19601f820116820180604052508101906123ce9190613e76565b60015b612453573d8060008114612401576040519150601f19603f3d011682016040523d82523d6000602084013e612406565b606091505b50600081510361244b576040517f08c379a000000000000000000000000000000000000000000000000000000000815260040161244290613da0565b60405180910390fd5b805181602001fd5b63150b7a0260e01b7bffffffffffffffffffffffffffffffffffffffffffffffffffffffff1916817bffffffffffffffffffffffffffffffffffffffffffffffffffffffff1916149150506124a8565b600190505b949350505050565b6060600060016124bf846125a1565b01905060008167ffffffffffffffff8111156124de576124dd612a63565b5b6040519080825280601f01601f1916602001820160405280156125105781602001600182028036833780820191505090505b509050600082602001820190505b600115612573578080600190039150507f3031323334353637383961626364656600000000000000000000000000000000600a86061a8153600a858161256757612566613ea3565b5b0494506000850361251e575b819350505050919050565b6000808273ffffffffffffffffffffffffffffffffffffffff163b119050919050565b600080600090507a184f03e93ff9f4daa797ed6e38ed64bf6a1f01000000000000000083106125ff577a184f03e93ff9f4daa797ed6e38ed64bf6a1f01000000000000000083816125f5576125f4613ea3565b5b0492506040810190505b6d04ee2d6d415b85acef8100000000831061263c576d04ee2d6d415b85acef8100000000838161263257612631613ea3565b5b0492506020810190505b662386f26fc10000831061266b57662386f26fc10000838161266157612660613ea3565b5b0492506010810190505b6305f5e1008310612694576305f5e100838161268a57612689613ea3565b5b0492506008810190505b61271083106126b95761271083816126af576126ae613ea3565b5b0492506004810190505b606483106126dc57606483816126d2576126d1613ea3565b5b0492506002810190505b600a83106126eb576001810190505b80915050919050565b6040518060c0016040528060008152602001600073ffffffffffffffffffffffffffffffffffffffff168152602001606081526020016060815260200160008152602001606081525090565b604051806040016040528060008152602001606081525090565b6000604051905090565b600080fd5b600080fd5b60007fffffffff0000000000000000000000000000000000000000000000000000000082169050919050565b6127a38161276e565b81146127ae57600080fd5b50565b6000813590506127c08161279a565b92915050565b6000602082840312156127dc576127db612764565b5b60006127ea848285016127b1565b91505092915050565b60008115159050919050565b612808816127f3565b82525050565b600060208201905061282360008301846127ff565b92915050565b600081519050919050565b600082825260208201905092915050565b60005b83811015612863578082015181840152602081019050612848565b60008484015250505050565b6000601f19601f8301169050919050565b600061288b82612829565b6128958185612834565b93506128a5818560208601612845565b6128ae8161286f565b840191505092915050565b600060208201905081810360008301526128d38184612880565b905092915050565b6000819050919050565b6128ee816128db565b81146128f957600080fd5b50565b60008135905061290b816128e5565b92915050565b60006020828403121561292757612926612764565b5b6000612935848285016128fc565b91505092915050565b600073ffffffffffffffffffffffffffffffffffffffff82169050919050565b60006129698261293e565b9050919050565b6129798161295e565b82525050565b60006020820190506129946000830184612970565b92915050565b6129a38161295e565b81146129ae57600080fd5b50565b6000813590506129c08161299a565b92915050565b600080604083850312156129dd576129dc612764565b5b60006129eb858286016129b1565b92505060206129fc858286016128fc565b9150509250929050565b600080600060608486031215612a1f57612a1e612764565b5b6000612a2d868287016129b1565b9350506020612a3e868287016129b1565b9250506040612a4f868287016128fc565b9150509250925092565b600080fd5b600080fd5b7f4e487b7100000000000000000000000000000000000000000000000000000000600052604160045260246000fd5b612a9b8261286f565b810181811067ffffffffffffffff82111715612aba57612ab9612a63565b5b80604052505050565b6000612acd61275a565b9050612ad98282612a92565b919050565b600067ffffffffffffffff821115612af957612af8612a63565b5b612b028261286f565b9050602081019050919050565b82818337600083830152505050565b6000612b31612b2c84612ade565b612ac3565b905082815260208101848484011115612b4d57612b4c612a5e565b5b612b58848285612b0f565b509392505050565b600082601f830112612b7557612b74612a59565b5b8135612b85848260208601612b1e565b91505092915050565b60008060008060808587031215612ba857612ba7612764565b5b600085013567ffffffffffffffff811115612bc657612bc5612769565b5b612bd287828801612b60565b945050602085013567ffffffffffffffff811115612bf357612bf2612769565b5b612bff87828801612b60565b935050604085013567ffffffffffffffff811115612c2057612c1f612769565b5b612c2c87828801612b60565b9250506060612c3d878288016128fc565b91505092959194509250565b612c52816128db565b82525050565b6000602082019050612c6d6000830184612c49565b92915050565b612c7c816128db565b82525050565b612c8b8161295e565b82525050565b600082825260208201905092915050565b6000612cad82612829565b612cb78185612c91565b9350612cc7818560208601612845565b612cd08161286f565b840191505092915050565b600060c083016000830151612cf36000860182612c73565b506020830151612d066020860182612c82565b5060408301518482036040860152612d1e8282612ca2565b91505060608301518482036060860152612d388282612ca2565b9150506080830151612d4d6080860182612c73565b5060a083015184820360a0860152612d658282612ca2565b9150508091505092915050565b60006020820190508181036000830152612d8c8184612cdb565b905092915050565b60008060408385031215612dab57612daa612764565b5b6000612db9858286016128fc565b9250506020612dca858286016128fc565b9150509250929050565b600081519050919050565b600082825260208201905092915050565b6000819050602082019050919050565b6000604083016000830151612e186000860182612c73565b5060208301518482036020860152612e308282612ca2565b9150508091505092915050565b6000612e498383612e00565b905092915050565b6000602082019050919050565b6000612e6982612dd4565b612e738185612ddf565b935083602082028501612e8585612df0565b8060005b85811015612ec15784840389528151612ea28582612e3d565b9450612ead83612e51565b925060208a01995050600181019050612e89565b50829750879550505050505092915050565b60006020820190508181036000830152612eed8184612e5e565b905092915050565b600060208284031215612f0b57612f0a612764565b5b6000612f19848285016129b1565b91505092915050565b612f2b816127f3565b8114612f3657600080fd5b50565b600081359050612f4881612f22565b92915050565b60008060408385031215612f6557612f64612764565b5b6000612f73858286016129b1565b9250506020612f8485828601612f39565b9150509250929050565b600067ffffffffffffffff821115612fa957612fa8612a63565b5b612fb28261286f565b9050602081019050919050565b6000612fd2612fcd84612f8e565b612ac3565b905082815260208101848484011115612fee57612fed612a5e565b5b612ff9848285612b0f565b509392505050565b600082601f83011261301657613015612a59565b5b8135613026848260208601612fbf565b91505092915050565b6000806000806080858703121561304957613048612764565b5b6000613057878288016129b1565b9450506020613068878288016129b1565b9350506040613079878288016128fc565b925050606085013567ffffffffffffffff81111561309a57613099612769565b5b6130a687828801613001565b91505092959194509250565b600080604083850312156130c9576130c8612764565b5b60006130d7858286016129b1565b92505060206130e8858286016129b1565b9150509250929050565b7f4e487b7100000000000000000000000000000000000000000000000000000000600052602260045260246000fd5b6000600282049050600182168061313957607f821691505b60208210810361314c5761314b6130f2565b5b50919050565b7f4552433732313a20617070726f76616c20746f2063757272656e74206f776e6560008201527f7200000000000000000000000000000000000000000000000000000000000000602082015250565b60006131ae602183612834565b91506131b982613152565b604082019050919050565b600060208201905081810360008301526131dd816131a1565b9050919050565b7f4552433732313a20617070726f76652063616c6c6572206973206e6f7420746f60008201527f6b656e206f776e6572206f7220617070726f76656420666f7220616c6c000000602082015250565b6000613240603d83612834565b915061324b826131e4565b604082019050919050565b6000602082019050818103600083015261326f81613233565b9050919050565b7f4552433732313a2063616c6c6572206973206e6f7420746f6b656e206f776e6560008201527f72206f7220617070726f76656400000000000000000000000000000000000000602082015250565b60006132d2602d83612834565b91506132dd82613276565b604082019050919050565b60006020820190508181036000830152613301816132c5565b9050919050565b60008190508160005260206000209050919050565b60006020601f8301049050919050565b600082821b905092915050565b60006008830261336a7fffffffffffffffffffffffffffffffffffffffffffffffffffffffffffffffff8261332d565b613374868361332d565b95508019841693508086168417925050509392505050565b6000819050919050565b60006133b16133ac6133a7846128db565b61338c565b6128db565b9050919050565b6000819050919050565b6133cb83613396565b6133df6133d7826133b8565b84845461333a565b825550505050565b600090565b6133f46133e7565b6133ff8184846133c2565b505050565b5b81811015613423576134186000826133ec565b600181019050613405565b5050565b601f8211156134685761343981613308565b6134428461331d565b81016020851015613451578190505b61346561345d8561331d565b830182613404565b50505b505050565b600082821c905092915050565b600061348b6000198460080261346d565b1980831691505092915050565b60006134a4838361347a565b9150826002028217905092915050565b6134bd82612829565b67ffffffffffffffff8111156134d6576134d5612a63565b5b6134e08254613121565b6134eb828285613427565b600060209050601f83116001811461351e576000841561350c578287015190505b6135168582613498565b86555061357e565b601f19841661352c86613308565b60005b828110156135545784890151825560018201915060208501945060208101905061352f565b86831015613571578489015161356d601f89168261347a565b8355505b6001600288020188555050505b505050505050565b7f796f752061726520686f6c646572000000000000000000000000000000000000600082015250565b60006135bc600e83612834565b91506135c782613586565b602082019050919050565b600060208201905081810360008301526135eb816135af565b9050919050565b7f6973206e6f7420666f722073616c650000000000000000000000000000000000600082015250565b6000613628600f83612834565b9150613633826135f2565b602082019050919050565b600060208201905081810360008301526136578161361b565b9050919050565b7f4e487b7100000000000000000000000000000000000000000000000000000000600052603260045260246000fd5b7f4e487b7100000000000000000000000000000000000000000000000000000000600052601160045260246000fd5b60006136c7826128db565b91507fffffffffffffffffffffffffffffffffffffffffffffffffffffffffffffffff82036136f9576136f861368d565b5b600182019050919050565b7f4552433732313a20696e76616c696420746f6b656e2049440000000000000000600082015250565b600061373a601883612834565b915061374582613704565b602082019050919050565b600060208201905081810360008301526137698161372d565b9050919050565b600061377b826128db565b9150613786836128db565b925082820390508181111561379e5761379d61368d565b5b92915050565b60006137af826128db565b91506137ba836128db565b92508282019050808211156137d2576137d161368d565b5b92915050565b7f4552433732313a2061646472657373207a65726f206973206e6f74206120766160008201527f6c6964206f776e65720000000000000000000000000000000000000000000000602082015250565b6000613834602983612834565b915061383f826137d8565b604082019050919050565b6000602082019050818103600083015261386381613827565b9050919050565b7f73656e646572206973206e6f74206f776e657200000000000000000000000000600082015250565b60006138a0601383612834565b91506138ab8261386a565b602082019050919050565b600060208201905081810360008301526138cf81613893565b9050919050565b600081905092915050565b60006138ec82612829565b6138f681856138d6565b9350613906818560208601612845565b80840191505092915050565b600061391e82856138e1565b915061392a82846138e1565b91508190509392505050565b7f4f776e61626c653a206e6577206f776e657220697320746865207a65726f206160008201527f6464726573730000000000000000000000000000000000000000000000000000602082015250565b6000613992602683612834565b915061399d82613936565b604082019050919050565b600060208201905081810360008301526139c181613985565b9050919050565b7f4552433732313a207472616e736665722066726f6d20696e636f72726563742060008201527f6f776e6572000000000000000000000000000000000000000000000000000000602082015250565b6000613a24602583612834565b9150613a2f826139c8565b604082019050919050565b60006020820190508181036000830152613a5381613a17565b9050919050565b7f4552433732313a207472616e7366657220746f20746865207a65726f2061646460008201527f7265737300000000000000000000000000000000000000000000000000000000602082015250565b6000613ab6602483612834565b9150613ac182613a5a565b604082019050919050565b60006020820190508181036000830152613ae581613aa9565b9050919050565b7f4552433732313a206d696e7420746f20746865207a65726f2061646472657373600082015250565b6000613b22602083612834565b9150613b2d82613aec565b602082019050919050565b60006020820190508181036000830152613b5181613b15565b9050919050565b7f4552433732313a20746f6b656e20616c7265616479206d696e74656400000000600082015250565b6000613b8e601c83612834565b9150613b9982613b58565b602082019050919050565b60006020820190508181036000830152613bbd81613b81565b9050919050565b7f45524337323155524953746f726167653a2055524920736574206f66206e6f6e60008201527f6578697374656e7420746f6b656e000000000000000000000000000000000000602082015250565b6000613c20602e83612834565b9150613c2b82613bc4565b604082019050919050565b60006020820190508181036000830152613c4f81613c13565b9050919050565b7f4f776e61626c653a2063616c6c6572206973206e6f7420746865206f776e6572600082015250565b6000613c8c602083612834565b9150613c9782613c56565b602082019050919050565b60006020820190508181036000830152613cbb81613c7f565b9050919050565b7f4552433732313a20617070726f766520746f2063616c6c657200000000000000600082015250565b6000613cf8601983612834565b9150613d0382613cc2565b602082019050919050565b60006020820190508181036000830152613d2781613ceb565b9050919050565b7f4552433732313a207472616e7366657220746f206e6f6e20455243373231526560008201527f63656976657220696d706c656d656e7465720000000000000000000000000000602082015250565b6000613d8a603283612834565b9150613d9582613d2e565b604082019050919050565b60006020820190508181036000830152613db981613d7d565b9050919050565b600081519050919050565b600082825260208201905092915050565b6000613de782613dc0565b613df18185613dcb565b9350613e01818560208601612845565b613e0a8161286f565b840191505092915050565b6000608082019050613e2a6000830187612970565b613e376020830186612970565b613e446040830185612c49565b8181036060830152613e568184613ddc565b905095945050505050565b600081519050613e708161279a565b92915050565b600060208284031215613e8c57613e8b612764565b5b6000613e9a84828501613e61565b91505092915050565b7f4e487b7100000000000000000000000000000000000000000000000000000000600052601260045260246000fdfea26469706673582212204fa65de37076da75f4ed4df6bd0c992d4c98b199ad040ddf428d81916a6638bb64736f6c63430008130033",
  "immutableReferences": {},
  "source": "// SPDX-License-Identifier: MIT\npragma solidity >=0.4.22 <0.9.0;\n\nimport \"@openzeppelin/contracts/token/ERC721/ERC721.sol\";\nimport \"@openzeppelin/contracts/utils/Counters.sol\";\nimport \"@openzeppelin/contracts/access/Ownable.sol\";\nimport \"@openzeppelin/contracts/token/ERC721/extensions/ERC721URIStorage.sol\";\n\n//  price   getPrice  \n//   _tokenId   \n// --    \n\n// openzeppelin ERC721   ERC721URIStorage \n// ERC721 == NFT\ncontract MyNFT is ERC721URIStorage, Ownable {\n\n    //struct NFT{\n    //    string released;\n    //    uint tokenId;\n    //    string imageName;\n    //    address owner;\n    //    uint price;\n    //    string tokenURI;\n    //}\n\n    struct DetailOfNFT{\n        uint tokenId;\n        address owner;\n        string tokenURI;\n        string imageName;\n        uint price;\n        string released;\n    }\n\n    struct NFT{\n        uint tokenId;\n        string imageName;\n        uint price;\n        string released;\n    }\n\n    struct ShortNFT{\n        uint tokenId;\n        string tokenURI;\n    }\n\n\t//      \n    using Counters for Counters.Counter;\n    Counters.Counter private _tokenIds;\n\n    mapping(address => uint[]) HoldersList;\n    mapping(uint => NFT) ListOfNft;\n\n    constructor () ERC721(\"MyNFT\", \"NFT\") {}\n\n    function mintNFT(string memory _tokenURI, string memory _released, string memory _imageName, uint _price) public returns (uint256) {\n        _tokenIds.increment();\n        uint256 newItemId = _tokenIds.current();\n\n\n        _mint(msg.sender, newItemId);\n        _setTokenURI(newItemId, _tokenURI);\n\n        HoldersList[msg.sender].push(newItemId);\n        ListOfNft[newItemId] = NFT(newItemId, _imageName, _price, _released);\n        //ListOfNft[newItemId] = NFT(_released, newItemId, _imageName, msg.sender, _price, _tokenURI);\n\n        return newItemId;\n    }\n     \n    function getAllNFT() public view returns(ShortNFT[] memory){\n        ShortNFT[] memory allNFT = new ShortNFT[](_tokenIds.current());\n        for(uint i = 1; i <= _tokenIds.current(); i++){\n            allNFT[i - 1] = ShortNFT(i, tokenURI(i));\n        }\n        return allNFT;\n    }\n\n    //nft     \n    function getListShortNFT(uint _startIdx, uint _endIdx) public view returns(ShortNFT[] memory){\n        ShortNFT[] memory result = new ShortNFT[](_endIdx - _startIdx + 1);\n        for(uint i = _startIdx; i <= _endIdx; i++){\n            result[i - _startIdx] = ShortNFT(i, tokenURI(i));\n        }\n        return result;\n    }\n\n    function getListHolder(address _who) view public returns(ShortNFT[] memory){\n        uint lengthHolderList = HoldersList[_who].length;\n\n        ShortNFT[] memory result = new ShortNFT[](lengthHolderList);\n        for(uint i = 0; i < lengthHolderList; i++){\n            uint tokenId = HoldersList[_who][i];\n            if(tokenId != 0){\n                result[lengthHolderList - 1 - i] = ShortNFT(tokenId, tokenURI(tokenId));\n            }\n        }\n        return result;\n    }\n\n    function getDetailOfNft(uint _tokenId) public view returns(DetailOfNFT memory){\n        NFT memory selectedNft = ListOfNft[_tokenId];\n        DetailOfNFT memory result = DetailOfNFT(_tokenId, ownerOf(_tokenId), tokenURI(_tokenId), selectedNft.imageName, selectedNft.price, selectedNft.released);\n        return result;\n    }\n\n    function getNFTId() public view returns(uint256){\n        uint result = _tokenIds.current();\n        return result;\n    }\n\n    function changePrice(uint _tokenId, uint _price) public {\n        require(msg.sender == ownerOf(_tokenId), 'sender is not owner');\n        ListOfNft[_tokenId].price = _price;\n    }\n\n    function buyNFT(uint _tokenId) public payable{\n        address seller = ownerOf(_tokenId);\n        // \n        require(seller != msg.sender, 'you are holder');\n        //   0eth \n        require(ListOfNft[_tokenId].price != 0, 'is not for sale');\n       // require(msg.value == ListOfNft[_tokenId].price, 'not right price');\n        \n        //\n        payable(seller).transfer(msg.value);\n        //\n        _transfer(seller, msg.sender, _tokenId);\n        //ListOfNft[_tokenId].owner = msg.sender;\n\n        for(uint i = 0; i < HoldersList[seller].length; i++){\n            if(HoldersList[seller][i] == _tokenId){\n                delete HoldersList[seller][i];\n                HoldersList[msg.sender].push(_tokenId);\n            }\n        }\n    }\n\n}\n",
  "sourcePath": "/home/ubuntu/NFTContract/contracts/MyNFT.sol",
  "compiler": {
    "name": "solc",
    "version": "0.8.19+commit.7dd6d404.Emscripten.clang"
  },
  "schemaVersion": "3.4.13",
  "updatedAt": "2023-04-12T01:40:26.048Z",
  "networkType": "ethereum",
  "devdoc": {
    "events": {
      "Approval(address,address,uint256)": {
        "details": "Emitted when `owner` enables `approved` to manage the `tokenId` token."
      },
      "ApprovalForAll(address,address,bool)": {
        "details": "Emitted when `owner` enables or disables (`approved`) `operator` to manage all of its assets."
      },
      "Transfer(address,address,uint256)": {
        "details": "Emitted when `tokenId` token is transferred from `from` to `to`."
      }
    },
    "kind": "dev",
    "methods": {
      "approve(address,uint256)": {
        "details": "See {IERC721-approve}."
      },
      "balanceOf(address)": {
        "details": "See {IERC721-balanceOf}."
      },
      "getApproved(uint256)": {
        "details": "See {IERC721-getApproved}."
      },
      "isApprovedForAll(address,address)": {
        "details": "See {IERC721-isApprovedForAll}."
      },
      "name()": {
        "details": "See {IERC721Metadata-name}."
      },
      "owner()": {
        "details": "Returns the address of the current owner."
      },
      "ownerOf(uint256)": {
        "details": "See {IERC721-ownerOf}."
      },
      "renounceOwnership()": {
        "details": "Leaves the contract without owner. It will not be possible to call `onlyOwner` functions anymore. Can only be called by the current owner. NOTE: Renouncing ownership will leave the contract without an owner, thereby removing any functionality that is only available to the owner."
      },
      "safeTransferFrom(address,address,uint256)": {
        "details": "See {IERC721-safeTransferFrom}."
      },
      "safeTransferFrom(address,address,uint256,bytes)": {
        "details": "See {IERC721-safeTransferFrom}."
      },
      "setApprovalForAll(address,bool)": {
        "details": "See {IERC721-setApprovalForAll}."
      },
      "supportsInterface(bytes4)": {
        "details": "See {IERC165-supportsInterface}."
      },
      "symbol()": {
        "details": "See {IERC721Metadata-symbol}."
      },
      "tokenURI(uint256)": {
        "details": "See {IERC721Metadata-tokenURI}."
      },
      "transferFrom(address,address,uint256)": {
        "details": "See {IERC721-transferFrom}."
      },
      "transferOwnership(address)": {
        "details": "Transfers ownership of the contract to a new account (`newOwner`). Can only be called by the current owner."
      }
    },
    "version": 1
  },
  "userdoc": {
    "kind": "user",
    "methods": {},
    "version": 1
  }
}