{
  "contractName": "MyNFT",
  "abi": [
    {
      "inputs": [],
      "stateMutability": "nonpayable",
      "type": "constructor"
    },
    {
      "anonymous": false,
      "inputs": [
        {
          "indexed": true,
          "internalType": "address",
          "name": "owner",
          "type": "address"
        },
        {
          "indexed": true,
          "internalType": "address",
          "name": "approved",
          "type": "address"
        },
        {
          "indexed": true,
          "internalType": "uint256",
          "name": "tokenId",
          "type": "uint256"
        }
      ],
      "name": "Approval",
      "type": "event"
    },
    {
      "anonymous": false,
      "inputs": [
        {
          "indexed": true,
          "internalType": "address",
          "name": "owner",
          "type": "address"
        },
        {
          "indexed": true,
          "internalType": "address",
          "name": "operator",
          "type": "address"
        },
        {
          "indexed": false,
          "internalType": "bool",
          "name": "approved",
          "type": "bool"
        }
      ],
      "name": "ApprovalForAll",
      "type": "event"
    },
    {
      "anonymous": false,
      "inputs": [
        {
          "indexed": true,
          "internalType": "address",
          "name": "previousOwner",
          "type": "address"
        },
        {
          "indexed": true,
          "internalType": "address",
          "name": "newOwner",
          "type": "address"
        }
      ],
      "name": "OwnershipTransferred",
      "type": "event"
    },
    {
      "anonymous": false,
      "inputs": [
        {
          "indexed": true,
          "internalType": "address",
          "name": "from",
          "type": "address"
        },
        {
          "indexed": true,
          "internalType": "address",
          "name": "to",
          "type": "address"
        },
        {
          "indexed": true,
          "internalType": "uint256",
          "name": "tokenId",
          "type": "uint256"
        }
      ],
      "name": "Transfer",
      "type": "event"
    },
    {
      "inputs": [
        {
          "internalType": "address",
          "name": "to",
          "type": "address"
        },
        {
          "internalType": "uint256",
          "name": "tokenId",
          "type": "uint256"
        }
      ],
      "name": "approve",
      "outputs": [],
      "stateMutability": "nonpayable",
      "type": "function"
    },
    {
      "inputs": [
        {
          "internalType": "address",
          "name": "owner",
          "type": "address"
        }
      ],
      "name": "balanceOf",
      "outputs": [
        {
          "internalType": "uint256",
          "name": "",
          "type": "uint256"
        }
      ],
      "stateMutability": "view",
      "type": "function",
      "constant": true
    },
    {
      "inputs": [
        {
          "internalType": "uint256",
          "name": "tokenId",
          "type": "uint256"
        }
      ],
      "name": "getApproved",
      "outputs": [
        {
          "internalType": "address",
          "name": "",
          "type": "address"
        }
      ],
      "stateMutability": "view",
      "type": "function",
      "constant": true
    },
    {
      "inputs": [
        {
          "internalType": "address",
          "name": "owner",
          "type": "address"
        },
        {
          "internalType": "address",
          "name": "operator",
          "type": "address"
        }
      ],
      "name": "isApprovedForAll",
      "outputs": [
        {
          "internalType": "bool",
          "name": "",
          "type": "bool"
        }
      ],
      "stateMutability": "view",
      "type": "function",
      "constant": true
    },
    {
      "inputs": [],
      "name": "name",
      "outputs": [
        {
          "internalType": "string",
          "name": "",
          "type": "string"
        }
      ],
      "stateMutability": "view",
      "type": "function",
      "constant": true
    },
    {
      "inputs": [],
      "name": "owner",
      "outputs": [
        {
          "internalType": "address",
          "name": "",
          "type": "address"
        }
      ],
      "stateMutability": "view",
      "type": "function",
      "constant": true
    },
    {
      "inputs": [
        {
          "internalType": "uint256",
          "name": "tokenId",
          "type": "uint256"
        }
      ],
      "name": "ownerOf",
      "outputs": [
        {
          "internalType": "address",
          "name": "",
          "type": "address"
        }
      ],
      "stateMutability": "view",
      "type": "function",
      "constant": true
    },
    {
      "inputs": [],
      "name": "renounceOwnership",
      "outputs": [],
      "stateMutability": "nonpayable",
      "type": "function"
    },
    {
      "inputs": [
        {
          "internalType": "address",
          "name": "from",
          "type": "address"
        },
        {
          "internalType": "address",
          "name": "to",
          "type": "address"
        },
        {
          "internalType": "uint256",
          "name": "tokenId",
          "type": "uint256"
        }
      ],
      "name": "safeTransferFrom",
      "outputs": [],
      "stateMutability": "nonpayable",
      "type": "function"
    },
    {
      "inputs": [
        {
          "internalType": "address",
          "name": "from",
          "type": "address"
        },
        {
          "internalType": "address",
          "name": "to",
          "type": "address"
        },
        {
          "internalType": "uint256",
          "name": "tokenId",
          "type": "uint256"
        },
        {
          "internalType": "bytes",
          "name": "data",
          "type": "bytes"
        }
      ],
      "name": "safeTransferFrom",
      "outputs": [],
      "stateMutability": "nonpayable",
      "type": "function"
    },
    {
      "inputs": [
        {
          "internalType": "address",
          "name": "operator",
          "type": "address"
        },
        {
          "internalType": "bool",
          "name": "approved",
          "type": "bool"
        }
      ],
      "name": "setApprovalForAll",
      "outputs": [],
      "stateMutability": "nonpayable",
      "type": "function"
    },
    {
      "inputs": [
        {
          "internalType": "bytes4",
          "name": "interfaceId",
          "type": "bytes4"
        }
      ],
      "name": "supportsInterface",
      "outputs": [
        {
          "internalType": "bool",
          "name": "",
          "type": "bool"
        }
      ],
      "stateMutability": "view",
      "type": "function",
      "constant": true
    },
    {
      "inputs": [],
      "name": "symbol",
      "outputs": [
        {
          "internalType": "string",
          "name": "",
          "type": "string"
        }
      ],
      "stateMutability": "view",
      "type": "function",
      "constant": true
    },
    {
      "inputs": [
        {
          "internalType": "uint256",
          "name": "tokenId",
          "type": "uint256"
        }
      ],
      "name": "tokenURI",
      "outputs": [
        {
          "internalType": "string",
          "name": "",
          "type": "string"
        }
      ],
      "stateMutability": "view",
      "type": "function",
      "constant": true
    },
    {
      "inputs": [
        {
          "internalType": "address",
          "name": "from",
          "type": "address"
        },
        {
          "internalType": "address",
          "name": "to",
          "type": "address"
        },
        {
          "internalType": "uint256",
          "name": "tokenId",
          "type": "uint256"
        }
      ],
      "name": "transferFrom",
      "outputs": [],
      "stateMutability": "nonpayable",
      "type": "function"
    },
    {
      "inputs": [
        {
          "internalType": "address",
          "name": "newOwner",
          "type": "address"
        }
      ],
      "name": "transferOwnership",
      "outputs": [],
      "stateMutability": "nonpayable",
      "type": "function"
    },
    {
      "inputs": [
        {
          "internalType": "string",
          "name": "_tokenURI",
          "type": "string"
        },
        {
          "internalType": "string",
          "name": "_released",
          "type": "string"
        },
        {
          "internalType": "string",
          "name": "_imageName",
          "type": "string"
        },
        {
          "internalType": "uint256",
          "name": "_price",
          "type": "uint256"
        },
        {
          "internalType": "string",
          "name": "_emotion",
          "type": "string"
        },
        {
          "internalType": "string",
          "name": "_description",
          "type": "string"
        }
      ],
      "name": "mintNFT",
      "outputs": [
        {
          "internalType": "uint256",
          "name": "",
          "type": "uint256"
        }
      ],
      "stateMutability": "nonpayable",
      "type": "function"
    },
    {
      "inputs": [
        {
          "internalType": "uint256",
          "name": "_tokenId",
          "type": "uint256"
        }
      ],
      "name": "deleteNFT",
      "outputs": [],
      "stateMutability": "nonpayable",
      "type": "function"
    },
    {
      "inputs": [],
      "name": "getAllNFT",
      "outputs": [
        {
          "components": [
            {
              "internalType": "uint256",
              "name": "tokenId",
              "type": "uint256"
            },
            {
              "internalType": "string",
              "name": "tokenURI",
              "type": "string"
            },
            {
              "internalType": "uint256",
              "name": "price",
              "type": "uint256"
            }
          ],
          "internalType": "struct MyNFT.ShortNFT[]",
          "name": "",
          "type": "tuple[]"
        }
      ],
      "stateMutability": "view",
      "type": "function",
      "constant": true
    },
    {
      "inputs": [
        {
          "internalType": "uint256",
          "name": "_count",
          "type": "uint256"
        },
        {
          "internalType": "uint256",
          "name": "_page",
          "type": "uint256"
        }
      ],
      "name": "getListShortNFT",
      "outputs": [
        {
          "components": [
            {
              "internalType": "uint256",
              "name": "tokenId",
              "type": "uint256"
            },
            {
              "internalType": "string",
              "name": "tokenURI",
              "type": "string"
            },
            {
              "internalType": "uint256",
              "name": "price",
              "type": "uint256"
            }
          ],
          "internalType": "struct MyNFT.ShortNFT[]",
          "name": "",
          "type": "tuple[]"
        }
      ],
      "stateMutability": "view",
      "type": "function",
      "constant": true
    },
    {
      "inputs": [
        {
          "internalType": "uint256",
          "name": "_count",
          "type": "uint256"
        },
        {
          "internalType": "uint256",
          "name": "_page",
          "type": "uint256"
        },
        {
          "internalType": "string",
          "name": "_emotion",
          "type": "string"
        }
      ],
      "name": "getListShortNFTbyEmotion",
      "outputs": [
        {
          "components": [
            {
              "internalType": "uint256",
              "name": "tokenId",
              "type": "uint256"
            },
            {
              "internalType": "string",
              "name": "tokenURI",
              "type": "string"
            },
            {
              "internalType": "uint256",
              "name": "price",
              "type": "uint256"
            }
          ],
          "internalType": "struct MyNFT.ShortNFT[]",
          "name": "",
          "type": "tuple[]"
        }
      ],
      "stateMutability": "view",
      "type": "function",
      "constant": true
    },
    {
      "inputs": [
        {
          "internalType": "address",
          "name": "_who",
          "type": "address"
        }
      ],
      "name": "getListHolder",
      "outputs": [
        {
          "components": [
            {
              "internalType": "uint256",
              "name": "tokenId",
              "type": "uint256"
            },
            {
              "internalType": "string",
              "name": "tokenURI",
              "type": "string"
            },
            {
              "internalType": "uint256",
              "name": "price",
              "type": "uint256"
            }
          ],
          "internalType": "struct MyNFT.ShortNFT[]",
          "name": "",
          "type": "tuple[]"
        }
      ],
      "stateMutability": "view",
      "type": "function",
      "constant": true
    },
    {
      "inputs": [
        {
          "internalType": "uint256",
          "name": "_tokenId",
          "type": "uint256"
        }
      ],
      "name": "getDetailOfNft",
      "outputs": [
        {
          "components": [
            {
              "internalType": "uint256",
              "name": "tokenId",
              "type": "uint256"
            },
            {
              "internalType": "address",
              "name": "owner",
              "type": "address"
            },
            {
              "internalType": "string",
              "name": "tokenURI",
              "type": "string"
            },
            {
              "internalType": "string",
              "name": "imageName",
              "type": "string"
            },
            {
              "internalType": "uint256",
              "name": "price",
              "type": "uint256"
            },
            {
              "internalType": "string",
              "name": "released",
              "type": "string"
            },
            {
              "internalType": "string",
              "name": "emotion",
              "type": "string"
            },
            {
              "internalType": "string",
              "name": "description",
              "type": "string"
            }
          ],
          "internalType": "struct MyNFT.DetailOfNFT",
          "name": "",
          "type": "tuple"
        }
      ],
      "stateMutability": "view",
      "type": "function",
      "constant": true
    },
    {
      "inputs": [],
      "name": "getNumOfToken",
      "outputs": [
        {
          "internalType": "uint256",
          "name": "",
          "type": "uint256"
        }
      ],
      "stateMutability": "view",
      "type": "function",
      "constant": true
    },
    {
      "inputs": [
        {
          "internalType": "uint256",
          "name": "_tokenId",
          "type": "uint256"
        },
        {
          "internalType": "uint256",
          "name": "_price",
          "type": "uint256"
        }
      ],
      "name": "changePrice",
      "outputs": [],
      "stateMutability": "nonpayable",
      "type": "function"
    },
    {
      "inputs": [
        {
          "internalType": "uint256",
          "name": "_tokenId",
          "type": "uint256"
        }
      ],
      "name": "buyNFT",
      "outputs": [],
      "stateMutability": "payable",
      "type": "function",
      "payable": true
    },
    {
      "inputs": [
        {
          "internalType": "string",
          "name": "_who",
          "type": "string"
        }
      ],
      "name": "nicknameConverAddress",
      "outputs": [
        {
          "internalType": "address",
          "name": "",
          "type": "address"
        }
      ],
      "stateMutability": "view",
      "type": "function",
      "constant": true
    },
    {
      "inputs": [
        {
          "internalType": "address",
          "name": "_who",
          "type": "address"
        }
      ],
      "name": "getNickName",
      "outputs": [
        {
          "internalType": "string",
          "name": "",
          "type": "string"
        }
      ],
      "stateMutability": "view",
      "type": "function",
      "constant": true
    },
    {
      "inputs": [
        {
          "internalType": "string",
          "name": "_nickname",
          "type": "string"
        }
      ],
      "name": "setNickName",
      "outputs": [],
      "stateMutability": "nonpayable",
      "type": "function"
    }
  ],
  "bytecode": "0x60806040523480156200001157600080fd5b506040518060400160405280600581526020017f4d794e46540000000000000000000000000000000000000000000000000000008152506040518060400160405280600381526020017f4e4654000000000000000000000000000000000000000000000000000000000081525081600090816200008f919062000412565b508060019081620000a1919062000412565b505050620000c4620000b8620000ca60201b60201c565b620000d260201b60201c565b620004f9565b600033905090565b6000600760009054906101000a900473ffffffffffffffffffffffffffffffffffffffff16905081600760006101000a81548173ffffffffffffffffffffffffffffffffffffffff021916908373ffffffffffffffffffffffffffffffffffffffff1602179055508173ffffffffffffffffffffffffffffffffffffffff168173ffffffffffffffffffffffffffffffffffffffff167f8be0079c531659141344cd1fd0a4f28419497f9722a3daafe3b4186f6b6457e060405160405180910390a35050565b600081519050919050565b7f4e487b7100000000000000000000000000000000000000000000000000000000600052604160045260246000fd5b7f4e487b7100000000000000000000000000000000000000000000000000000000600052602260045260246000fd5b600060028204905060018216806200021a57607f821691505b60208210810362000230576200022f620001d2565b5b50919050565b60008190508160005260206000209050919050565b60006020601f8301049050919050565b600082821b905092915050565b6000600883026200029a7fffffffffffffffffffffffffffffffffffffffffffffffffffffffffffffffff826200025b565b620002a686836200025b565b95508019841693508086168417925050509392505050565b6000819050919050565b6000819050919050565b6000620002f3620002ed620002e784620002be565b620002c8565b620002be565b9050919050565b6000819050919050565b6200030f83620002d2565b620003276200031e82620002fa565b84845462000268565b825550505050565b600090565b6200033e6200032f565b6200034b81848462000304565b505050565b5b8181101562000373576200036760008262000334565b60018101905062000351565b5050565b601f821115620003c2576200038c8162000236565b62000397846200024b565b81016020851015620003a7578190505b620003bf620003b6856200024b565b83018262000350565b50505b505050565b600082821c905092915050565b6000620003e760001984600802620003c7565b1980831691505092915050565b6000620004028383620003d4565b9150826002028217905092915050565b6200041d8262000198565b67ffffffffffffffff811115620004395762000438620001a3565b5b62000445825462000201565b6200045282828562000377565b600060209050601f8311600181146200048a576000841562000475578287015190505b620004818582620003f4565b865550620004f1565b601f1984166200049a8662000236565b60005b82811015620004c4578489015182556001820191506020850194506020810190506200049d565b86831015620004e45784890151620004e0601f891682620003d4565b8355505b6001600288020188555050505b505050505050565b614f6780620005096000396000f3fe6080604052600436106101c15760003560e01c80638da5cb5b116100f7578063c87b56dd11610095578063f014cbf811610064578063f014cbf8146106a0578063f2fde38b146106dd578063f3b1633d14610706578063f687ed5714610731576101c1565b8063c87b56dd146105ac578063d4c5e992146105e9578063e985e9c514610626578063ead0327d14610663576101c1565b8063a22cb465116100d1578063a22cb46514610508578063b3de019c14610531578063b88d4fde1461055a578063c73ea36714610583576101c1565b80638da5cb5b1461048757806395d89b41146104b25780639b27ab52146104dd576101c1565b806342842e0e116101645780636352211e1161013e5780636352211e146103b95780636f5db715146103f657806370a0823114610433578063715018a614610470576101c1565b806342842e0e14610337578063444d14231461036057806351ed82881461039d576101c1565b8063081812fc116101a0578063081812fc1461026b578063095ea7b3146102a8578063175a0283146102d157806323b872dd1461030e576101c1565b80628d51d2146101c657806301ffc9a71461020357806306fdde0314610240575b600080fd5b3480156101d257600080fd5b506101ed60048036038101906101e8919061355f565b61075a565b6040516101fa919061376e565b60405180910390f35b34801561020f57600080fd5b5061022a600480360381019061022591906137e8565b6109b6565b6040516102379190613830565b60405180910390f35b34801561024c57600080fd5b50610255610a98565b6040516102629190613895565b60405180910390f35b34801561027757600080fd5b50610292600480360381019061028d91906138b7565b610b2a565b60405161029f9190613925565b60405180910390f35b3480156102b457600080fd5b506102cf60048036038101906102ca919061396c565b610b70565b005b3480156102dd57600080fd5b506102f860048036038101906102f391906139ac565b610c87565b6040516103059190613ad4565b60405180910390f35b34801561031a57600080fd5b5061033560048036038101906103309190613aef565b610e94565b005b34801561034357600080fd5b5061035e60048036038101906103599190613aef565b610ef4565b005b34801561036c57600080fd5b50610387600480360381019061038291906138b7565b610f14565b6040516103949190613c1d565b60405180910390f35b6103b760048036038101906103b291906138b7565b61121c565b005b3480156103c557600080fd5b506103e060048036038101906103db91906138b7565b6114cf565b6040516103ed9190613925565b60405180910390f35b34801561040257600080fd5b5061041d60048036038101906104189190613c3f565b611555565b60405161042a919061376e565b60405180910390f35b34801561043f57600080fd5b5061045a60048036038101906104559190613c7f565b6116ad565b6040516104679190613ad4565b60405180910390f35b34801561047c57600080fd5b50610485611764565b005b34801561049357600080fd5b5061049c611778565b6040516104a99190613925565b60405180910390f35b3480156104be57600080fd5b506104c76117a2565b6040516104d49190613895565b60405180910390f35b3480156104e957600080fd5b506104f2611834565b6040516104ff9190613ad4565b60405180910390f35b34801561051457600080fd5b5061052f600480360381019061052a9190613cd8565b61184a565b005b34801561053d57600080fd5b5061055860048036038101906105539190613c3f565b611860565b005b34801561056657600080fd5b50610581600480360381019061057c9190613db9565b6118f5565b005b34801561058f57600080fd5b506105aa60048036038101906105a59190613e3c565b611957565b005b3480156105b857600080fd5b506105d360048036038101906105ce91906138b7565b611a04565b6040516105e09190613895565b60405180910390f35b3480156105f557600080fd5b50610610600480360381019061060b9190613c7f565b611b16565b60405161061d919061376e565b60405180910390f35b34801561063257600080fd5b5061064d60048036038101906106489190613e85565b611cb8565b60405161065a9190613830565b60405180910390f35b34801561066f57600080fd5b5061068a60048036038101906106859190613c7f565b611d4c565b6040516106979190613895565b60405180910390f35b3480156106ac57600080fd5b506106c760048036038101906106c29190613e3c565b611e23565b6040516106d49190613925565b60405180910390f35b3480156106e957600080fd5b5061070460048036038101906106ff9190613c7f565b611e6b565b005b34801561071257600080fd5b5061071b611eee565b604051610728919061376e565b60405180910390f35b34801561073d57600080fd5b50610758600480360381019061075391906138b7565b611fe6565b005b606060008467ffffffffffffffff81111561077857610777613434565b5b6040519080825280602002602001820160405280156107b157816020015b61079e6132f6565b8152602001906001900390816107965790505b509050600080600d856040516107c79190613f01565b908152602001604051809103902080549050036107e85781925050506109af565b60006001600d866040516107fc9190613f01565b9081526020016040518091039020805490506108189190613f47565b90506001866108279190613f47565b876108329190613f7b565b811015610844578293505050506109af565b6001866108519190613f47565b8761085c9190613f7b565b816108679190613f47565b90505b6001156109a8576040518060600160405280600d8760405161088c9190613f01565b908152602001604051809103902083815481106108ac576108ab613fbd565b5b906000526020600020906006020160000154815260200161090d600d886040516108d69190613f01565b908152602001604051809103902084815481106108f6576108f5613fbd565b5b906000526020600020906006020160000154611a04565b8152602001600d876040516109229190613f01565b9081526020016040518091039020838154811061094257610941613fbd565b5b90600052602060002090600602016002015481525083838151811061096a57610969613fbd565b5b60200260200101819052506001826109829190613fec565b9150868203156109a857600181106109a8576001816109a19190613f47565b905061086a565b8293505050505b9392505050565b60007f80ac58cd000000000000000000000000000000000000000000000000000000007bffffffffffffffffffffffffffffffffffffffffffffffffffffffff1916827bffffffffffffffffffffffffffffffffffffffffffffffffffffffff19161480610a8157507f5b5e139f000000000000000000000000000000000000000000000000000000007bffffffffffffffffffffffffffffffffffffffffffffffffffffffff1916827bffffffffffffffffffffffffffffffffffffffffffffffffffffffff1916145b80610a915750610a9082612364565b5b9050919050565b606060008054610aa79061404f565b80601f0160208091040260200160405190810160405280929190818152602001828054610ad39061404f565b8015610b205780601f10610af557610100808354040283529160200191610b20565b820191906000526020600020905b815481529060010190602001808311610b0357829003601f168201915b5050505050905090565b6000610b35826123ce565b6004600083815260200190815260200160002060009054906101000a900473ffffffffffffffffffffffffffffffffffffffff169050919050565b6000610b7b826114cf565b90508073ffffffffffffffffffffffffffffffffffffffff168373ffffffffffffffffffffffffffffffffffffffff1603610beb576040517f08c379a0000000000000000000000000000000000000000000000000000000008152600401610be2906140f2565b60405180910390fd5b8073ffffffffffffffffffffffffffffffffffffffff16610c0a612419565b73ffffffffffffffffffffffffffffffffffffffff161480610c395750610c3881610c33612419565b611cb8565b5b610c78576040517f08c379a0000000000000000000000000000000000000000000000000000000008152600401610c6f90614184565b60405180910390fd5b610c828383612421565b505050565b6000610c9360086124da565b6000610c9f60086124f0565b9050610cab33826124fe565b610cb5818961271b565b600960003373ffffffffffffffffffffffffffffffffffffffff1673ffffffffffffffffffffffffffffffffffffffff16815260200190815260200160002081908060018154018082558091505060019003906000526020600020016000909190919091505560006040518060c0016040528083815260200188815260200187815260200189815260200186815260200185815250905080600a6000848152602001908152602001600020600082015181600001556020820151816001019081610d7f9190614350565b50604082015181600201556060820151816003019081610d9f9190614350565b506080820151816004019081610db59190614350565b5060a0820151816005019081610dcb9190614350565b50905050600d85604051610ddf9190613f01565b9081526020016040518091039020819080600181540180825580915050600190039060005260206000209060060201600090919091909150600082015181600001556020820151816001019081610e369190614350565b50604082015181600201556060820151816003019081610e569190614350565b506080820151816004019081610e6c9190614350565b5060a0820151816005019081610e829190614350565b50505081925050509695505050505050565b610ea5610e9f612419565b82612788565b610ee4576040517f08c379a0000000000000000000000000000000000000000000000000000000008152600401610edb90614494565b60405180910390fd5b610eef83838361281d565b505050565b610f0f838383604051806020016040528060008152506118f5565b505050565b610f1c613317565b6000600a60008481526020019081526020016000206040518060c001604052908160008201548152602001600182018054610f569061404f565b80601f0160208091040260200160405190810160405280929190818152602001828054610f829061404f565b8015610fcf5780601f10610fa457610100808354040283529160200191610fcf565b820191906000526020600020905b815481529060010190602001808311610fb257829003601f168201915b5050505050815260200160028201548152602001600382018054610ff29061404f565b80601f016020809104026020016040519081016040528092919081815260200182805461101e9061404f565b801561106b5780601f106110405761010080835404028352916020019161106b565b820191906000526020600020905b81548152906001019060200180831161104e57829003601f168201915b505050505081526020016004820180546110849061404f565b80601f01602080910402602001604051908101604052809291908181526020018280546110b09061404f565b80156110fd5780601f106110d2576101008083540402835291602001916110fd565b820191906000526020600020905b8154815290600101906020018083116110e057829003601f168201915b505050505081526020016005820180546111169061404f565b80601f01602080910402602001604051908101604052809291908181526020018280546111429061404f565b801561118f5780601f106111645761010080835404028352916020019161118f565b820191906000526020600020905b81548152906001019060200180831161117257829003601f168201915b505050505081525050905060006040518061010001604052808581526020016111b7866114cf565b73ffffffffffffffffffffffffffffffffffffffff1681526020016111db86611a04565b8152602001836020015181526020018360400151815260200183606001518152602001836080015181526020018360a0015181525090508092505050919050565b6000611227826114cf565b90503373ffffffffffffffffffffffffffffffffffffffff168173ffffffffffffffffffffffffffffffffffffffff1603611297576040517f08c379a000000000000000000000000000000000000000000000000000000000815260040161128e90614500565b60405180910390fd5b6000600a600084815260200190815260200160002060020154036112f0576040517f08c379a00000000000000000000000000000000000000000000000000000000081526004016112e79061456c565b60405180910390fd5b8073ffffffffffffffffffffffffffffffffffffffff166108fc349081150290604051600060405180830381858888f19350505050158015611336573d6000803e3d6000fd5b5061134281338461281d565b60005b600960008373ffffffffffffffffffffffffffffffffffffffff1673ffffffffffffffffffffffffffffffffffffffff168152602001908152602001600020805490508110156114ca5782600960008473ffffffffffffffffffffffffffffffffffffffff1673ffffffffffffffffffffffffffffffffffffffff16815260200190815260200160002082815481106113e1576113e0613fbd565b5b9060005260206000200154036114b757600960008373ffffffffffffffffffffffffffffffffffffffff1673ffffffffffffffffffffffffffffffffffffffff168152602001908152602001600020818154811061144257611441613fbd565b5b9060005260206000200160009055600960003373ffffffffffffffffffffffffffffffffffffffff1673ffffffffffffffffffffffffffffffffffffffff1681526020019081526020016000208390806001815401808255809150506001900390600052602060002001600090919091909150555b80806114c29061458c565b915050611345565b505050565b6000806114db83612b16565b9050600073ffffffffffffffffffffffffffffffffffffffff168173ffffffffffffffffffffffffffffffffffffffff160361154c576040517f08c379a000000000000000000000000000000000000000000000000000000000815260040161154390614620565b60405180910390fd5b80915050919050565b606060008367ffffffffffffffff81111561157357611572613434565b5b6040519080825280602002602001820160405280156115ac57816020015b6115996132f6565b8152602001906001900390816115915790505b50905060008060006115be60086124f0565b90505b6001156116a05760008111156116a0576000600a6000838152602001908152602001600020600001541461168c576001866115fc9190613f47565b876116079190613f7b565b831061167457604051806060016040528082815260200161162783611a04565b8152602001600a60008481526020019081526020016000206002015481525084838151811061165957611658613fbd565b5b60200260200101819052506001826116719190613fec565b91505b6001836116819190613fec565b9250868203156116a0575b6001816116999190613f47565b90506115c1565b8394505050505092915050565b60008073ffffffffffffffffffffffffffffffffffffffff168273ffffffffffffffffffffffffffffffffffffffff160361171d576040517f08c379a0000000000000000000000000000000000000000000000000000000008152600401611714906146b2565b60405180910390fd5b600360008373ffffffffffffffffffffffffffffffffffffffff1673ffffffffffffffffffffffffffffffffffffffff168152602001908152602001600020549050919050565b61176c612b53565b6117766000612bd1565b565b6000600760009054906101000a900473ffffffffffffffffffffffffffffffffffffffff16905090565b6060600180546117b19061404f565b80601f01602080910402602001604051908101604052809291908181526020018280546117dd9061404f565b801561182a5780601f106117ff5761010080835404028352916020019161182a565b820191906000526020600020905b81548152906001019060200180831161180d57829003601f168201915b5050505050905090565b60008061184160086124f0565b90508091505090565b61185c611855612419565b8383612c97565b5050565b611869826114cf565b73ffffffffffffffffffffffffffffffffffffffff163373ffffffffffffffffffffffffffffffffffffffff16146118d6576040517f08c379a00000000000000000000000000000000000000000000000000000000081526004016118cd9061471e565b60405180910390fd5b80600a6000848152602001908152602001600020600201819055505050565b611906611900612419565b83612788565b611945576040517f08c379a000000000000000000000000000000000000000000000000000000000815260040161193c90614494565b60405180910390fd5b61195184848484612e03565b50505050565b80600b60003373ffffffffffffffffffffffffffffffffffffffff1673ffffffffffffffffffffffffffffffffffffffff16815260200190815260200160002090816119a39190614350565b5033600c826040516119b59190613f01565b908152602001604051809103902060006101000a81548173ffffffffffffffffffffffffffffffffffffffff021916908373ffffffffffffffffffffffffffffffffffffffff16021790555050565b6060611a0f826123ce565b6000600660008481526020019081526020016000208054611a2f9061404f565b80601f0160208091040260200160405190810160405280929190818152602001828054611a5b9061404f565b8015611aa85780601f10611a7d57610100808354040283529160200191611aa8565b820191906000526020600020905b815481529060010190602001808311611a8b57829003601f168201915b505050505090506000611ab9612e5f565b90506000815103611ace578192505050611b11565b600082511115611b03578082604051602001611aeb92919061473e565b60405160208183030381529060405292505050611b11565b611b0c84612e76565b925050505b919050565b60606000600960008473ffffffffffffffffffffffffffffffffffffffff1673ffffffffffffffffffffffffffffffffffffffff16815260200190815260200160002080549050905060008167ffffffffffffffff811115611b7b57611b7a613434565b5b604051908082528060200260200182016040528015611bb457816020015b611ba16132f6565b815260200190600190039081611b995790505b50905060005b82811015611cad576000600960008773ffffffffffffffffffffffffffffffffffffffff1673ffffffffffffffffffffffffffffffffffffffff1681526020019081526020016000208281548110611c1557611c14613fbd565b5b9060005260206000200154905060008114611c99576040518060600160405280828152602001611c4483611a04565b8152602001600a6000848152602001908152602001600020600201548152508383600187611c729190613f47565b611c7c9190613f47565b81518110611c8d57611c8c613fbd565b5b60200260200101819052505b508080611ca59061458c565b915050611bba565b508092505050919050565b6000600560008473ffffffffffffffffffffffffffffffffffffffff1673ffffffffffffffffffffffffffffffffffffffff16815260200190815260200160002060008373ffffffffffffffffffffffffffffffffffffffff1673ffffffffffffffffffffffffffffffffffffffff16815260200190815260200160002060009054906101000a900460ff16905092915050565b60606000600b60008473ffffffffffffffffffffffffffffffffffffffff1673ffffffffffffffffffffffffffffffffffffffff1681526020019081526020016000208054611d9a9061404f565b80601f0160208091040260200160405190810160405280929190818152602001828054611dc69061404f565b8015611e135780601f10611de857610100808354040283529160200191611e13565b820191906000526020600020905b815481529060010190602001808311611df657829003601f168201915b5050505050905080915050919050565b6000600c82604051611e359190613f01565b908152602001604051809103902060009054906101000a900473ffffffffffffffffffffffffffffffffffffffff169050919050565b611e73612b53565b600073ffffffffffffffffffffffffffffffffffffffff168173ffffffffffffffffffffffffffffffffffffffff1603611ee2576040517f08c379a0000000000000000000000000000000000000000000000000000000008152600401611ed9906147d4565b60405180910390fd5b611eeb81612bd1565b50565b60606000611efc60086124f0565b67ffffffffffffffff811115611f1557611f14613434565b5b604051908082528060200260200182016040528015611f4e57816020015b611f3b6132f6565b815260200190600190039081611f335790505b5090506000600190505b611f6260086124f0565b8111611fde576040518060600160405280828152602001611f8283611a04565b8152602001600a60008481526020019081526020016000206002015481525082600183611faf9190613f47565b81518110611fc057611fbf613fbd565b5b60200260200101819052508080611fd69061458c565b915050611f58565b508091505090565b3373ffffffffffffffffffffffffffffffffffffffff16612006826114cf565b73ffffffffffffffffffffffffffffffffffffffff161461205c576040517f08c379a000000000000000000000000000000000000000000000000000000000815260040161205390614840565b60405180910390fd5b6000600a600083815260200190815260200160002060000181905550600080600090505b600d600a60008581526020019081526020016000206004016040516120a591906148e3565b9081526020016040518091039020805490508110156121325782600d600a60008681526020019081526020016000206004016040516120e491906148e3565b9081526020016040518091039020828154811061210457612103613fbd565b5b9060005260206000209060060201600001540361211f578091505b808061212a9061458c565b915050612080565b5060008190505b6001600d600a600086815260200190815260200160002060040160405161216091906148e3565b90815260200160405180910390208054905061217c9190613f47565b8110156122b357600d600a60008581526020019081526020016000206004016040516121a891906148e3565b90815260200160405180910390206001826121c39190613fec565b815481106121d4576121d3613fbd565b5b9060005260206000209060060201600d600a600086815260200190815260200160002060040160405161220791906148e3565b9081526020016040518091039020828154811061222757612226613fbd565b5b906000526020600020906006020160008201548160000155600182018160010190816122539190614910565b5060028201548160020155600382018160030190816122729190614910565b50600482018160040190816122879190614910565b506005820181600501908161229c9190614910565b5090505080806122ab9061458c565b915050612139565b50600d600a60008481526020019081526020016000206004016040516122d991906148e3565b90815260200160405180910390208054806122f7576122f66149f8565b5b60019003818190600052602060002090600602016000808201600090556001820160006123249190613372565b600282016000905560038201600061233c9190613372565b60048201600061234c9190613372565b60058201600061235c9190613372565b505090555050565b60007f01ffc9a7000000000000000000000000000000000000000000000000000000007bffffffffffffffffffffffffffffffffffffffffffffffffffffffff1916827bffffffffffffffffffffffffffffffffffffffffffffffffffffffff1916149050919050565b6123d781612ede565b612416576040517f08c379a000000000000000000000000000000000000000000000000000000000815260040161240d90614620565b60405180910390fd5b50565b600033905090565b816004600083815260200190815260200160002060006101000a81548173ffffffffffffffffffffffffffffffffffffffff021916908373ffffffffffffffffffffffffffffffffffffffff160217905550808273ffffffffffffffffffffffffffffffffffffffff16612494836114cf565b73ffffffffffffffffffffffffffffffffffffffff167f8c5be1e5ebec7d5bd14f71427d1e84f3dd0314c0f7b2291e5b200ac8c7c3b92560405160405180910390a45050565b6001816000016000828254019250508190555050565b600081600001549050919050565b600073ffffffffffffffffffffffffffffffffffffffff168273ffffffffffffffffffffffffffffffffffffffff160361256d576040517f08c379a000000000000000000000000000000000000000000000000000000000815260040161256490614a73565b60405180910390fd5b61257681612ede565b156125b6576040517f08c379a00000000000000000000000000000000000000000000000000000000081526004016125ad90614adf565b60405180910390fd5b6125c4600083836001612f1f565b6125cd81612ede565b1561260d576040517f08c379a000000000000000000000000000000000000000000000000000000000815260040161260490614adf565b60405180910390fd5b6001600360008473ffffffffffffffffffffffffffffffffffffffff1673ffffffffffffffffffffffffffffffffffffffff16815260200190815260200160002060008282540192505081905550816002600083815260200190815260200160002060006101000a81548173ffffffffffffffffffffffffffffffffffffffff021916908373ffffffffffffffffffffffffffffffffffffffff160217905550808273ffffffffffffffffffffffffffffffffffffffff16600073ffffffffffffffffffffffffffffffffffffffff167fddf252ad1be2c89b69c2b068fc378daa952ba7f163c4a11628f55a4df523b3ef60405160405180910390a4612717600083836001612f25565b5050565b61272482612ede565b612763576040517f08c379a000000000000000000000000000000000000000000000000000000000815260040161275a90614b71565b60405180910390fd5b806006600084815260200190815260200160002090816127839190614350565b505050565b600080612794836114cf565b90508073ffffffffffffffffffffffffffffffffffffffff168473ffffffffffffffffffffffffffffffffffffffff1614806127d657506127d58185611cb8565b5b8061281457508373ffffffffffffffffffffffffffffffffffffffff166127fc84610b2a565b73ffffffffffffffffffffffffffffffffffffffff16145b91505092915050565b8273ffffffffffffffffffffffffffffffffffffffff1661283d826114cf565b73ffffffffffffffffffffffffffffffffffffffff1614612893576040517f08c379a000000000000000000000000000000000000000000000000000000000815260040161288a90614c03565b60405180910390fd5b600073ffffffffffffffffffffffffffffffffffffffff168273ffffffffffffffffffffffffffffffffffffffff1603612902576040517f08c379a00000000000000000000000000000000000000000000000000000000081526004016128f990614c95565b60405180910390fd5b61290f8383836001612f1f565b8273ffffffffffffffffffffffffffffffffffffffff1661292f826114cf565b73ffffffffffffffffffffffffffffffffffffffff1614612985576040517f08c379a000000000000000000000000000000000000000000000000000000000815260040161297c90614c03565b60405180910390fd5b6004600082815260200190815260200160002060006101000a81549073ffffffffffffffffffffffffffffffffffffffff02191690556001600360008573ffffffffffffffffffffffffffffffffffffffff1673ffffffffffffffffffffffffffffffffffffffff168152602001908152602001600020600082825403925050819055506001600360008473ffffffffffffffffffffffffffffffffffffffff1673ffffffffffffffffffffffffffffffffffffffff16815260200190815260200160002060008282540192505081905550816002600083815260200190815260200160002060006101000a81548173ffffffffffffffffffffffffffffffffffffffff021916908373ffffffffffffffffffffffffffffffffffffffff160217905550808273ffffffffffffffffffffffffffffffffffffffff168473ffffffffffffffffffffffffffffffffffffffff167fddf252ad1be2c89b69c2b068fc378daa952ba7f163c4a11628f55a4df523b3ef60405160405180910390a4612b118383836001612f25565b505050565b60006002600083815260200190815260200160002060009054906101000a900473ffffffffffffffffffffffffffffffffffffffff169050919050565b612b5b612419565b73ffffffffffffffffffffffffffffffffffffffff16612b79611778565b73ffffffffffffffffffffffffffffffffffffffff1614612bcf576040517f08c379a0000000000000000000000000000000000000000000000000000000008152600401612bc690614d01565b60405180910390fd5b565b6000600760009054906101000a900473ffffffffffffffffffffffffffffffffffffffff16905081600760006101000a81548173ffffffffffffffffffffffffffffffffffffffff021916908373ffffffffffffffffffffffffffffffffffffffff1602179055508173ffffffffffffffffffffffffffffffffffffffff168173ffffffffffffffffffffffffffffffffffffffff167f8be0079c531659141344cd1fd0a4f28419497f9722a3daafe3b4186f6b6457e060405160405180910390a35050565b8173ffffffffffffffffffffffffffffffffffffffff168373ffffffffffffffffffffffffffffffffffffffff1603612d05576040517f08c379a0000000000000000000000000000000000000000000000000000000008152600401612cfc90614d6d565b60405180910390fd5b80600560008573ffffffffffffffffffffffffffffffffffffffff1673ffffffffffffffffffffffffffffffffffffffff16815260200190815260200160002060008473ffffffffffffffffffffffffffffffffffffffff1673ffffffffffffffffffffffffffffffffffffffff16815260200190815260200160002060006101000a81548160ff0219169083151502179055508173ffffffffffffffffffffffffffffffffffffffff168373ffffffffffffffffffffffffffffffffffffffff167f17307eab39ab6107e8899845ad3d59bd9653f200f220920489ca2b5937696c3183604051612df69190613830565b60405180910390a3505050565b612e0e84848461281d565b612e1a84848484612f2b565b612e59576040517f08c379a0000000000000000000000000000000000000000000000000000000008152600401612e5090614dff565b60405180910390fd5b50505050565b606060405180602001604052806000815250905090565b6060612e81826123ce565b6000612e8b612e5f565b90506000815111612eab5760405180602001604052806000815250612ed6565b80612eb5846130b2565b604051602001612ec692919061473e565b6040516020818303038152906040525b915050919050565b60008073ffffffffffffffffffffffffffffffffffffffff16612f0083612b16565b73ffffffffffffffffffffffffffffffffffffffff1614159050919050565b50505050565b50505050565b6000612f4c8473ffffffffffffffffffffffffffffffffffffffff16613180565b156130a5578373ffffffffffffffffffffffffffffffffffffffff1663150b7a02612f75612419565b8786866040518563ffffffff1660e01b8152600401612f979493929190614e74565b6020604051808303816000875af1925050508015612fd357506040513d601f19601f82011682018060405250810190612fd09190614ed5565b60015b613055573d8060008114613003576040519150601f19603f3d011682016040523d82523d6000602084013e613008565b606091505b50600081510361304d576040517f08c379a000000000000000000000000000000000000000000000000000000000815260040161304490614dff565b60405180910390fd5b805181602001fd5b63150b7a0260e01b7bffffffffffffffffffffffffffffffffffffffffffffffffffffffff1916817bffffffffffffffffffffffffffffffffffffffffffffffffffffffff1916149150506130aa565b600190505b949350505050565b6060600060016130c1846131a3565b01905060008167ffffffffffffffff8111156130e0576130df613434565b5b6040519080825280601f01601f1916602001820160405280156131125781602001600182028036833780820191505090505b509050600082602001820190505b600115613175578080600190039150507f3031323334353637383961626364656600000000000000000000000000000000600a86061a8153600a858161316957613168614f02565b5b04945060008503613120575b819350505050919050565b6000808273ffffffffffffffffffffffffffffffffffffffff163b119050919050565b600080600090507a184f03e93ff9f4daa797ed6e38ed64bf6a1f0100000000000000008310613201577a184f03e93ff9f4daa797ed6e38ed64bf6a1f01000000000000000083816131f7576131f6614f02565b5b0492506040810190505b6d04ee2d6d415b85acef8100000000831061323e576d04ee2d6d415b85acef8100000000838161323457613233614f02565b5b0492506020810190505b662386f26fc10000831061326d57662386f26fc10000838161326357613262614f02565b5b0492506010810190505b6305f5e1008310613296576305f5e100838161328c5761328b614f02565b5b0492506008810190505b61271083106132bb5761271083816132b1576132b0614f02565b5b0492506004810190505b606483106132de57606483816132d4576132d3614f02565b5b0492506002810190505b600a83106132ed576001810190505b80915050919050565b60405180606001604052806000815260200160608152602001600081525090565b60405180610100016040528060008152602001600073ffffffffffffffffffffffffffffffffffffffff1681526020016060815260200160608152602001600081526020016060815260200160608152602001606081525090565b50805461337e9061404f565b6000825580601f1061339057506133af565b601f0160209004906000526020600020908101906133ae91906133b2565b5b50565b5b808211156133cb5760008160009055506001016133b3565b5090565b6000604051905090565b600080fd5b600080fd5b6000819050919050565b6133f6816133e3565b811461340157600080fd5b50565b600081359050613413816133ed565b92915050565b600080fd5b600080fd5b6000601f19601f8301169050919050565b7f4e487b7100000000000000000000000000000000000000000000000000000000600052604160045260246000fd5b61346c82613423565b810181811067ffffffffffffffff8211171561348b5761348a613434565b5b80604052505050565b600061349e6133cf565b90506134aa8282613463565b919050565b600067ffffffffffffffff8211156134ca576134c9613434565b5b6134d382613423565b9050602081019050919050565b82818337600083830152505050565b60006135026134fd846134af565b613494565b90508281526020810184848401111561351e5761351d61341e565b5b6135298482856134e0565b509392505050565b600082601f83011261354657613545613419565b5b81356135568482602086016134ef565b91505092915050565b600080600060608486031215613578576135776133d9565b5b600061358686828701613404565b935050602061359786828701613404565b925050604084013567ffffffffffffffff8111156135b8576135b76133de565b5b6135c486828701613531565b9150509250925092565b600081519050919050565b600082825260208201905092915050565b6000819050602082019050919050565b613603816133e3565b82525050565b600081519050919050565b600082825260208201905092915050565b60005b83811015613643578082015181840152602081019050613628565b60008484015250505050565b600061365a82613609565b6136648185613614565b9350613674818560208601613625565b61367d81613423565b840191505092915050565b60006060830160008301516136a060008601826135fa565b50602083015184820360208601526136b8828261364f565b91505060408301516136cd60408601826135fa565b508091505092915050565b60006136e48383613688565b905092915050565b6000602082019050919050565b6000613704826135ce565b61370e81856135d9565b935083602082028501613720856135ea565b8060005b8581101561375c578484038952815161373d85826136d8565b9450613748836136ec565b925060208a01995050600181019050613724565b50829750879550505050505092915050565b6000602082019050818103600083015261378881846136f9565b905092915050565b60007fffffffff0000000000000000000000000000000000000000000000000000000082169050919050565b6137c581613790565b81146137d057600080fd5b50565b6000813590506137e2816137bc565b92915050565b6000602082840312156137fe576137fd6133d9565b5b600061380c848285016137d3565b91505092915050565b60008115159050919050565b61382a81613815565b82525050565b60006020820190506138456000830184613821565b92915050565b600082825260208201905092915050565b600061386782613609565b613871818561384b565b9350613881818560208601613625565b61388a81613423565b840191505092915050565b600060208201905081810360008301526138af818461385c565b905092915050565b6000602082840312156138cd576138cc6133d9565b5b60006138db84828501613404565b91505092915050565b600073ffffffffffffffffffffffffffffffffffffffff82169050919050565b600061390f826138e4565b9050919050565b61391f81613904565b82525050565b600060208201905061393a6000830184613916565b92915050565b61394981613904565b811461395457600080fd5b50565b60008135905061396681613940565b92915050565b60008060408385031215613983576139826133d9565b5b600061399185828601613957565b92505060206139a285828601613404565b9150509250929050565b60008060008060008060c087890312156139c9576139c86133d9565b5b600087013567ffffffffffffffff8111156139e7576139e66133de565b5b6139f389828a01613531565b965050602087013567ffffffffffffffff811115613a1457613a136133de565b5b613a2089828a01613531565b955050604087013567ffffffffffffffff811115613a4157613a406133de565b5b613a4d89828a01613531565b9450506060613a5e89828a01613404565b935050608087013567ffffffffffffffff811115613a7f57613a7e6133de565b5b613a8b89828a01613531565b92505060a087013567ffffffffffffffff811115613aac57613aab6133de565b5b613ab889828a01613531565b9150509295509295509295565b613ace816133e3565b82525050565b6000602082019050613ae96000830184613ac5565b92915050565b600080600060608486031215613b0857613b076133d9565b5b6000613b1686828701613957565b9350506020613b2786828701613957565b9250506040613b3886828701613404565b9150509250925092565b613b4b81613904565b82525050565b600061010083016000830151613b6a60008601826135fa565b506020830151613b7d6020860182613b42565b5060408301518482036040860152613b95828261364f565b91505060608301518482036060860152613baf828261364f565b9150506080830151613bc460808601826135fa565b5060a083015184820360a0860152613bdc828261364f565b91505060c083015184820360c0860152613bf6828261364f565b91505060e083015184820360e0860152613c10828261364f565b9150508091505092915050565b60006020820190508181036000830152613c378184613b51565b905092915050565b60008060408385031215613c5657613c556133d9565b5b6000613c6485828601613404565b9250506020613c7585828601613404565b9150509250929050565b600060208284031215613c9557613c946133d9565b5b6000613ca384828501613957565b91505092915050565b613cb581613815565b8114613cc057600080fd5b50565b600081359050613cd281613cac565b92915050565b60008060408385031215613cef57613cee6133d9565b5b6000613cfd85828601613957565b9250506020613d0e85828601613cc3565b9150509250929050565b600067ffffffffffffffff821115613d3357613d32613434565b5b613d3c82613423565b9050602081019050919050565b6000613d5c613d5784613d18565b613494565b905082815260208101848484011115613d7857613d7761341e565b5b613d838482856134e0565b509392505050565b600082601f830112613da057613d9f613419565b5b8135613db0848260208601613d49565b91505092915050565b60008060008060808587031215613dd357613dd26133d9565b5b6000613de187828801613957565b9450506020613df287828801613957565b9350506040613e0387828801613404565b925050606085013567ffffffffffffffff811115613e2457613e236133de565b5b613e3087828801613d8b565b91505092959194509250565b600060208284031215613e5257613e516133d9565b5b600082013567ffffffffffffffff811115613e7057613e6f6133de565b5b613e7c84828501613531565b91505092915050565b60008060408385031215613e9c57613e9b6133d9565b5b6000613eaa85828601613957565b9250506020613ebb85828601613957565b9150509250929050565b600081905092915050565b6000613edb82613609565b613ee58185613ec5565b9350613ef5818560208601613625565b80840191505092915050565b6000613f0d8284613ed0565b915081905092915050565b7f4e487b7100000000000000000000000000000000000000000000000000000000600052601160045260246000fd5b6000613f52826133e3565b9150613f5d836133e3565b9250828203905081811115613f7557613f74613f18565b5b92915050565b6000613f86826133e3565b9150613f91836133e3565b9250828202613f9f816133e3565b91508282048414831517613fb657613fb5613f18565b5b5092915050565b7f4e487b7100000000000000000000000000000000000000000000000000000000600052603260045260246000fd5b6000613ff7826133e3565b9150614002836133e3565b925082820190508082111561401a57614019613f18565b5b92915050565b7f4e487b7100000000000000000000000000000000000000000000000000000000600052602260045260246000fd5b6000600282049050600182168061406757607f821691505b60208210810361407a57614079614020565b5b50919050565b7f4552433732313a20617070726f76616c20746f2063757272656e74206f776e6560008201527f7200000000000000000000000000000000000000000000000000000000000000602082015250565b60006140dc60218361384b565b91506140e782614080565b604082019050919050565b6000602082019050818103600083015261410b816140cf565b9050919050565b7f4552433732313a20617070726f76652063616c6c6572206973206e6f7420746f60008201527f6b656e206f776e6572206f7220617070726f76656420666f7220616c6c000000602082015250565b600061416e603d8361384b565b915061417982614112565b604082019050919050565b6000602082019050818103600083015261419d81614161565b9050919050565b60008190508160005260206000209050919050565b60006020601f8301049050919050565b600082821b905092915050565b6000600883026142067fffffffffffffffffffffffffffffffffffffffffffffffffffffffffffffffff826141c9565b61421086836141c9565b95508019841693508086168417925050509392505050565b6000819050919050565b600061424d614248614243846133e3565b614228565b6133e3565b9050919050565b6000819050919050565b61426783614232565b61427b61427382614254565b8484546141d6565b825550505050565b600090565b614290614283565b61429b81848461425e565b505050565b5b818110156142bf576142b4600082614288565b6001810190506142a1565b5050565b601f821115614304576142d5816141a4565b6142de846141b9565b810160208510156142ed578190505b6143016142f9856141b9565b8301826142a0565b50505b505050565b600082821c905092915050565b600061432760001984600802614309565b1980831691505092915050565b60006143408383614316565b9150826002028217905092915050565b61435982613609565b67ffffffffffffffff81111561437257614371613434565b5b61437c825461404f565b6143878282856142c3565b600060209050601f8311600181146143ba57600084156143a8578287015190505b6143b28582614334565b86555061441a565b601f1984166143c8866141a4565b60005b828110156143f0578489015182556001820191506020850194506020810190506143cb565b8683101561440d5784890151614409601f891682614316565b8355505b6001600288020188555050505b505050505050565b7f4552433732313a2063616c6c6572206973206e6f7420746f6b656e206f776e6560008201527f72206f7220617070726f76656400000000000000000000000000000000000000602082015250565b600061447e602d8361384b565b915061448982614422565b604082019050919050565b600060208201905081810360008301526144ad81614471565b9050919050565b7f796f752061726520686f6c646572000000000000000000000000000000000000600082015250565b60006144ea600e8361384b565b91506144f5826144b4565b602082019050919050565b60006020820190508181036000830152614519816144dd565b9050919050565b7f6973206e6f7420666f722073616c650000000000000000000000000000000000600082015250565b6000614556600f8361384b565b915061456182614520565b602082019050919050565b6000602082019050818103600083015261458581614549565b9050919050565b6000614597826133e3565b91507fffffffffffffffffffffffffffffffffffffffffffffffffffffffffffffffff82036145c9576145c8613f18565b5b600182019050919050565b7f4552433732313a20696e76616c696420746f6b656e2049440000000000000000600082015250565b600061460a60188361384b565b9150614615826145d4565b602082019050919050565b60006020820190508181036000830152614639816145fd565b9050919050565b7f4552433732313a2061646472657373207a65726f206973206e6f74206120766160008201527f6c6964206f776e65720000000000000000000000000000000000000000000000602082015250565b600061469c60298361384b565b91506146a782614640565b604082019050919050565b600060208201905081810360008301526146cb8161468f565b9050919050565b7f73656e646572206973206e6f74206f776e657200000000000000000000000000600082015250565b600061470860138361384b565b9150614713826146d2565b602082019050919050565b60006020820190508181036000830152614737816146fb565b9050919050565b600061474a8285613ed0565b91506147568284613ed0565b91508190509392505050565b7f4f776e61626c653a206e6577206f776e657220697320746865207a65726f206160008201527f6464726573730000000000000000000000000000000000000000000000000000602082015250565b60006147be60268361384b565b91506147c982614762565b604082019050919050565b600060208201905081810360008301526147ed816147b1565b9050919050565b7f796f7520617265206e6f7420686f6c6465720000000000000000000000000000600082015250565b600061482a60128361384b565b9150614835826147f4565b602082019050919050565b600060208201905081810360008301526148598161481d565b9050919050565b6000815461486d8161404f565b6148778186613ec5565b9450600182166000811461489257600181146148a7576148da565b60ff19831686528115158202860193506148da565b6148b0856141a4565b60005b838110156148d2578154818901526001820191506020810190506148b3565b838801955050505b50505092915050565b60006148ef8284614860565b915081905092915050565b6000815490506149098161404f565b9050919050565b81810361491e5750506149f6565b614927826148fa565b67ffffffffffffffff8111156149405761493f613434565b5b61494a825461404f565b6149558282856142c3565b6000601f8311600181146149845760008415614972578287015490505b61497c8582614334565b8655506149ef565b601f198416614992876141a4565b965061499d866141a4565b60005b828110156149c5578489015482556001820191506001850194506020810190506149a0565b868310156149e257848901546149de601f891682614316565b8355505b6001600288020188555050505b5050505050505b565b7f4e487b7100000000000000000000000000000000000000000000000000000000600052603160045260246000fd5b7f4552433732313a206d696e7420746f20746865207a65726f2061646472657373600082015250565b6000614a5d60208361384b565b9150614a6882614a27565b602082019050919050565b60006020820190508181036000830152614a8c81614a50565b9050919050565b7f4552433732313a20746f6b656e20616c7265616479206d696e74656400000000600082015250565b6000614ac9601c8361384b565b9150614ad482614a93565b602082019050919050565b60006020820190508181036000830152614af881614abc565b9050919050565b7f45524337323155524953746f726167653a2055524920736574206f66206e6f6e60008201527f6578697374656e7420746f6b656e000000000000000000000000000000000000602082015250565b6000614b5b602e8361384b565b9150614b6682614aff565b604082019050919050565b60006020820190508181036000830152614b8a81614b4e565b9050919050565b7f4552433732313a207472616e736665722066726f6d20696e636f72726563742060008201527f6f776e6572000000000000000000000000000000000000000000000000000000602082015250565b6000614bed60258361384b565b9150614bf882614b91565b604082019050919050565b60006020820190508181036000830152614c1c81614be0565b9050919050565b7f4552433732313a207472616e7366657220746f20746865207a65726f2061646460008201527f7265737300000000000000000000000000000000000000000000000000000000602082015250565b6000614c7f60248361384b565b9150614c8a82614c23565b604082019050919050565b60006020820190508181036000830152614cae81614c72565b9050919050565b7f4f776e61626c653a2063616c6c6572206973206e6f7420746865206f776e6572600082015250565b6000614ceb60208361384b565b9150614cf682614cb5565b602082019050919050565b60006020820190508181036000830152614d1a81614cde565b9050919050565b7f4552433732313a20617070726f766520746f2063616c6c657200000000000000600082015250565b6000614d5760198361384b565b9150614d6282614d21565b602082019050919050565b60006020820190508181036000830152614d8681614d4a565b9050919050565b7f4552433732313a207472616e7366657220746f206e6f6e20455243373231526560008201527f63656976657220696d706c656d656e7465720000000000000000000000000000602082015250565b6000614de960328361384b565b9150614df482614d8d565b604082019050919050565b60006020820190508181036000830152614e1881614ddc565b9050919050565b600081519050919050565b600082825260208201905092915050565b6000614e4682614e1f565b614e508185614e2a565b9350614e60818560208601613625565b614e6981613423565b840191505092915050565b6000608082019050614e896000830187613916565b614e966020830186613916565b614ea36040830185613ac5565b8181036060830152614eb58184614e3b565b905095945050505050565b600081519050614ecf816137bc565b92915050565b600060208284031215614eeb57614eea6133d9565b5b6000614ef984828501614ec0565b91505092915050565b7f4e487b7100000000000000000000000000000000000000000000000000000000600052601260045260246000fdfea26469706673582212207e38857861f71ecaddb3f816268112aae8d3e28d7b37392df0e2f5163d005e7b64736f6c63430008130033",
  "immutableReferences": {},
  "source": "// SPDX-License-Identifier: MIT\npragma solidity >=0.4.22 <0.9.0;\n\nimport \"@openzeppelin/contracts/token/ERC721/ERC721.sol\";\nimport \"@openzeppelin/contracts/utils/Counters.sol\";\nimport \"@openzeppelin/contracts/access/Ownable.sol\";\nimport \"@openzeppelin/contracts/token/ERC721/extensions/ERC721URIStorage.sol\";\n\n//  price   getPrice  \n//   _tokenId   \n\n// openzeppelin ERC721   ERC721URIStorage \n// ERC721 == NFT\ncontract MyNFT is ERC721URIStorage, Ownable {\n\n    //struct NFT{\n    //    string released;\n    //    uint tokenId;\n    //    string imageName;\n    //    address owner;\n    //    uint price;\n    //    string tokenURI;\n    //}\n\n    struct DetailOfNFT{\n        uint tokenId;\n        address owner;\n        string tokenURI;\n        string imageName;\n        uint price;\n        string released;\n        string emotion;\n        string description;\n    }\n\n    struct NFT{\n        uint tokenId;\n        string imageName;\n        uint price;\n        string released;\n        string emotion;\n        string description;\n    }\n\n    struct ShortNFT{\n        uint tokenId;\n        string tokenURI;\n    \tuint price;\n    }\n\n\t//      \n    using Counters for Counters.Counter;\n    Counters.Counter private _tokenIds;\n\n    mapping(address => uint[]) HoldersList;\n    mapping(uint => NFT) ListOfNft;\n    mapping(address => string) AddressToNickname;\n    mapping(string => address) NicknameToAddress;\n    mapping(string => NFT[]) NftByEmotion;\n\n\n    constructor () ERC721(\"MyNFT\", \"NFT\") {}\n\n    function mintNFT(string memory _tokenURI, string memory _released, string memory _imageName, uint _price, string memory _emotion,string memory _description) public returns (uint256) {\n        _tokenIds.increment();\n        uint256 newItemId = _tokenIds.current();\n\n\n        _mint(msg.sender, newItemId);\n        _setTokenURI(newItemId, _tokenURI);\n\n        HoldersList[msg.sender].push(newItemId);\n        NFT memory _mintedNFT = NFT(newItemId, _imageName, _price, _released, _emotion, _description);\n        //ListOfNft[newItemId] = NFT(newItemId, _imageName, _price, _released);\n        ListOfNft[newItemId] = _mintedNFT;\n        NftByEmotion[_emotion].push(_mintedNFT);\n\n        //ListOfNft[newItemId] = NFT(_released, newItemId, _imageName, msg.sender, _price, _tokenURI);\n\n        return newItemId;\n    }\n\n    function deleteNFT(uint _tokenId) public {\n        require(ownerOf(_tokenId) == msg.sender, 'you are not holder');\n        ListOfNft[_tokenId].tokenId = 0;\n        uint _tokenIdxInEmotion;\n        for(uint i = 0; i < NftByEmotion[ListOfNft[_tokenId].emotion].length; i++){\n            if(NftByEmotion[ListOfNft[_tokenId].emotion][i].tokenId == _tokenId){\n                _tokenIdxInEmotion = i;\n            }\n        }\n\n        for(uint i = _tokenIdxInEmotion; i <NftByEmotion[ListOfNft[_tokenId].emotion].length-1; i++){\n          NftByEmotion[ListOfNft[_tokenId].emotion][i] = NftByEmotion[ListOfNft[_tokenId].emotion][i+1];\n        }\n\n        NftByEmotion[ListOfNft[_tokenId].emotion].pop();\n    }\n\n    function getAllNFT() public view returns(ShortNFT[] memory){\n        ShortNFT[] memory allNFT = new ShortNFT[](_tokenIds.current());\n        for(uint i = 1; i <= _tokenIds.current(); i++){\n            allNFT[i - 1] = ShortNFT(i, tokenURI(i), ListOfNft[i].price);\n        }\n        return allNFT;\n    }\n\n    //nft     \n    //function getListShortNFT(uint _startIdx, uint _endIdx) public view returns(ShortNFT[] memory){\n    //    ShortNFT[] memory result = new ShortNFT[](_endIdx - _startIdx + 1);\n    //    for(uint i = _startIdx; i <= _endIdx; i++){\n    //        result[i - _startIdx] = ShortNFT(i, tokenURI(i), ListOfNft[i].price);\n    //    }\n    //    return result;\n    //}\n    //function getListShortNFTbyEmotioon(uint _startIdx, uint _endIdx, string memory _emotion) public view returns(ShortNFT[] memory){\n    //    ShortNFT[] memory result = new ShortNFT[](_endIdx - _startIdx + 1);\n    //    for(uint i = _startIdx; i <= _endIdx; i++){\n    //        result[i - _startIdx] = ShortNFT(NftByEmotion[_emotion][i].tokenId, tokenURI(NftByEmotion[_emotion][i].tokenId), NftByEmotion[_emotion][i].price);\n    //    }\n    //    return result;\n    //}\n\n\n    function getListShortNFT(uint _count, uint _page) public view returns(ShortNFT[] memory){\n        ShortNFT[] memory result = new ShortNFT[](_count);\n        uint count = 0;\n        uint NumOfIndex = 0;\n        uint i = _tokenIds.current();\n\n\n        while(true){\n\t        if(i <= 0){\n\t        \tbreak;\n\t        }\n            if(ListOfNft[i].tokenId != 0){\n\t\t        if(count >= _count * (_page - 1)){\n\t\t            result[NumOfIndex] = ShortNFT(i, tokenURI(i), ListOfNft[i].price);\n                    NumOfIndex += 1;\n\t\t        }\n                count += 1;\n                if(NumOfIndex == _count){\n                    break;\n                }\n            }\n\n            i -= 1;\n        }\n        \n        return result;\n    }\n\n    function getListShortNFTbyEmotion(uint _count, uint _page, string memory _emotion) public view returns(ShortNFT[] memory){\n        ShortNFT[] memory result = new ShortNFT[](_count);\n        uint count = 0;\n        if(NftByEmotion[_emotion].length == 0){\n            return result;\n        }\n        uint i = NftByEmotion[_emotion].length - 1;\n\n        if(i < _count * (_page - 1)){\n            return result;\n        }\n\t    i -= _count * (_page - 1);\n        \n\t    while(true){            \n\n\t        result[count] = ShortNFT(NftByEmotion[_emotion][i].tokenId, tokenURI(NftByEmotion[_emotion][i].tokenId), NftByEmotion[_emotion][i].price);\n            count += 1;\n            if(count == _count){\n                break;\n            }\n           \n            if(i < 1){\n                break;\n            }else{\n\t            i -= 1;\n\t        }\n        }\n        \n        return result;\n    }\n\n    function getListHolder(address _who) view public returns(ShortNFT[] memory){\n\n\t    uint lengthHolderList = HoldersList[_who].length;\n\n\t    ShortNFT[] memory result = new ShortNFT[](lengthHolderList);\n            for(uint i = 0; i < lengthHolderList; i++){\n                uint tokenId = HoldersList[_who][i];\n                if(tokenId != 0){\n                    result[lengthHolderList - 1 - i] = ShortNFT(tokenId, tokenURI(tokenId), ListOfNft[tokenId].price);\n                }\n            }\n        return result;\n    }\n\t\n    //function isValidAddress(string memory addressString) public pure returns (bool) {\n   \t// bytes memory addressBytes = bytes(addressString);\n    //\tif (addressBytes.length != 42) {\n    //    \treturn false; //   42   \n    //\t}\n    //\tbytes20 addressBytes20 = bytes20(addressBytes);\n    //\tif (addressBytes20 == bytes20(0)) {\n    //    \treturn false; //   Null Address  \n    //\t}\n    //\treturn true;\n    //}\n\n    function getDetailOfNft(uint _tokenId) public view returns(DetailOfNFT memory){\n        NFT memory selectedNft = ListOfNft[_tokenId];\n        DetailOfNFT memory result = DetailOfNFT(_tokenId, ownerOf(_tokenId), tokenURI(_tokenId), selectedNft.imageName, selectedNft.price, selectedNft.released, selectedNft.emotion, selectedNft.description);\n        return result;\n    }\n\n    function getNumOfToken() public view returns(uint256){\n        uint result = _tokenIds.current();\n        return result;\n    }\n\n    function changePrice(uint _tokenId, uint _price) public {\n        require(msg.sender == ownerOf(_tokenId), 'sender is not owner');\n        ListOfNft[_tokenId].price = _price;\n    }\n\n    function buyNFT(uint _tokenId) public payable{\n        address seller = ownerOf(_tokenId);\n        // \n        require(seller != msg.sender, 'you are holder');\n        //   0eth \n        require(ListOfNft[_tokenId].price != 0, 'is not for sale');\n       // require(msg.value == ListOfNft[_tokenId].price, 'not right price');\n        \n        //\n        payable(seller).transfer(msg.value);\n        //\n        _transfer(seller, msg.sender, _tokenId);\n        //ListOfNft[_tokenId].owner = msg.sender;\n\n        for(uint i = 0; i < HoldersList[seller].length; i++){\n            if(HoldersList[seller][i] == _tokenId){\n                delete HoldersList[seller][i];\n                HoldersList[msg.sender].push(_tokenId);\n            }\n        }\n    }\n\n    function nicknameConverAddress(string memory _who) public view returns(address){\n    \treturn NicknameToAddress[_who];\n    }\n\n    function getNickName(address _who) public view returns(string memory){\n\t    string memory _nickname = AddressToNickname[_who];\n\t    return _nickname;\n    }\n    \n    function setNickName(string memory _nickname) public{\n    \tAddressToNickname[msg.sender] = _nickname;\n\t    NicknameToAddress[_nickname] = msg.sender;\n    }\n}\n\n",
  "sourcePath": "/home/ubuntu/NFTContract/contracts/MyNFT.sol",
  "compiler": {
    "name": "solc",
    "version": "0.8.19+commit.7dd6d404.Emscripten.clang"
  },
  "schemaVersion": "3.4.13",
  "updatedAt": "2023-05-12T03:19:35.382Z",
  "networkType": "ethereum",
  "devdoc": {
    "events": {
      "Approval(address,address,uint256)": {
        "details": "Emitted when `owner` enables `approved` to manage the `tokenId` token."
      },
      "ApprovalForAll(address,address,bool)": {
        "details": "Emitted when `owner` enables or disables (`approved`) `operator` to manage all of its assets."
      },
      "Transfer(address,address,uint256)": {
        "details": "Emitted when `tokenId` token is transferred from `from` to `to`."
      }
    },
    "kind": "dev",
    "methods": {
      "approve(address,uint256)": {
        "details": "See {IERC721-approve}."
      },
      "balanceOf(address)": {
        "details": "See {IERC721-balanceOf}."
      },
      "getApproved(uint256)": {
        "details": "See {IERC721-getApproved}."
      },
      "isApprovedForAll(address,address)": {
        "details": "See {IERC721-isApprovedForAll}."
      },
      "name()": {
        "details": "See {IERC721Metadata-name}."
      },
      "owner()": {
        "details": "Returns the address of the current owner."
      },
      "ownerOf(uint256)": {
        "details": "See {IERC721-ownerOf}."
      },
      "renounceOwnership()": {
        "details": "Leaves the contract without owner. It will not be possible to call `onlyOwner` functions anymore. Can only be called by the current owner. NOTE: Renouncing ownership will leave the contract without an owner, thereby removing any functionality that is only available to the owner."
      },
      "safeTransferFrom(address,address,uint256)": {
        "details": "See {IERC721-safeTransferFrom}."
      },
      "safeTransferFrom(address,address,uint256,bytes)": {
        "details": "See {IERC721-safeTransferFrom}."
      },
      "setApprovalForAll(address,bool)": {
        "details": "See {IERC721-setApprovalForAll}."
      },
      "supportsInterface(bytes4)": {
        "details": "See {IERC165-supportsInterface}."
      },
      "symbol()": {
        "details": "See {IERC721Metadata-symbol}."
      },
      "tokenURI(uint256)": {
        "details": "See {IERC721Metadata-tokenURI}."
      },
      "transferFrom(address,address,uint256)": {
        "details": "See {IERC721-transferFrom}."
      },
      "transferOwnership(address)": {
        "details": "Transfers ownership of the contract to a new account (`newOwner`). Can only be called by the current owner."
      }
    },
    "version": 1
  },
  "userdoc": {
    "kind": "user",
    "methods": {},
    "version": 1
  }
}