{
  "contractName": "MyNFT",
  "abi": [
    {
      "inputs": [],
      "stateMutability": "nonpayable",
      "type": "constructor"
    },
    {
      "anonymous": false,
      "inputs": [
        {
          "indexed": true,
          "internalType": "address",
          "name": "owner",
          "type": "address"
        },
        {
          "indexed": true,
          "internalType": "address",
          "name": "approved",
          "type": "address"
        },
        {
          "indexed": true,
          "internalType": "uint256",
          "name": "tokenId",
          "type": "uint256"
        }
      ],
      "name": "Approval",
      "type": "event"
    },
    {
      "anonymous": false,
      "inputs": [
        {
          "indexed": true,
          "internalType": "address",
          "name": "owner",
          "type": "address"
        },
        {
          "indexed": true,
          "internalType": "address",
          "name": "operator",
          "type": "address"
        },
        {
          "indexed": false,
          "internalType": "bool",
          "name": "approved",
          "type": "bool"
        }
      ],
      "name": "ApprovalForAll",
      "type": "event"
    },
    {
      "anonymous": false,
      "inputs": [
        {
          "indexed": true,
          "internalType": "address",
          "name": "previousOwner",
          "type": "address"
        },
        {
          "indexed": true,
          "internalType": "address",
          "name": "newOwner",
          "type": "address"
        }
      ],
      "name": "OwnershipTransferred",
      "type": "event"
    },
    {
      "anonymous": false,
      "inputs": [
        {
          "indexed": true,
          "internalType": "address",
          "name": "from",
          "type": "address"
        },
        {
          "indexed": true,
          "internalType": "address",
          "name": "to",
          "type": "address"
        },
        {
          "indexed": true,
          "internalType": "uint256",
          "name": "tokenId",
          "type": "uint256"
        }
      ],
      "name": "Transfer",
      "type": "event"
    },
    {
      "inputs": [
        {
          "internalType": "address",
          "name": "to",
          "type": "address"
        },
        {
          "internalType": "uint256",
          "name": "tokenId",
          "type": "uint256"
        }
      ],
      "name": "approve",
      "outputs": [],
      "stateMutability": "nonpayable",
      "type": "function"
    },
    {
      "inputs": [
        {
          "internalType": "address",
          "name": "owner",
          "type": "address"
        }
      ],
      "name": "balanceOf",
      "outputs": [
        {
          "internalType": "uint256",
          "name": "",
          "type": "uint256"
        }
      ],
      "stateMutability": "view",
      "type": "function",
      "constant": true
    },
    {
      "inputs": [
        {
          "internalType": "uint256",
          "name": "tokenId",
          "type": "uint256"
        }
      ],
      "name": "getApproved",
      "outputs": [
        {
          "internalType": "address",
          "name": "",
          "type": "address"
        }
      ],
      "stateMutability": "view",
      "type": "function",
      "constant": true
    },
    {
      "inputs": [
        {
          "internalType": "address",
          "name": "owner",
          "type": "address"
        },
        {
          "internalType": "address",
          "name": "operator",
          "type": "address"
        }
      ],
      "name": "isApprovedForAll",
      "outputs": [
        {
          "internalType": "bool",
          "name": "",
          "type": "bool"
        }
      ],
      "stateMutability": "view",
      "type": "function",
      "constant": true
    },
    {
      "inputs": [],
      "name": "name",
      "outputs": [
        {
          "internalType": "string",
          "name": "",
          "type": "string"
        }
      ],
      "stateMutability": "view",
      "type": "function",
      "constant": true
    },
    {
      "inputs": [],
      "name": "owner",
      "outputs": [
        {
          "internalType": "address",
          "name": "",
          "type": "address"
        }
      ],
      "stateMutability": "view",
      "type": "function",
      "constant": true
    },
    {
      "inputs": [
        {
          "internalType": "uint256",
          "name": "tokenId",
          "type": "uint256"
        }
      ],
      "name": "ownerOf",
      "outputs": [
        {
          "internalType": "address",
          "name": "",
          "type": "address"
        }
      ],
      "stateMutability": "view",
      "type": "function",
      "constant": true
    },
    {
      "inputs": [],
      "name": "renounceOwnership",
      "outputs": [],
      "stateMutability": "nonpayable",
      "type": "function"
    },
    {
      "inputs": [
        {
          "internalType": "address",
          "name": "from",
          "type": "address"
        },
        {
          "internalType": "address",
          "name": "to",
          "type": "address"
        },
        {
          "internalType": "uint256",
          "name": "tokenId",
          "type": "uint256"
        }
      ],
      "name": "safeTransferFrom",
      "outputs": [],
      "stateMutability": "nonpayable",
      "type": "function"
    },
    {
      "inputs": [
        {
          "internalType": "address",
          "name": "from",
          "type": "address"
        },
        {
          "internalType": "address",
          "name": "to",
          "type": "address"
        },
        {
          "internalType": "uint256",
          "name": "tokenId",
          "type": "uint256"
        },
        {
          "internalType": "bytes",
          "name": "data",
          "type": "bytes"
        }
      ],
      "name": "safeTransferFrom",
      "outputs": [],
      "stateMutability": "nonpayable",
      "type": "function"
    },
    {
      "inputs": [
        {
          "internalType": "address",
          "name": "operator",
          "type": "address"
        },
        {
          "internalType": "bool",
          "name": "approved",
          "type": "bool"
        }
      ],
      "name": "setApprovalForAll",
      "outputs": [],
      "stateMutability": "nonpayable",
      "type": "function"
    },
    {
      "inputs": [
        {
          "internalType": "bytes4",
          "name": "interfaceId",
          "type": "bytes4"
        }
      ],
      "name": "supportsInterface",
      "outputs": [
        {
          "internalType": "bool",
          "name": "",
          "type": "bool"
        }
      ],
      "stateMutability": "view",
      "type": "function",
      "constant": true
    },
    {
      "inputs": [],
      "name": "symbol",
      "outputs": [
        {
          "internalType": "string",
          "name": "",
          "type": "string"
        }
      ],
      "stateMutability": "view",
      "type": "function",
      "constant": true
    },
    {
      "inputs": [
        {
          "internalType": "uint256",
          "name": "tokenId",
          "type": "uint256"
        }
      ],
      "name": "tokenURI",
      "outputs": [
        {
          "internalType": "string",
          "name": "",
          "type": "string"
        }
      ],
      "stateMutability": "view",
      "type": "function",
      "constant": true
    },
    {
      "inputs": [
        {
          "internalType": "address",
          "name": "from",
          "type": "address"
        },
        {
          "internalType": "address",
          "name": "to",
          "type": "address"
        },
        {
          "internalType": "uint256",
          "name": "tokenId",
          "type": "uint256"
        }
      ],
      "name": "transferFrom",
      "outputs": [],
      "stateMutability": "nonpayable",
      "type": "function"
    },
    {
      "inputs": [
        {
          "internalType": "address",
          "name": "newOwner",
          "type": "address"
        }
      ],
      "name": "transferOwnership",
      "outputs": [],
      "stateMutability": "nonpayable",
      "type": "function"
    },
    {
      "inputs": [
        {
          "internalType": "string",
          "name": "_tokenURI",
          "type": "string"
        },
        {
          "internalType": "string",
          "name": "_released",
          "type": "string"
        },
        {
          "internalType": "string",
          "name": "_imageName",
          "type": "string"
        },
        {
          "internalType": "uint256",
          "name": "_price",
          "type": "uint256"
        },
        {
          "internalType": "string",
          "name": "_emotion",
          "type": "string"
        },
        {
          "internalType": "string",
          "name": "_description",
          "type": "string"
        }
      ],
      "name": "mintNFT",
      "outputs": [
        {
          "internalType": "uint256",
          "name": "",
          "type": "uint256"
        }
      ],
      "stateMutability": "nonpayable",
      "type": "function"
    },
    {
      "inputs": [
        {
          "internalType": "uint256",
          "name": "_tokenId",
          "type": "uint256"
        }
      ],
      "name": "deleteNFT",
      "outputs": [],
      "stateMutability": "nonpayable",
      "type": "function"
    },
    {
      "inputs": [
        {
          "internalType": "string",
          "name": "_emotion",
          "type": "string"
        },
        {
          "internalType": "address",
          "name": "_who",
          "type": "address"
        }
      ],
      "name": "getList",
      "outputs": [
        {
          "components": [
            {
              "internalType": "uint256",
              "name": "tokenId",
              "type": "uint256"
            },
            {
              "internalType": "string",
              "name": "tokenURI",
              "type": "string"
            },
            {
              "internalType": "uint256",
              "name": "price",
              "type": "uint256"
            },
            {
              "internalType": "string",
              "name": "released",
              "type": "string"
            },
            {
              "internalType": "address",
              "name": "owner",
              "type": "address"
            }
          ],
          "internalType": "struct MyNFT.ShortNFT[]",
          "name": "",
          "type": "tuple[]"
        }
      ],
      "stateMutability": "view",
      "type": "function",
      "constant": true
    },
    {
      "inputs": [
        {
          "internalType": "address",
          "name": "_who",
          "type": "address"
        }
      ],
      "name": "checkAddress",
      "outputs": [],
      "stateMutability": "view",
      "type": "function",
      "constant": true
    },
    {
      "inputs": [
        {
          "internalType": "uint256",
          "name": "_tokenId",
          "type": "uint256"
        }
      ],
      "name": "getDetailOfNft",
      "outputs": [
        {
          "components": [
            {
              "internalType": "uint256",
              "name": "tokenId",
              "type": "uint256"
            },
            {
              "internalType": "address",
              "name": "owner",
              "type": "address"
            },
            {
              "internalType": "string",
              "name": "tokenURI",
              "type": "string"
            },
            {
              "internalType": "string",
              "name": "imageName",
              "type": "string"
            },
            {
              "internalType": "uint256",
              "name": "price",
              "type": "uint256"
            },
            {
              "internalType": "string",
              "name": "released",
              "type": "string"
            },
            {
              "internalType": "string",
              "name": "emotion",
              "type": "string"
            },
            {
              "internalType": "string",
              "name": "description",
              "type": "string"
            }
          ],
          "internalType": "struct MyNFT.DetailOfNFT",
          "name": "",
          "type": "tuple"
        }
      ],
      "stateMutability": "view",
      "type": "function",
      "constant": true
    },
    {
      "inputs": [
        {
          "internalType": "uint256",
          "name": "_tokenId",
          "type": "uint256"
        },
        {
          "internalType": "uint256",
          "name": "_price",
          "type": "uint256"
        }
      ],
      "name": "changePrice",
      "outputs": [],
      "stateMutability": "nonpayable",
      "type": "function"
    },
    {
      "inputs": [
        {
          "internalType": "uint256",
          "name": "_tokenId",
          "type": "uint256"
        }
      ],
      "name": "buyNFT",
      "outputs": [],
      "stateMutability": "payable",
      "type": "function",
      "payable": true
    },
    {
      "inputs": [
        {
          "internalType": "string",
          "name": "_who",
          "type": "string"
        }
      ],
      "name": "convertNickToAddr",
      "outputs": [
        {
          "internalType": "address",
          "name": "",
          "type": "address"
        }
      ],
      "stateMutability": "view",
      "type": "function",
      "constant": true
    },
    {
      "inputs": [
        {
          "internalType": "address",
          "name": "_who",
          "type": "address"
        }
      ],
      "name": "getNickName",
      "outputs": [
        {
          "internalType": "string",
          "name": "",
          "type": "string"
        }
      ],
      "stateMutability": "view",
      "type": "function",
      "constant": true
    },
    {
      "inputs": [
        {
          "internalType": "string",
          "name": "_nickname",
          "type": "string"
        }
      ],
      "name": "setNickName",
      "outputs": [],
      "stateMutability": "nonpayable",
      "type": "function"
    }
  ],
  "bytecode": "0x60806040523480156200001157600080fd5b506040518060400160405280600581526020017f4d794e46540000000000000000000000000000000000000000000000000000008152506040518060400160405280600381526020017f4e4654000000000000000000000000000000000000000000000000000000000081525081600090816200008f919062000412565b508060019081620000a1919062000412565b505050620000c4620000b8620000ca60201b60201c565b620000d260201b60201c565b620004f9565b600033905090565b6000600760009054906101000a900473ffffffffffffffffffffffffffffffffffffffff16905081600760006101000a81548173ffffffffffffffffffffffffffffffffffffffff021916908373ffffffffffffffffffffffffffffffffffffffff1602179055508173ffffffffffffffffffffffffffffffffffffffff168173ffffffffffffffffffffffffffffffffffffffff167f8be0079c531659141344cd1fd0a4f28419497f9722a3daafe3b4186f6b6457e060405160405180910390a35050565b600081519050919050565b7f4e487b7100000000000000000000000000000000000000000000000000000000600052604160045260246000fd5b7f4e487b7100000000000000000000000000000000000000000000000000000000600052602260045260246000fd5b600060028204905060018216806200021a57607f821691505b60208210810362000230576200022f620001d2565b5b50919050565b60008190508160005260206000209050919050565b60006020601f8301049050919050565b600082821b905092915050565b6000600883026200029a7fffffffffffffffffffffffffffffffffffffffffffffffffffffffffffffffff826200025b565b620002a686836200025b565b95508019841693508086168417925050509392505050565b6000819050919050565b6000819050919050565b6000620002f3620002ed620002e784620002be565b620002c8565b620002be565b9050919050565b6000819050919050565b6200030f83620002d2565b620003276200031e82620002fa565b84845462000268565b825550505050565b600090565b6200033e6200032f565b6200034b81848462000304565b505050565b5b8181101562000373576200036760008262000334565b60018101905062000351565b5050565b601f821115620003c2576200038c8162000236565b62000397846200024b565b81016020851015620003a7578190505b620003bf620003b6856200024b565b83018262000350565b50505b505050565b600082821c905092915050565b6000620003e760001984600802620003c7565b1980831691505092915050565b6000620004028383620003d4565b9150826002028217905092915050565b6200041d8262000198565b67ffffffffffffffff811115620004395762000438620001a3565b5b62000445825462000201565b6200045282828562000377565b600060209050601f8311600181146200048a576000841562000475578287015190505b620004818582620003f4565b865550620004f1565b601f1984166200049a8662000236565b60005b82811015620004c4578489015182556001820191506020850194506020810190506200049d565b86831015620004e45784890151620004e0601f891682620003d4565b8355505b6001600288020188555050505b505050505050565b61510280620005096000396000f3fe6080604052600436106101815760003560e01c80638da5cb5b116100d1578063c42cb7ac1161008a578063e985e9c511610064578063e985e9c5146105a7578063ead0327d146105e4578063f2fde38b14610621578063f687ed571461064a57610181565b8063c42cb7ac14610504578063c73ea36714610541578063c87b56dd1461056a57610181565b80638da5cb5b146103f657806395d89b41146104215780639a2071461461044c578063a22cb46514610489578063b3de019c146104b2578063b88d4fde146104db57610181565b806323b872dd1161013e57806351ed82881161011857806351ed8288146103495780636352211e1461036557806370a08231146103a2578063715018a6146103df57610181565b806323b872dd146102ba57806342842e0e146102e3578063444d14231461030c57610181565b806301ffc9a71461018657806306fdde03146101c3578063081812fc146101ee578063095ea7b31461022b5780630ddcfe8e14610254578063175a02831461027d575b600080fd5b34801561019257600080fd5b506101ad60048036038101906101a8919061353c565b610673565b6040516101ba9190613584565b60405180910390f35b3480156101cf57600080fd5b506101d8610755565b6040516101e5919061362f565b60405180910390f35b3480156101fa57600080fd5b5061021560048036038101906102109190613687565b6107e7565b60405161022291906136f5565b60405180910390f35b34801561023757600080fd5b50610252600480360381019061024d919061373c565b61082d565b005b34801561026057600080fd5b5061027b6004803603810190610276919061377c565b610944565b005b34801561028957600080fd5b506102a4600480360381019061029f91906138de565b610947565b6040516102b19190613a06565b60405180910390f35b3480156102c657600080fd5b506102e160048036038101906102dc9190613a21565b610c08565b005b3480156102ef57600080fd5b5061030a60048036038101906103059190613a21565b610c68565b005b34801561031857600080fd5b50610333600480360381019061032e9190613687565b610c88565b6040516103409190613ba8565b60405180910390f35b610363600480360381019061035e9190613687565b610f90565b005b34801561037157600080fd5b5061038c60048036038101906103879190613687565b611243565b60405161039991906136f5565b60405180910390f35b3480156103ae57600080fd5b506103c960048036038101906103c4919061377c565b6112c9565b6040516103d69190613a06565b60405180910390f35b3480156103eb57600080fd5b506103f4611380565b005b34801561040257600080fd5b5061040b611394565b60405161041891906136f5565b60405180910390f35b34801561042d57600080fd5b506104366113be565b604051610443919061362f565b60405180910390f35b34801561045857600080fd5b50610473600480360381019061046e9190613bca565b611450565b6040516104809190613d65565b60405180910390f35b34801561049557600080fd5b506104b060048036038101906104ab9190613db3565b611968565b005b3480156104be57600080fd5b506104d960048036038101906104d49190613df3565b61197e565b005b3480156104e757600080fd5b5061050260048036038101906104fd9190613ed4565b611a13565b005b34801561051057600080fd5b5061052b60048036038101906105269190613f57565b611a75565b60405161053891906136f5565b60405180910390f35b34801561054d57600080fd5b5061056860048036038101906105639190613f57565b611abd565b005b34801561057657600080fd5b50610591600480360381019061058c9190613687565b611b6a565b60405161059e919061362f565b60405180910390f35b3480156105b357600080fd5b506105ce60048036038101906105c99190613fa0565b611c7c565b6040516105db9190613584565b60405180910390f35b3480156105f057600080fd5b5061060b6004803603810190610606919061377c565b611d10565b604051610618919061362f565b60405180910390f35b34801561062d57600080fd5b506106486004803603810190610643919061377c565b611de7565b005b34801561065657600080fd5b50610671600480360381019061066c9190613687565b611e6a565b005b60007f80ac58cd000000000000000000000000000000000000000000000000000000007bffffffffffffffffffffffffffffffffffffffffffffffffffffffff1916827bffffffffffffffffffffffffffffffffffffffffffffffffffffffff1916148061073e57507f5b5e139f000000000000000000000000000000000000000000000000000000007bffffffffffffffffffffffffffffffffffffffffffffffffffffffff1916827bffffffffffffffffffffffffffffffffffffffffffffffffffffffff1916145b8061074e575061074d82612441565b5b9050919050565b6060600080546107649061400f565b80601f01602080910402602001604051908101604052809291908181526020018280546107909061400f565b80156107dd5780601f106107b2576101008083540402835291602001916107dd565b820191906000526020600020905b8154815290600101906020018083116107c057829003601f168201915b5050505050905090565b60006107f2826124ab565b6004600083815260200190815260200160002060009054906101000a900473ffffffffffffffffffffffffffffffffffffffff169050919050565b600061083882611243565b90508073ffffffffffffffffffffffffffffffffffffffff168373ffffffffffffffffffffffffffffffffffffffff16036108a8576040517f08c379a000000000000000000000000000000000000000000000000000000000815260040161089f906140b2565b60405180910390fd5b8073ffffffffffffffffffffffffffffffffffffffff166108c76124f6565b73ffffffffffffffffffffffffffffffffffffffff1614806108f657506108f5816108f06124f6565b611c7c565b5b610935576040517f08c379a000000000000000000000000000000000000000000000000000000000815260040161092c90614144565b60405180910390fd5b61093f83836124fe565b505050565b50565b600061095360086125b7565b600061095f60086125cd565b905061096b33826125db565b61097581896127f8565b600960003373ffffffffffffffffffffffffffffffffffffffff1673ffffffffffffffffffffffffffffffffffffffff16815260200190815260200160002081908060018154018082558091505060019003906000526020600020016000909190919091505560006040518060c0016040528083815260200188815260200187815260200189815260200186815260200185815250905080600a6000848152602001908152602001600020600082015181600001556020820151816001019081610a3f9190614310565b50604082015181600201556060820151816003019081610a5f9190614310565b506080820151816004019081610a759190614310565b5060a0820151816005019081610a8b9190614310565b50905050600d85604051610a9f919061441e565b9081526020016040518091039020819080600181540180825580915050600190039060005260206000209060060201600090919091909150600082015181600001556020820151816001019081610af69190614310565b50604082015181600201556060820151816003019081610b169190614310565b506080820151816004019081610b2c9190614310565b5060a0820151816005019081610b429190614310565b505050600d604051610b5390614481565b9081526020016040518091039020819080600181540180825580915050600190039060005260206000209060060201600090919091909150600082015181600001556020820151816001019081610baa9190614310565b50604082015181600201556060820151816003019081610bca9190614310565b506080820151816004019081610be09190614310565b5060a0820151816005019081610bf69190614310565b50505081925050509695505050505050565b610c19610c136124f6565b82612865565b610c58576040517f08c379a0000000000000000000000000000000000000000000000000000000008152600401610c4f90614508565b60405180910390fd5b610c638383836128fa565b505050565b610c8383838360405180602001604052806000815250611a13565b505050565b610c906133d3565b6000600a60008481526020019081526020016000206040518060c001604052908160008201548152602001600182018054610cca9061400f565b80601f0160208091040260200160405190810160405280929190818152602001828054610cf69061400f565b8015610d435780601f10610d1857610100808354040283529160200191610d43565b820191906000526020600020905b815481529060010190602001808311610d2657829003601f168201915b5050505050815260200160028201548152602001600382018054610d669061400f565b80601f0160208091040260200160405190810160405280929190818152602001828054610d929061400f565b8015610ddf5780601f10610db457610100808354040283529160200191610ddf565b820191906000526020600020905b815481529060010190602001808311610dc257829003601f168201915b50505050508152602001600482018054610df89061400f565b80601f0160208091040260200160405190810160405280929190818152602001828054610e249061400f565b8015610e715780601f10610e4657610100808354040283529160200191610e71565b820191906000526020600020905b815481529060010190602001808311610e5457829003601f168201915b50505050508152602001600582018054610e8a9061400f565b80601f0160208091040260200160405190810160405280929190818152602001828054610eb69061400f565b8015610f035780601f10610ed857610100808354040283529160200191610f03565b820191906000526020600020905b815481529060010190602001808311610ee657829003601f168201915b50505050508152505090506000604051806101000160405280858152602001610f2b86611243565b73ffffffffffffffffffffffffffffffffffffffff168152602001610f4f86611b6a565b8152602001836020015181526020018360400151815260200183606001518152602001836080015181526020018360a0015181525090508092505050919050565b6000610f9b82611243565b90503373ffffffffffffffffffffffffffffffffffffffff168173ffffffffffffffffffffffffffffffffffffffff160361100b576040517f08c379a000000000000000000000000000000000000000000000000000000000815260040161100290614574565b60405180910390fd5b6000600a60008481526020019081526020016000206002015403611064576040517f08c379a000000000000000000000000000000000000000000000000000000000815260040161105b906145e0565b60405180910390fd5b8073ffffffffffffffffffffffffffffffffffffffff166108fc349081150290604051600060405180830381858888f193505050501580156110aa573d6000803e3d6000fd5b506110b68133846128fa565b60005b600960008373ffffffffffffffffffffffffffffffffffffffff1673ffffffffffffffffffffffffffffffffffffffff1681526020019081526020016000208054905081101561123e5782600960008473ffffffffffffffffffffffffffffffffffffffff1673ffffffffffffffffffffffffffffffffffffffff168152602001908152602001600020828154811061115557611154614600565b5b90600052602060002001540361122b57600960008373ffffffffffffffffffffffffffffffffffffffff1673ffffffffffffffffffffffffffffffffffffffff16815260200190815260200160002081815481106111b6576111b5614600565b5b9060005260206000200160009055600960003373ffffffffffffffffffffffffffffffffffffffff1673ffffffffffffffffffffffffffffffffffffffff1681526020019081526020016000208390806001815401808255809150506001900390600052602060002001600090919091909150555b80806112369061465e565b9150506110b9565b505050565b60008061124f83612bf3565b9050600073ffffffffffffffffffffffffffffffffffffffff168173ffffffffffffffffffffffffffffffffffffffff16036112c0576040517f08c379a00000000000000000000000000000000000000000000000000000000081526004016112b7906146f2565b60405180910390fd5b80915050919050565b60008073ffffffffffffffffffffffffffffffffffffffff168273ffffffffffffffffffffffffffffffffffffffff1603611339576040517f08c379a000000000000000000000000000000000000000000000000000000000815260040161133090614784565b60405180910390fd5b600360008373ffffffffffffffffffffffffffffffffffffffff1673ffffffffffffffffffffffffffffffffffffffff168152602001908152602001600020549050919050565b611388612c30565b6113926000612cae565b565b6000600760009054906101000a900473ffffffffffffffffffffffffffffffffffffffff16905090565b6060600180546113cd9061400f565b80601f01602080910402602001604051908101604052809291908181526020018280546113f99061400f565b80156114465780601f1061141b57610100808354040283529160200191611446565b820191906000526020600020905b81548152906001019060200180831161142957829003601f168201915b5050505050905090565b60606000600d84604051611464919061441e565b90815260200160405180910390208054905067ffffffffffffffff81111561148f5761148e6137b3565b5b6040519080825280602002602001820160405280156114c857816020015b6114b561342e565b8152602001906001900390816114ad5790505b509050606060008073ffffffffffffffffffffffffffffffffffffffff168573ffffffffffffffffffffffffffffffffffffffff16036116bc5760005b600d87604051611515919061441e565b9081526020016040518091039020805490508110156116b6576000600d88604051611540919061441e565b908152602001604051809103902082815481106115605761155f614600565b5b90600052602060002090600602016000015490506040518060a0016040528082815260200161158e83611b6a565b8152602001600a6000848152602001908152602001600020600201548152602001600a600084815260200190815260200160002060030180546115d09061400f565b80601f01602080910402602001604051908101604052809291908181526020018280546115fc9061400f565b80156116495780601f1061161e57610100808354040283529160200191611649565b820191906000526020600020905b81548152906001019060200180831161162c57829003601f168201915b5050505050815260200161165c83611243565b73ffffffffffffffffffffffffffffffffffffffff1681525085848151811061168857611687614600565b5b60200260200101819052506001836116a091906147a4565b92505080806116ae9061465e565b915050611505565b506118ae565b60005b600d876040516116cf919061441e565b9081526020016040518091039020805490508110156118ac576000600d886040516116fa919061441e565b9081526020016040518091039020828154811061171a57611719614600565b5b90600052602060002090600602016000015490508673ffffffffffffffffffffffffffffffffffffffff1661174e82611243565b73ffffffffffffffffffffffffffffffffffffffff1603611898576040518060a0016040528082815260200161178383611b6a565b8152602001600a6000848152602001908152602001600020600201548152602001600a600084815260200190815260200160002060030180546117c59061400f565b80601f01602080910402602001604051908101604052809291908181526020018280546117f19061400f565b801561183e5780601f106118135761010080835404028352916020019161183e565b820191906000526020600020905b81548152906001019060200180831161182157829003601f168201915b5050505050815260200161185183611243565b73ffffffffffffffffffffffffffffffffffffffff1681525085848151811061187d5761187c614600565b5b602002602001018190525060018361189591906147a4565b92505b5080806118a49061465e565b9150506116bf565b505b8067ffffffffffffffff8111156118c8576118c76137b3565b5b60405190808252806020026020018201604052801561190157816020015b6118ee61342e565b8152602001906001900390816118e65790505b50915060005b8181101561195b5783818151811061192257611921614600565b5b602002602001015183828151811061193d5761193c614600565b5b602002602001018190525080806119539061465e565b915050611907565b5081935050505092915050565b61197a6119736124f6565b8383612d74565b5050565b61198782611243565b73ffffffffffffffffffffffffffffffffffffffff163373ffffffffffffffffffffffffffffffffffffffff16146119f4576040517f08c379a00000000000000000000000000000000000000000000000000000000081526004016119eb90614824565b60405180910390fd5b80600a6000848152602001908152602001600020600201819055505050565b611a24611a1e6124f6565b83612865565b611a63576040517f08c379a0000000000000000000000000000000000000000000000000000000008152600401611a5a90614508565b60405180910390fd5b611a6f84848484612ee0565b50505050565b6000600c82604051611a87919061441e565b908152602001604051809103902060009054906101000a900473ffffffffffffffffffffffffffffffffffffffff169050919050565b80600b60003373ffffffffffffffffffffffffffffffffffffffff1673ffffffffffffffffffffffffffffffffffffffff1681526020019081526020016000209081611b099190614310565b5033600c82604051611b1b919061441e565b908152602001604051809103902060006101000a81548173ffffffffffffffffffffffffffffffffffffffff021916908373ffffffffffffffffffffffffffffffffffffffff16021790555050565b6060611b75826124ab565b6000600660008481526020019081526020016000208054611b959061400f565b80601f0160208091040260200160405190810160405280929190818152602001828054611bc19061400f565b8015611c0e5780601f10611be357610100808354040283529160200191611c0e565b820191906000526020600020905b815481529060010190602001808311611bf157829003601f168201915b505050505090506000611c1f612f3c565b90506000815103611c34578192505050611c77565b600082511115611c69578082604051602001611c51929190614844565b60405160208183030381529060405292505050611c77565b611c7284612f53565b925050505b919050565b6000600560008473ffffffffffffffffffffffffffffffffffffffff1673ffffffffffffffffffffffffffffffffffffffff16815260200190815260200160002060008373ffffffffffffffffffffffffffffffffffffffff1673ffffffffffffffffffffffffffffffffffffffff16815260200190815260200160002060009054906101000a900460ff16905092915050565b60606000600b60008473ffffffffffffffffffffffffffffffffffffffff1673ffffffffffffffffffffffffffffffffffffffff1681526020019081526020016000208054611d5e9061400f565b80601f0160208091040260200160405190810160405280929190818152602001828054611d8a9061400f565b8015611dd75780601f10611dac57610100808354040283529160200191611dd7565b820191906000526020600020905b815481529060010190602001808311611dba57829003601f168201915b5050505050905080915050919050565b611def612c30565b600073ffffffffffffffffffffffffffffffffffffffff168173ffffffffffffffffffffffffffffffffffffffff1603611e5e576040517f08c379a0000000000000000000000000000000000000000000000000000000008152600401611e55906148da565b60405180910390fd5b611e6781612cae565b50565b3373ffffffffffffffffffffffffffffffffffffffff16611e8a82611243565b73ffffffffffffffffffffffffffffffffffffffff1614611ee0576040517f08c379a0000000000000000000000000000000000000000000000000000000008152600401611ed790614946565b60405180910390fd5b6000600a600083815260200190815260200160002060000181905550600080600090505b600d600a6000858152602001908152602001600020600401604051611f2991906149e9565b908152602001604051809103902080549050811015611fb65782600d600a6000868152602001908152602001600020600401604051611f6891906149e9565b90815260200160405180910390208281548110611f8857611f87614600565b5b90600052602060002090600602016000015403611fa3578091505b8080611fae9061465e565b915050611f04565b5060008190505b6001600d600a6000868152602001908152602001600020600401604051611fe491906149e9565b9081526020016040518091039020805490506120009190614a00565b81101561213757600d600a600085815260200190815260200160002060040160405161202c91906149e9565b908152602001604051809103902060018261204791906147a4565b8154811061205857612057614600565b5b9060005260206000209060060201600d600a600086815260200190815260200160002060040160405161208b91906149e9565b908152602001604051809103902082815481106120ab576120aa614600565b5b906000526020600020906006020160008201548160000155600182018160010190816120d79190614a4a565b5060028201548160020155600382018160030190816120f69190614a4a565b506004820181600401908161210b9190614a4a565b50600582018160050190816121209190614a4a565b50905050808061212f9061465e565b915050611fbd565b50600d600a600084815260200190815260200160002060040160405161215d91906149e9565b908152602001604051809103902080548061217b5761217a614b32565b5b60019003818190600052602060002090600602016000808201600090556001820160006121a89190613473565b60028201600090556003820160006121c09190613473565b6004820160006121d09190613473565b6005820160006121e09190613473565b5050905560005b600d6040516121f590614bad565b90815260200160405180910390208054905081101561226b5782600d60405161221d90614bad565b9081526020016040518091039020828154811061223d5761223c614600565b5b90600052602060002090600602016000015403612258578091505b80806122639061465e565b9150506121e7565b5060008190505b6001600d60405161228290614bad565b90815260200160405180910390208054905061229e9190614a00565b8110156123a757600d6040516122b390614bad565b90815260200160405180910390206001826122ce91906147a4565b815481106122df576122de614600565b5b9060005260206000209060060201600d6040516122fb90614bad565b9081526020016040518091039020828154811061231b5761231a614600565b5b906000526020600020906006020160008201548160000155600182018160010190816123479190614a4a565b5060028201548160020155600382018160030190816123669190614a4a565b506004820181600401908161237b9190614a4a565b50600582018160050190816123909190614a4a565b50905050808061239f9061465e565b915050612272565b50600d6040516123b690614bad565b90815260200160405180910390208054806123d4576123d3614b32565b5b60019003818190600052602060002090600602016000808201600090556001820160006124019190613473565b60028201600090556003820160006124199190613473565b6004820160006124299190613473565b6005820160006124399190613473565b505090555050565b60007f01ffc9a7000000000000000000000000000000000000000000000000000000007bffffffffffffffffffffffffffffffffffffffffffffffffffffffff1916827bffffffffffffffffffffffffffffffffffffffffffffffffffffffff1916149050919050565b6124b481612fbb565b6124f3576040517f08c379a00000000000000000000000000000000000000000000000000000000081526004016124ea906146f2565b60405180910390fd5b50565b600033905090565b816004600083815260200190815260200160002060006101000a81548173ffffffffffffffffffffffffffffffffffffffff021916908373ffffffffffffffffffffffffffffffffffffffff160217905550808273ffffffffffffffffffffffffffffffffffffffff1661257183611243565b73ffffffffffffffffffffffffffffffffffffffff167f8c5be1e5ebec7d5bd14f71427d1e84f3dd0314c0f7b2291e5b200ac8c7c3b92560405160405180910390a45050565b6001816000016000828254019250508190555050565b600081600001549050919050565b600073ffffffffffffffffffffffffffffffffffffffff168273ffffffffffffffffffffffffffffffffffffffff160361264a576040517f08c379a000000000000000000000000000000000000000000000000000000000815260040161264190614c0e565b60405180910390fd5b61265381612fbb565b15612693576040517f08c379a000000000000000000000000000000000000000000000000000000000815260040161268a90614c7a565b60405180910390fd5b6126a1600083836001612ffc565b6126aa81612fbb565b156126ea576040517f08c379a00000000000000000000000000000000000000000000000000000000081526004016126e190614c7a565b60405180910390fd5b6001600360008473ffffffffffffffffffffffffffffffffffffffff1673ffffffffffffffffffffffffffffffffffffffff16815260200190815260200160002060008282540192505081905550816002600083815260200190815260200160002060006101000a81548173ffffffffffffffffffffffffffffffffffffffff021916908373ffffffffffffffffffffffffffffffffffffffff160217905550808273ffffffffffffffffffffffffffffffffffffffff16600073ffffffffffffffffffffffffffffffffffffffff167fddf252ad1be2c89b69c2b068fc378daa952ba7f163c4a11628f55a4df523b3ef60405160405180910390a46127f4600083836001613002565b5050565b61280182612fbb565b612840576040517f08c379a000000000000000000000000000000000000000000000000000000000815260040161283790614d0c565b60405180910390fd5b806006600084815260200190815260200160002090816128609190614310565b505050565b60008061287183611243565b90508073ffffffffffffffffffffffffffffffffffffffff168473ffffffffffffffffffffffffffffffffffffffff1614806128b357506128b28185611c7c565b5b806128f157508373ffffffffffffffffffffffffffffffffffffffff166128d9846107e7565b73ffffffffffffffffffffffffffffffffffffffff16145b91505092915050565b8273ffffffffffffffffffffffffffffffffffffffff1661291a82611243565b73ffffffffffffffffffffffffffffffffffffffff1614612970576040517f08c379a000000000000000000000000000000000000000000000000000000000815260040161296790614d9e565b60405180910390fd5b600073ffffffffffffffffffffffffffffffffffffffff168273ffffffffffffffffffffffffffffffffffffffff16036129df576040517f08c379a00000000000000000000000000000000000000000000000000000000081526004016129d690614e30565b60405180910390fd5b6129ec8383836001612ffc565b8273ffffffffffffffffffffffffffffffffffffffff16612a0c82611243565b73ffffffffffffffffffffffffffffffffffffffff1614612a62576040517f08c379a0000000000000000000000000000000000000000000000000000000008152600401612a5990614d9e565b60405180910390fd5b6004600082815260200190815260200160002060006101000a81549073ffffffffffffffffffffffffffffffffffffffff02191690556001600360008573ffffffffffffffffffffffffffffffffffffffff1673ffffffffffffffffffffffffffffffffffffffff168152602001908152602001600020600082825403925050819055506001600360008473ffffffffffffffffffffffffffffffffffffffff1673ffffffffffffffffffffffffffffffffffffffff16815260200190815260200160002060008282540192505081905550816002600083815260200190815260200160002060006101000a81548173ffffffffffffffffffffffffffffffffffffffff021916908373ffffffffffffffffffffffffffffffffffffffff160217905550808273ffffffffffffffffffffffffffffffffffffffff168473ffffffffffffffffffffffffffffffffffffffff167fddf252ad1be2c89b69c2b068fc378daa952ba7f163c4a11628f55a4df523b3ef60405160405180910390a4612bee8383836001613002565b505050565b60006002600083815260200190815260200160002060009054906101000a900473ffffffffffffffffffffffffffffffffffffffff169050919050565b612c386124f6565b73ffffffffffffffffffffffffffffffffffffffff16612c56611394565b73ffffffffffffffffffffffffffffffffffffffff1614612cac576040517f08c379a0000000000000000000000000000000000000000000000000000000008152600401612ca390614e9c565b60405180910390fd5b565b6000600760009054906101000a900473ffffffffffffffffffffffffffffffffffffffff16905081600760006101000a81548173ffffffffffffffffffffffffffffffffffffffff021916908373ffffffffffffffffffffffffffffffffffffffff1602179055508173ffffffffffffffffffffffffffffffffffffffff168173ffffffffffffffffffffffffffffffffffffffff167f8be0079c531659141344cd1fd0a4f28419497f9722a3daafe3b4186f6b6457e060405160405180910390a35050565b8173ffffffffffffffffffffffffffffffffffffffff168373ffffffffffffffffffffffffffffffffffffffff1603612de2576040517f08c379a0000000000000000000000000000000000000000000000000000000008152600401612dd990614f08565b60405180910390fd5b80600560008573ffffffffffffffffffffffffffffffffffffffff1673ffffffffffffffffffffffffffffffffffffffff16815260200190815260200160002060008473ffffffffffffffffffffffffffffffffffffffff1673ffffffffffffffffffffffffffffffffffffffff16815260200190815260200160002060006101000a81548160ff0219169083151502179055508173ffffffffffffffffffffffffffffffffffffffff168373ffffffffffffffffffffffffffffffffffffffff167f17307eab39ab6107e8899845ad3d59bd9653f200f220920489ca2b5937696c3183604051612ed39190613584565b60405180910390a3505050565b612eeb8484846128fa565b612ef784848484613008565b612f36576040517f08c379a0000000000000000000000000000000000000000000000000000000008152600401612f2d90614f9a565b60405180910390fd5b50505050565b606060405180602001604052806000815250905090565b6060612f5e826124ab565b6000612f68612f3c565b90506000815111612f885760405180602001604052806000815250612fb3565b80612f928461318f565b604051602001612fa3929190614844565b6040516020818303038152906040525b915050919050565b60008073ffffffffffffffffffffffffffffffffffffffff16612fdd83612bf3565b73ffffffffffffffffffffffffffffffffffffffff1614159050919050565b50505050565b50505050565b60006130298473ffffffffffffffffffffffffffffffffffffffff1661325d565b15613182578373ffffffffffffffffffffffffffffffffffffffff1663150b7a026130526124f6565b8786866040518563ffffffff1660e01b8152600401613074949392919061500f565b6020604051808303816000875af19250505080156130b057506040513d601f19601f820116820180604052508101906130ad9190615070565b60015b613132573d80600081146130e0576040519150601f19603f3d011682016040523d82523d6000602084013e6130e5565b606091505b50600081510361312a576040517f08c379a000000000000000000000000000000000000000000000000000000000815260040161312190614f9a565b60405180910390fd5b805181602001fd5b63150b7a0260e01b7bffffffffffffffffffffffffffffffffffffffffffffffffffffffff1916817bffffffffffffffffffffffffffffffffffffffffffffffffffffffff191614915050613187565b600190505b949350505050565b60606000600161319e84613280565b01905060008167ffffffffffffffff8111156131bd576131bc6137b3565b5b6040519080825280601f01601f1916602001820160405280156131ef5781602001600182028036833780820191505090505b509050600082602001820190505b600115613252578080600190039150507f3031323334353637383961626364656600000000000000000000000000000000600a86061a8153600a85816132465761324561509d565b5b049450600085036131fd575b819350505050919050565b6000808273ffffffffffffffffffffffffffffffffffffffff163b119050919050565b600080600090507a184f03e93ff9f4daa797ed6e38ed64bf6a1f01000000000000000083106132de577a184f03e93ff9f4daa797ed6e38ed64bf6a1f01000000000000000083816132d4576132d361509d565b5b0492506040810190505b6d04ee2d6d415b85acef8100000000831061331b576d04ee2d6d415b85acef810000000083816133115761331061509d565b5b0492506020810190505b662386f26fc10000831061334a57662386f26fc1000083816133405761333f61509d565b5b0492506010810190505b6305f5e1008310613373576305f5e10083816133695761336861509d565b5b0492506008810190505b612710831061339857612710838161338e5761338d61509d565b5b0492506004810190505b606483106133bb57606483816133b1576133b061509d565b5b0492506002810190505b600a83106133ca576001810190505b80915050919050565b60405180610100016040528060008152602001600073ffffffffffffffffffffffffffffffffffffffff1681526020016060815260200160608152602001600081526020016060815260200160608152602001606081525090565b6040518060a0016040528060008152602001606081526020016000815260200160608152602001600073ffffffffffffffffffffffffffffffffffffffff1681525090565b50805461347f9061400f565b6000825580601f1061349157506134b0565b601f0160209004906000526020600020908101906134af91906134b3565b5b50565b5b808211156134cc5760008160009055506001016134b4565b5090565b6000604051905090565b600080fd5b600080fd5b60007fffffffff0000000000000000000000000000000000000000000000000000000082169050919050565b613519816134e4565b811461352457600080fd5b50565b60008135905061353681613510565b92915050565b600060208284031215613552576135516134da565b5b600061356084828501613527565b91505092915050565b60008115159050919050565b61357e81613569565b82525050565b60006020820190506135996000830184613575565b92915050565b600081519050919050565b600082825260208201905092915050565b60005b838110156135d95780820151818401526020810190506135be565b60008484015250505050565b6000601f19601f8301169050919050565b60006136018261359f565b61360b81856135aa565b935061361b8185602086016135bb565b613624816135e5565b840191505092915050565b6000602082019050818103600083015261364981846135f6565b905092915050565b6000819050919050565b61366481613651565b811461366f57600080fd5b50565b6000813590506136818161365b565b92915050565b60006020828403121561369d5761369c6134da565b5b60006136ab84828501613672565b91505092915050565b600073ffffffffffffffffffffffffffffffffffffffff82169050919050565b60006136df826136b4565b9050919050565b6136ef816136d4565b82525050565b600060208201905061370a60008301846136e6565b92915050565b613719816136d4565b811461372457600080fd5b50565b60008135905061373681613710565b92915050565b60008060408385031215613753576137526134da565b5b600061376185828601613727565b925050602061377285828601613672565b9150509250929050565b600060208284031215613792576137916134da565b5b60006137a084828501613727565b91505092915050565b600080fd5b600080fd5b7f4e487b7100000000000000000000000000000000000000000000000000000000600052604160045260246000fd5b6137eb826135e5565b810181811067ffffffffffffffff8211171561380a576138096137b3565b5b80604052505050565b600061381d6134d0565b905061382982826137e2565b919050565b600067ffffffffffffffff821115613849576138486137b3565b5b613852826135e5565b9050602081019050919050565b82818337600083830152505050565b600061388161387c8461382e565b613813565b90508281526020810184848401111561389d5761389c6137ae565b5b6138a884828561385f565b509392505050565b600082601f8301126138c5576138c46137a9565b5b81356138d584826020860161386e565b91505092915050565b60008060008060008060c087890312156138fb576138fa6134da565b5b600087013567ffffffffffffffff811115613919576139186134df565b5b61392589828a016138b0565b965050602087013567ffffffffffffffff811115613946576139456134df565b5b61395289828a016138b0565b955050604087013567ffffffffffffffff811115613973576139726134df565b5b61397f89828a016138b0565b945050606061399089828a01613672565b935050608087013567ffffffffffffffff8111156139b1576139b06134df565b5b6139bd89828a016138b0565b92505060a087013567ffffffffffffffff8111156139de576139dd6134df565b5b6139ea89828a016138b0565b9150509295509295509295565b613a0081613651565b82525050565b6000602082019050613a1b60008301846139f7565b92915050565b600080600060608486031215613a3a57613a396134da565b5b6000613a4886828701613727565b9350506020613a5986828701613727565b9250506040613a6a86828701613672565b9150509250925092565b613a7d81613651565b82525050565b613a8c816136d4565b82525050565b600082825260208201905092915050565b6000613aae8261359f565b613ab88185613a92565b9350613ac88185602086016135bb565b613ad1816135e5565b840191505092915050565b600061010083016000830151613af56000860182613a74565b506020830151613b086020860182613a83565b5060408301518482036040860152613b208282613aa3565b91505060608301518482036060860152613b3a8282613aa3565b9150506080830151613b4f6080860182613a74565b5060a083015184820360a0860152613b678282613aa3565b91505060c083015184820360c0860152613b818282613aa3565b91505060e083015184820360e0860152613b9b8282613aa3565b9150508091505092915050565b60006020820190508181036000830152613bc28184613adc565b905092915050565b60008060408385031215613be157613be06134da565b5b600083013567ffffffffffffffff811115613bff57613bfe6134df565b5b613c0b858286016138b0565b9250506020613c1c85828601613727565b9150509250929050565b600081519050919050565b600082825260208201905092915050565b6000819050602082019050919050565b600060a083016000830151613c6a6000860182613a74565b5060208301518482036020860152613c828282613aa3565b9150506040830151613c976040860182613a74565b5060608301518482036060860152613caf8282613aa3565b9150506080830151613cc46080860182613a83565b508091505092915050565b6000613cdb8383613c52565b905092915050565b6000602082019050919050565b6000613cfb82613c26565b613d058185613c31565b935083602082028501613d1785613c42565b8060005b85811015613d535784840389528151613d348582613ccf565b9450613d3f83613ce3565b925060208a01995050600181019050613d1b565b50829750879550505050505092915050565b60006020820190508181036000830152613d7f8184613cf0565b905092915050565b613d9081613569565b8114613d9b57600080fd5b50565b600081359050613dad81613d87565b92915050565b60008060408385031215613dca57613dc96134da565b5b6000613dd885828601613727565b9250506020613de985828601613d9e565b9150509250929050565b60008060408385031215613e0a57613e096134da565b5b6000613e1885828601613672565b9250506020613e2985828601613672565b9150509250929050565b600067ffffffffffffffff821115613e4e57613e4d6137b3565b5b613e57826135e5565b9050602081019050919050565b6000613e77613e7284613e33565b613813565b905082815260208101848484011115613e9357613e926137ae565b5b613e9e84828561385f565b509392505050565b600082601f830112613ebb57613eba6137a9565b5b8135613ecb848260208601613e64565b91505092915050565b60008060008060808587031215613eee57613eed6134da565b5b6000613efc87828801613727565b9450506020613f0d87828801613727565b9350506040613f1e87828801613672565b925050606085013567ffffffffffffffff811115613f3f57613f3e6134df565b5b613f4b87828801613ea6565b91505092959194509250565b600060208284031215613f6d57613f6c6134da565b5b600082013567ffffffffffffffff811115613f8b57613f8a6134df565b5b613f97848285016138b0565b91505092915050565b60008060408385031215613fb757613fb66134da565b5b6000613fc585828601613727565b9250506020613fd685828601613727565b9150509250929050565b7f4e487b7100000000000000000000000000000000000000000000000000000000600052602260045260246000fd5b6000600282049050600182168061402757607f821691505b60208210810361403a57614039613fe0565b5b50919050565b7f4552433732313a20617070726f76616c20746f2063757272656e74206f776e6560008201527f7200000000000000000000000000000000000000000000000000000000000000602082015250565b600061409c6021836135aa565b91506140a782614040565b604082019050919050565b600060208201905081810360008301526140cb8161408f565b9050919050565b7f4552433732313a20617070726f76652063616c6c6572206973206e6f7420746f60008201527f6b656e206f776e6572206f7220617070726f76656420666f7220616c6c000000602082015250565b600061412e603d836135aa565b9150614139826140d2565b604082019050919050565b6000602082019050818103600083015261415d81614121565b9050919050565b60008190508160005260206000209050919050565b60006020601f8301049050919050565b600082821b905092915050565b6000600883026141c67fffffffffffffffffffffffffffffffffffffffffffffffffffffffffffffffff82614189565b6141d08683614189565b95508019841693508086168417925050509392505050565b6000819050919050565b600061420d61420861420384613651565b6141e8565b613651565b9050919050565b6000819050919050565b614227836141f2565b61423b61423382614214565b848454614196565b825550505050565b600090565b614250614243565b61425b81848461421e565b505050565b5b8181101561427f57614274600082614248565b600181019050614261565b5050565b601f8211156142c45761429581614164565b61429e84614179565b810160208510156142ad578190505b6142c16142b985614179565b830182614260565b50505b505050565b600082821c905092915050565b60006142e7600019846008026142c9565b1980831691505092915050565b600061430083836142d6565b9150826002028217905092915050565b6143198261359f565b67ffffffffffffffff811115614332576143316137b3565b5b61433c825461400f565b614347828285614283565b600060209050601f83116001811461437a5760008415614368578287015190505b61437285826142f4565b8655506143da565b601f19841661438886614164565b60005b828110156143b05784890151825560018201915060208501945060208101905061438b565b868310156143cd57848901516143c9601f8916826142d6565b8355505b6001600288020188555050505b505050505050565b600081905092915050565b60006143f88261359f565b61440281856143e2565b93506144128185602086016135bb565b80840191505092915050565b600061442a82846143ed565b915081905092915050565b7f416c6c2063617465676f72696573000000000000000000000000000000000000600082015250565b600061446b600e836143e2565b915061447682614435565b600e82019050919050565b600061448c8261445e565b9150819050919050565b7f4552433732313a2063616c6c6572206973206e6f7420746f6b656e206f776e6560008201527f72206f7220617070726f76656400000000000000000000000000000000000000602082015250565b60006144f2602d836135aa565b91506144fd82614496565b604082019050919050565b60006020820190508181036000830152614521816144e5565b9050919050565b7f796f752061726520686f6c646572000000000000000000000000000000000000600082015250565b600061455e600e836135aa565b915061456982614528565b602082019050919050565b6000602082019050818103600083015261458d81614551565b9050919050565b7f6973206e6f7420666f722073616c650000000000000000000000000000000000600082015250565b60006145ca600f836135aa565b91506145d582614594565b602082019050919050565b600060208201905081810360008301526145f9816145bd565b9050919050565b7f4e487b7100000000000000000000000000000000000000000000000000000000600052603260045260246000fd5b7f4e487b7100000000000000000000000000000000000000000000000000000000600052601160045260246000fd5b600061466982613651565b91507fffffffffffffffffffffffffffffffffffffffffffffffffffffffffffffffff820361469b5761469a61462f565b5b600182019050919050565b7f4552433732313a20696e76616c696420746f6b656e2049440000000000000000600082015250565b60006146dc6018836135aa565b91506146e7826146a6565b602082019050919050565b6000602082019050818103600083015261470b816146cf565b9050919050565b7f4552433732313a2061646472657373207a65726f206973206e6f74206120766160008201527f6c6964206f776e65720000000000000000000000000000000000000000000000602082015250565b600061476e6029836135aa565b915061477982614712565b604082019050919050565b6000602082019050818103600083015261479d81614761565b9050919050565b60006147af82613651565b91506147ba83613651565b92508282019050808211156147d2576147d161462f565b5b92915050565b7f73656e646572206973206e6f74206f776e657200000000000000000000000000600082015250565b600061480e6013836135aa565b9150614819826147d8565b602082019050919050565b6000602082019050818103600083015261483d81614801565b9050919050565b600061485082856143ed565b915061485c82846143ed565b91508190509392505050565b7f4f776e61626c653a206e6577206f776e657220697320746865207a65726f206160008201527f6464726573730000000000000000000000000000000000000000000000000000602082015250565b60006148c46026836135aa565b91506148cf82614868565b604082019050919050565b600060208201905081810360008301526148f3816148b7565b9050919050565b7f796f7520617265206e6f7420686f6c6465720000000000000000000000000000600082015250565b60006149306012836135aa565b915061493b826148fa565b602082019050919050565b6000602082019050818103600083015261495f81614923565b9050919050565b600081546149738161400f565b61497d81866143e2565b9450600182166000811461499857600181146149ad576149e0565b60ff19831686528115158202860193506149e0565b6149b685614164565b60005b838110156149d8578154818901526001820191506020810190506149b9565b838801955050505b50505092915050565b60006149f58284614966565b915081905092915050565b6000614a0b82613651565b9150614a1683613651565b9250828203905081811115614a2e57614a2d61462f565b5b92915050565b600081549050614a438161400f565b9050919050565b818103614a58575050614b30565b614a6182614a34565b67ffffffffffffffff811115614a7a57614a796137b3565b5b614a84825461400f565b614a8f828285614283565b6000601f831160018114614abe5760008415614aac578287015490505b614ab685826142f4565b865550614b29565b601f198416614acc87614164565b9650614ad786614164565b60005b82811015614aff57848901548255600182019150600185019450602081019050614ada565b86831015614b1c5784890154614b18601f8916826142d6565b8355505b6001600288020188555050505b5050505050505b565b7f4e487b7100000000000000000000000000000000000000000000000000000000600052603160045260246000fd5b7f616c6c0000000000000000000000000000000000000000000000000000000000600082015250565b6000614b976003836143e2565b9150614ba282614b61565b600382019050919050565b6000614bb882614b8a565b9150819050919050565b7f4552433732313a206d696e7420746f20746865207a65726f2061646472657373600082015250565b6000614bf86020836135aa565b9150614c0382614bc2565b602082019050919050565b60006020820190508181036000830152614c2781614beb565b9050919050565b7f4552433732313a20746f6b656e20616c7265616479206d696e74656400000000600082015250565b6000614c64601c836135aa565b9150614c6f82614c2e565b602082019050919050565b60006020820190508181036000830152614c9381614c57565b9050919050565b7f45524337323155524953746f726167653a2055524920736574206f66206e6f6e60008201527f6578697374656e7420746f6b656e000000000000000000000000000000000000602082015250565b6000614cf6602e836135aa565b9150614d0182614c9a565b604082019050919050565b60006020820190508181036000830152614d2581614ce9565b9050919050565b7f4552433732313a207472616e736665722066726f6d20696e636f72726563742060008201527f6f776e6572000000000000000000000000000000000000000000000000000000602082015250565b6000614d886025836135aa565b9150614d9382614d2c565b604082019050919050565b60006020820190508181036000830152614db781614d7b565b9050919050565b7f4552433732313a207472616e7366657220746f20746865207a65726f2061646460008201527f7265737300000000000000000000000000000000000000000000000000000000602082015250565b6000614e1a6024836135aa565b9150614e2582614dbe565b604082019050919050565b60006020820190508181036000830152614e4981614e0d565b9050919050565b7f4f776e61626c653a2063616c6c6572206973206e6f7420746865206f776e6572600082015250565b6000614e866020836135aa565b9150614e9182614e50565b602082019050919050565b60006020820190508181036000830152614eb581614e79565b9050919050565b7f4552433732313a20617070726f766520746f2063616c6c657200000000000000600082015250565b6000614ef26019836135aa565b9150614efd82614ebc565b602082019050919050565b60006020820190508181036000830152614f2181614ee5565b9050919050565b7f4552433732313a207472616e7366657220746f206e6f6e20455243373231526560008201527f63656976657220696d706c656d656e7465720000000000000000000000000000602082015250565b6000614f846032836135aa565b9150614f8f82614f28565b604082019050919050565b60006020820190508181036000830152614fb381614f77565b9050919050565b600081519050919050565b600082825260208201905092915050565b6000614fe182614fba565b614feb8185614fc5565b9350614ffb8185602086016135bb565b615004816135e5565b840191505092915050565b600060808201905061502460008301876136e6565b61503160208301866136e6565b61503e60408301856139f7565b81810360608301526150508184614fd6565b905095945050505050565b60008151905061506a81613510565b92915050565b600060208284031215615086576150856134da565b5b60006150948482850161505b565b91505092915050565b7f4e487b7100000000000000000000000000000000000000000000000000000000600052601260045260246000fdfea2646970667358221220748aef27e1e4465f463dd2181d050cd16dbd7719850eaea69598ded87e76a17d64736f6c63430008130033",
  "immutableReferences": {},
  "source": "// SPDX-License-Identifier: MIT\npragma solidity >=0.4.22 <0.9.0;\n\nimport \"@openzeppelin/contracts/token/ERC721/ERC721.sol\";\nimport \"@openzeppelin/contracts/utils/Counters.sol\";\nimport \"@openzeppelin/contracts/access/Ownable.sol\";\nimport \"@openzeppelin/contracts/token/ERC721/extensions/ERC721URIStorage.sol\";\n\n//  price   getPrice  \n//   _tokenId   \n\n// openzeppelin ERC721   ERC721URIStorage \n// ERC721 == NFT\ncontract MyNFT is ERC721URIStorage, Ownable {\n\n    struct DetailOfNFT{\n        uint tokenId;\n        address owner;\n        string tokenURI;\n        string imageName;\n        uint price;\n        string released;\n        string emotion;\n        string description;\n    }\n\n    struct NFT{\n        uint tokenId;\n        string imageName;\n        uint price;\n        string released;\n        string emotion;\n        string description;\n    }\n\n    struct ShortNFT{\n        uint tokenId;\n        string tokenURI;\n    \tuint price;\n        string released;\n        address owner;\n    }\n\n\t//      \n    using Counters for Counters.Counter;\n    Counters.Counter private _tokenIds;\n\n    mapping(address => uint[]) HoldersList;\n    mapping(uint => NFT) ListOfNft;\n    mapping(address => string) AddressToNickname;\n    mapping(string => address) NicknameToAddress;\n    mapping(string => NFT[]) NftByEmotion;\n\n\n    constructor () ERC721(\"MyNFT\", \"NFT\") {}\n\n    function mintNFT(string memory _tokenURI, string memory _released, string memory _imageName, uint _price, string memory _emotion,string memory _description) public returns (uint256) {\n        _tokenIds.increment();\n        uint256 newItemId = _tokenIds.current();\n\n\n        _mint(msg.sender, newItemId);\n        _setTokenURI(newItemId, _tokenURI);\n\n        HoldersList[msg.sender].push(newItemId);\n        NFT memory _mintedNFT = NFT(newItemId, _imageName, _price, _released, _emotion, _description);\n        //ListOfNft[newItemId] = NFT(newItemId, _imageName, _price, _released);\n        ListOfNft[newItemId] = _mintedNFT;\n        NftByEmotion[_emotion].push(_mintedNFT);\n        NftByEmotion[\"All categories\"].push(_mintedNFT);\n        \n\n        //ListOfNft[newItemId] = NFT(_released, newItemId, _imageName, msg.sender, _price, _tokenURI);\n\n        return newItemId;\n    }\n\n    function deleteNFT(uint _tokenId) public {\n        require(ownerOf(_tokenId) == msg.sender, 'you are not holder');\n        ListOfNft[_tokenId].tokenId = 0;\n        uint _tokenIdxInEmotion;\n\n        for(uint i = 0; i < NftByEmotion[ListOfNft[_tokenId].emotion].length; i++){\n            if(NftByEmotion[ListOfNft[_tokenId].emotion][i].tokenId == _tokenId){\n                _tokenIdxInEmotion = i;\n            }\n        }\n\n        for(uint i = _tokenIdxInEmotion; i <NftByEmotion[ListOfNft[_tokenId].emotion].length-1; i++){\n          NftByEmotion[ListOfNft[_tokenId].emotion][i] = NftByEmotion[ListOfNft[_tokenId].emotion][i+1];\n        }\n\n        NftByEmotion[ListOfNft[_tokenId].emotion].pop();\n\n        for(uint i = 0; i < NftByEmotion[\"all\"].length; i++){\n            if(NftByEmotion[\"all\"][i].tokenId == _tokenId){\n                _tokenIdxInEmotion = i;\n            }\n        }\n\n        for(uint i = _tokenIdxInEmotion; i <NftByEmotion[\"all\"].length-1; i++){\n          NftByEmotion[\"all\"][i] = NftByEmotion[\"all\"][i+1];\n        }\n\n        NftByEmotion[\"all\"].pop();\n    }\n\n    function getList(string memory _emotion, address _who) public view returns(ShortNFT[] memory){\n        ShortNFT[] memory tmpresult = new ShortNFT[](NftByEmotion[_emotion].length);\n        ShortNFT[] memory result;\n        uint _count = 0;\n\n        if(_who == address(0)){\n            for(uint i = 0; i < NftByEmotion[_emotion].length; i++){\n                uint _tokenId = NftByEmotion[_emotion][i].tokenId;\n                tmpresult[_count] = ShortNFT(_tokenId, tokenURI(_tokenId), ListOfNft[_tokenId].price, ListOfNft[_tokenId].released, ownerOf(_tokenId));\n                _count += 1;\n            }\n        }else{\n            for(uint i = 0; i < NftByEmotion[_emotion].length; i++){\n                uint _tokenId = NftByEmotion[_emotion][i].tokenId;\n                if(ownerOf(_tokenId) == _who){\n                    tmpresult[_count] = ShortNFT(_tokenId, tokenURI(_tokenId), ListOfNft[_tokenId].price, ListOfNft[_tokenId].released, ownerOf(_tokenId));\n                    _count += 1;\n                }\n            }\n        }\n        result = new ShortNFT[](_count);\n        for(uint i = 0; i < _count; i++){\n            result[i] = tmpresult[i];\n        }\n\n        return result;\n    }\n\t\n    function checkAddress(address _who) view public{\n\n    }\n\n    function getDetailOfNft(uint _tokenId) public view returns(DetailOfNFT memory){\n        NFT memory selectedNft = ListOfNft[_tokenId];\n        DetailOfNFT memory result = DetailOfNFT(_tokenId, ownerOf(_tokenId), tokenURI(_tokenId), selectedNft.imageName, selectedNft.price, selectedNft.released, selectedNft.emotion, selectedNft.description);\n        return result;\n    }\n\n    function changePrice(uint _tokenId, uint _price) public {\n        require(msg.sender == ownerOf(_tokenId), 'sender is not owner');\n        ListOfNft[_tokenId].price = _price;\n    }\n\n    function buyNFT(uint _tokenId) public payable{\n        address seller = ownerOf(_tokenId);\n        // \n        require(seller != msg.sender, 'you are holder');\n        //   0eth \n        require(ListOfNft[_tokenId].price != 0, 'is not for sale');\n       // require(msg.value == ListOfNft[_tokenId].price, 'not right price');\n        \n        //\n        payable(seller).transfer(msg.value);\n        //\n        _transfer(seller, msg.sender, _tokenId);\n        //ListOfNft[_tokenId].owner = msg.sender;\n\n        for(uint i = 0; i < HoldersList[seller].length; i++){\n            if(HoldersList[seller][i] == _tokenId){\n                delete HoldersList[seller][i];\n                HoldersList[msg.sender].push(_tokenId);\n            }\n        }\n    }\n\n    function convertNickToAddr(string memory _who) public view returns(address){\n    \treturn NicknameToAddress[_who];\n    }\n\n    function getNickName(address _who) public view returns(string memory){\n\t    string memory _nickname = AddressToNickname[_who];\n\t    return _nickname;\n    }\n    \n    function setNickName(string memory _nickname) public{\n    \tAddressToNickname[msg.sender] = _nickname;\n\t    NicknameToAddress[_nickname] = msg.sender;\n    }\n}\n\n\n",
  "sourcePath": "/home/ubuntu/NFTContract/contracts/MyNFT.sol",
  "compiler": {
    "name": "solc",
    "version": "0.8.19+commit.7dd6d404.Emscripten.clang"
  },
  "schemaVersion": "3.4.13",
  "updatedAt": "2023-05-24T16:48:33.214Z",
  "networkType": "ethereum",
  "devdoc": {
    "events": {
      "Approval(address,address,uint256)": {
        "details": "Emitted when `owner` enables `approved` to manage the `tokenId` token."
      },
      "ApprovalForAll(address,address,bool)": {
        "details": "Emitted when `owner` enables or disables (`approved`) `operator` to manage all of its assets."
      },
      "Transfer(address,address,uint256)": {
        "details": "Emitted when `tokenId` token is transferred from `from` to `to`."
      }
    },
    "kind": "dev",
    "methods": {
      "approve(address,uint256)": {
        "details": "See {IERC721-approve}."
      },
      "balanceOf(address)": {
        "details": "See {IERC721-balanceOf}."
      },
      "getApproved(uint256)": {
        "details": "See {IERC721-getApproved}."
      },
      "isApprovedForAll(address,address)": {
        "details": "See {IERC721-isApprovedForAll}."
      },
      "name()": {
        "details": "See {IERC721Metadata-name}."
      },
      "owner()": {
        "details": "Returns the address of the current owner."
      },
      "ownerOf(uint256)": {
        "details": "See {IERC721-ownerOf}."
      },
      "renounceOwnership()": {
        "details": "Leaves the contract without owner. It will not be possible to call `onlyOwner` functions anymore. Can only be called by the current owner. NOTE: Renouncing ownership will leave the contract without an owner, thereby removing any functionality that is only available to the owner."
      },
      "safeTransferFrom(address,address,uint256)": {
        "details": "See {IERC721-safeTransferFrom}."
      },
      "safeTransferFrom(address,address,uint256,bytes)": {
        "details": "See {IERC721-safeTransferFrom}."
      },
      "setApprovalForAll(address,bool)": {
        "details": "See {IERC721-setApprovalForAll}."
      },
      "supportsInterface(bytes4)": {
        "details": "See {IERC165-supportsInterface}."
      },
      "symbol()": {
        "details": "See {IERC721Metadata-symbol}."
      },
      "tokenURI(uint256)": {
        "details": "See {IERC721Metadata-tokenURI}."
      },
      "transferFrom(address,address,uint256)": {
        "details": "See {IERC721-transferFrom}."
      },
      "transferOwnership(address)": {
        "details": "Transfers ownership of the contract to a new account (`newOwner`). Can only be called by the current owner."
      }
    },
    "version": 1
  },
  "userdoc": {
    "kind": "user",
    "methods": {},
    "version": 1
  }
}