{
  "contractName": "MyNFT",
  "abi": [
    {
      "inputs": [],
      "stateMutability": "nonpayable",
      "type": "constructor"
    },
    {
      "anonymous": false,
      "inputs": [
        {
          "indexed": true,
          "internalType": "address",
          "name": "owner",
          "type": "address"
        },
        {
          "indexed": true,
          "internalType": "address",
          "name": "approved",
          "type": "address"
        },
        {
          "indexed": true,
          "internalType": "uint256",
          "name": "tokenId",
          "type": "uint256"
        }
      ],
      "name": "Approval",
      "type": "event"
    },
    {
      "anonymous": false,
      "inputs": [
        {
          "indexed": true,
          "internalType": "address",
          "name": "owner",
          "type": "address"
        },
        {
          "indexed": true,
          "internalType": "address",
          "name": "operator",
          "type": "address"
        },
        {
          "indexed": false,
          "internalType": "bool",
          "name": "approved",
          "type": "bool"
        }
      ],
      "name": "ApprovalForAll",
      "type": "event"
    },
    {
      "anonymous": false,
      "inputs": [
        {
          "indexed": true,
          "internalType": "address",
          "name": "previousOwner",
          "type": "address"
        },
        {
          "indexed": true,
          "internalType": "address",
          "name": "newOwner",
          "type": "address"
        }
      ],
      "name": "OwnershipTransferred",
      "type": "event"
    },
    {
      "anonymous": false,
      "inputs": [
        {
          "indexed": true,
          "internalType": "address",
          "name": "from",
          "type": "address"
        },
        {
          "indexed": true,
          "internalType": "address",
          "name": "to",
          "type": "address"
        },
        {
          "indexed": true,
          "internalType": "uint256",
          "name": "tokenId",
          "type": "uint256"
        }
      ],
      "name": "Transfer",
      "type": "event"
    },
    {
      "inputs": [
        {
          "internalType": "address",
          "name": "to",
          "type": "address"
        },
        {
          "internalType": "uint256",
          "name": "tokenId",
          "type": "uint256"
        }
      ],
      "name": "approve",
      "outputs": [],
      "stateMutability": "nonpayable",
      "type": "function"
    },
    {
      "inputs": [
        {
          "internalType": "address",
          "name": "owner",
          "type": "address"
        }
      ],
      "name": "balanceOf",
      "outputs": [
        {
          "internalType": "uint256",
          "name": "",
          "type": "uint256"
        }
      ],
      "stateMutability": "view",
      "type": "function",
      "constant": true
    },
    {
      "inputs": [
        {
          "internalType": "uint256",
          "name": "tokenId",
          "type": "uint256"
        }
      ],
      "name": "getApproved",
      "outputs": [
        {
          "internalType": "address",
          "name": "",
          "type": "address"
        }
      ],
      "stateMutability": "view",
      "type": "function",
      "constant": true
    },
    {
      "inputs": [
        {
          "internalType": "address",
          "name": "owner",
          "type": "address"
        },
        {
          "internalType": "address",
          "name": "operator",
          "type": "address"
        }
      ],
      "name": "isApprovedForAll",
      "outputs": [
        {
          "internalType": "bool",
          "name": "",
          "type": "bool"
        }
      ],
      "stateMutability": "view",
      "type": "function",
      "constant": true
    },
    {
      "inputs": [],
      "name": "name",
      "outputs": [
        {
          "internalType": "string",
          "name": "",
          "type": "string"
        }
      ],
      "stateMutability": "view",
      "type": "function",
      "constant": true
    },
    {
      "inputs": [],
      "name": "owner",
      "outputs": [
        {
          "internalType": "address",
          "name": "",
          "type": "address"
        }
      ],
      "stateMutability": "view",
      "type": "function",
      "constant": true
    },
    {
      "inputs": [
        {
          "internalType": "uint256",
          "name": "tokenId",
          "type": "uint256"
        }
      ],
      "name": "ownerOf",
      "outputs": [
        {
          "internalType": "address",
          "name": "",
          "type": "address"
        }
      ],
      "stateMutability": "view",
      "type": "function",
      "constant": true
    },
    {
      "inputs": [],
      "name": "renounceOwnership",
      "outputs": [],
      "stateMutability": "nonpayable",
      "type": "function"
    },
    {
      "inputs": [
        {
          "internalType": "address",
          "name": "from",
          "type": "address"
        },
        {
          "internalType": "address",
          "name": "to",
          "type": "address"
        },
        {
          "internalType": "uint256",
          "name": "tokenId",
          "type": "uint256"
        }
      ],
      "name": "safeTransferFrom",
      "outputs": [],
      "stateMutability": "nonpayable",
      "type": "function"
    },
    {
      "inputs": [
        {
          "internalType": "address",
          "name": "from",
          "type": "address"
        },
        {
          "internalType": "address",
          "name": "to",
          "type": "address"
        },
        {
          "internalType": "uint256",
          "name": "tokenId",
          "type": "uint256"
        },
        {
          "internalType": "bytes",
          "name": "data",
          "type": "bytes"
        }
      ],
      "name": "safeTransferFrom",
      "outputs": [],
      "stateMutability": "nonpayable",
      "type": "function"
    },
    {
      "inputs": [
        {
          "internalType": "address",
          "name": "operator",
          "type": "address"
        },
        {
          "internalType": "bool",
          "name": "approved",
          "type": "bool"
        }
      ],
      "name": "setApprovalForAll",
      "outputs": [],
      "stateMutability": "nonpayable",
      "type": "function"
    },
    {
      "inputs": [
        {
          "internalType": "bytes4",
          "name": "interfaceId",
          "type": "bytes4"
        }
      ],
      "name": "supportsInterface",
      "outputs": [
        {
          "internalType": "bool",
          "name": "",
          "type": "bool"
        }
      ],
      "stateMutability": "view",
      "type": "function",
      "constant": true
    },
    {
      "inputs": [],
      "name": "symbol",
      "outputs": [
        {
          "internalType": "string",
          "name": "",
          "type": "string"
        }
      ],
      "stateMutability": "view",
      "type": "function",
      "constant": true
    },
    {
      "inputs": [
        {
          "internalType": "uint256",
          "name": "tokenId",
          "type": "uint256"
        }
      ],
      "name": "tokenURI",
      "outputs": [
        {
          "internalType": "string",
          "name": "",
          "type": "string"
        }
      ],
      "stateMutability": "view",
      "type": "function",
      "constant": true
    },
    {
      "inputs": [
        {
          "internalType": "address",
          "name": "from",
          "type": "address"
        },
        {
          "internalType": "address",
          "name": "to",
          "type": "address"
        },
        {
          "internalType": "uint256",
          "name": "tokenId",
          "type": "uint256"
        }
      ],
      "name": "transferFrom",
      "outputs": [],
      "stateMutability": "nonpayable",
      "type": "function"
    },
    {
      "inputs": [
        {
          "internalType": "address",
          "name": "newOwner",
          "type": "address"
        }
      ],
      "name": "transferOwnership",
      "outputs": [],
      "stateMutability": "nonpayable",
      "type": "function"
    },
    {
      "inputs": [
        {
          "internalType": "string",
          "name": "_tokenURI",
          "type": "string"
        },
        {
          "internalType": "string",
          "name": "_released",
          "type": "string"
        },
        {
          "internalType": "string",
          "name": "_imageName",
          "type": "string"
        },
        {
          "internalType": "uint256",
          "name": "_price",
          "type": "uint256"
        }
      ],
      "name": "mintNFT",
      "outputs": [
        {
          "internalType": "uint256",
          "name": "",
          "type": "uint256"
        }
      ],
      "stateMutability": "nonpayable",
      "type": "function"
    },
    {
      "inputs": [],
      "name": "getAllNFT",
      "outputs": [
        {
          "components": [
            {
              "internalType": "uint256",
              "name": "tokenId",
              "type": "uint256"
            },
            {
              "internalType": "string",
              "name": "tokenURI",
              "type": "string"
            },
            {
              "internalType": "uint256",
              "name": "price",
              "type": "uint256"
            }
          ],
          "internalType": "struct MyNFT.ShortNFT[]",
          "name": "",
          "type": "tuple[]"
        }
      ],
      "stateMutability": "view",
      "type": "function",
      "constant": true
    },
    {
      "inputs": [
        {
          "internalType": "uint256",
          "name": "_startIdx",
          "type": "uint256"
        },
        {
          "internalType": "uint256",
          "name": "_endIdx",
          "type": "uint256"
        }
      ],
      "name": "getListShortNFT",
      "outputs": [
        {
          "components": [
            {
              "internalType": "uint256",
              "name": "tokenId",
              "type": "uint256"
            },
            {
              "internalType": "string",
              "name": "tokenURI",
              "type": "string"
            },
            {
              "internalType": "uint256",
              "name": "price",
              "type": "uint256"
            }
          ],
          "internalType": "struct MyNFT.ShortNFT[]",
          "name": "",
          "type": "tuple[]"
        }
      ],
      "stateMutability": "view",
      "type": "function",
      "constant": true
    },
    {
      "inputs": [
        {
          "internalType": "string",
          "name": "_who",
          "type": "string"
        }
      ],
      "name": "getListHolder",
      "outputs": [
        {
          "components": [
            {
              "internalType": "uint256",
              "name": "tokenId",
              "type": "uint256"
            },
            {
              "internalType": "string",
              "name": "tokenURI",
              "type": "string"
            },
            {
              "internalType": "uint256",
              "name": "price",
              "type": "uint256"
            }
          ],
          "internalType": "struct MyNFT.ShortNFT[]",
          "name": "",
          "type": "tuple[]"
        }
      ],
      "stateMutability": "view",
      "type": "function",
      "constant": true
    },
    {
      "inputs": [
        {
          "internalType": "string",
          "name": "_who",
          "type": "string"
        }
      ],
      "name": "nicknameConverAddress",
      "outputs": [
        {
          "internalType": "address",
          "name": "",
          "type": "address"
        }
      ],
      "stateMutability": "view",
      "type": "function",
      "constant": true
    },
    {
      "inputs": [
        {
          "internalType": "string",
          "name": "addressString",
          "type": "string"
        }
      ],
      "name": "isValidAddress",
      "outputs": [
        {
          "internalType": "bool",
          "name": "",
          "type": "bool"
        }
      ],
      "stateMutability": "pure",
      "type": "function",
      "constant": true
    },
    {
      "inputs": [
        {
          "internalType": "uint256",
          "name": "_tokenId",
          "type": "uint256"
        }
      ],
      "name": "getDetailOfNft",
      "outputs": [
        {
          "components": [
            {
              "internalType": "uint256",
              "name": "tokenId",
              "type": "uint256"
            },
            {
              "internalType": "address",
              "name": "owner",
              "type": "address"
            },
            {
              "internalType": "string",
              "name": "tokenURI",
              "type": "string"
            },
            {
              "internalType": "string",
              "name": "imageName",
              "type": "string"
            },
            {
              "internalType": "uint256",
              "name": "price",
              "type": "uint256"
            },
            {
              "internalType": "string",
              "name": "released",
              "type": "string"
            }
          ],
          "internalType": "struct MyNFT.DetailOfNFT",
          "name": "",
          "type": "tuple"
        }
      ],
      "stateMutability": "view",
      "type": "function",
      "constant": true
    },
    {
      "inputs": [],
      "name": "getNFTId",
      "outputs": [
        {
          "internalType": "uint256",
          "name": "",
          "type": "uint256"
        }
      ],
      "stateMutability": "view",
      "type": "function",
      "constant": true
    },
    {
      "inputs": [
        {
          "internalType": "uint256",
          "name": "_tokenId",
          "type": "uint256"
        },
        {
          "internalType": "uint256",
          "name": "_price",
          "type": "uint256"
        }
      ],
      "name": "changePrice",
      "outputs": [],
      "stateMutability": "nonpayable",
      "type": "function"
    },
    {
      "inputs": [
        {
          "internalType": "uint256",
          "name": "_tokenId",
          "type": "uint256"
        }
      ],
      "name": "buyNFT",
      "outputs": [],
      "stateMutability": "payable",
      "type": "function",
      "payable": true
    },
    {
      "inputs": [
        {
          "internalType": "address",
          "name": "_who",
          "type": "address"
        }
      ],
      "name": "getNickName",
      "outputs": [
        {
          "internalType": "string",
          "name": "",
          "type": "string"
        }
      ],
      "stateMutability": "view",
      "type": "function",
      "constant": true
    },
    {
      "inputs": [
        {
          "internalType": "string",
          "name": "_nickname",
          "type": "string"
        }
      ],
      "name": "setNickName",
      "outputs": [],
      "stateMutability": "nonpayable",
      "type": "function"
    }
  ],
  "bytecode": "0x60806040523480156200001157600080fd5b506040518060400160405280600581526020017f4d794e46540000000000000000000000000000000000000000000000000000008152506040518060400160405280600381526020017f4e4654000000000000000000000000000000000000000000000000000000000081525081600090816200008f919062000412565b508060019081620000a1919062000412565b505050620000c4620000b8620000ca60201b60201c565b620000d260201b60201c565b620004f9565b600033905090565b6000600760009054906101000a900473ffffffffffffffffffffffffffffffffffffffff16905081600760006101000a81548173ffffffffffffffffffffffffffffffffffffffff021916908373ffffffffffffffffffffffffffffffffffffffff1602179055508173ffffffffffffffffffffffffffffffffffffffff168173ffffffffffffffffffffffffffffffffffffffff167f8be0079c531659141344cd1fd0a4f28419497f9722a3daafe3b4186f6b6457e060405160405180910390a35050565b600081519050919050565b7f4e487b7100000000000000000000000000000000000000000000000000000000600052604160045260246000fd5b7f4e487b7100000000000000000000000000000000000000000000000000000000600052602260045260246000fd5b600060028204905060018216806200021a57607f821691505b60208210810362000230576200022f620001d2565b5b50919050565b60008190508160005260206000209050919050565b60006020601f8301049050919050565b600082821b905092915050565b6000600883026200029a7fffffffffffffffffffffffffffffffffffffffffffffffffffffffffffffffff826200025b565b620002a686836200025b565b95508019841693508086168417925050509392505050565b6000819050919050565b6000819050919050565b6000620002f3620002ed620002e784620002be565b620002c8565b620002be565b9050919050565b6000819050919050565b6200030f83620002d2565b620003276200031e82620002fa565b84845462000268565b825550505050565b600090565b6200033e6200032f565b6200034b81848462000304565b505050565b5b8181101562000373576200036760008262000334565b60018101905062000351565b5050565b601f821115620003c2576200038c8162000236565b62000397846200024b565b81016020851015620003a7578190505b620003bf620003b6856200024b565b83018262000350565b50505b505050565b600082821c905092915050565b6000620003e760001984600802620003c7565b1980831691505092915050565b6000620004028383620003d4565b9150826002028217905092915050565b6200041d8262000198565b67ffffffffffffffff811115620004395762000438620001a3565b5b62000445825462000201565b6200045282828562000377565b600060209050601f8311600181146200048a576000841562000475578287015190505b620004818582620003f4565b865550620004f1565b601f1984166200049a8662000236565b60005b82811015620004c4578489015182556001820191506020850194506020810190506200049d565b86831015620004e45784890151620004e0601f891682620003d4565b8355505b6001600288020188555050505b505050505050565b61449780620005096000396000f3fe6080604052600436106101b75760003560e01c8063715018a6116100ec578063c73ea3671161008a578063ead0327d11610064578063ead0327d14610659578063f014cbf814610696578063f2fde38b146106d3578063f3b1633d146106fc576101b7565b8063c73ea367146105b6578063c87b56dd146105df578063e985e9c51461061c576101b7565b8063a22cb465116100c6578063a22cb46514610510578063a2c7fc5414610539578063b3de019c14610564578063b88d4fde1461058d576101b7565b8063715018a6146104a35780638da5cb5b146104ba57806395d89b41146104e5576101b7565b8063345a98c41161015957806351ed82881161013357806351ed8288146103d05780636352211e146103ec5780636f5db7151461042957806370a0823114610466576101b7565b8063345a98c41461032d57806342842e0e1461036a578063444d142314610393576101b7565b8063095ea7b311610195578063095ea7b31461026157806323b1b1391461028a57806323b872dd146102c7578063335b08ba146102f0576101b7565b806301ffc9a7146101bc57806306fdde03146101f9578063081812fc14610224575b600080fd5b3480156101c857600080fd5b506101e360048036038101906101de9190612c2a565b610727565b6040516101f09190612c72565b60405180910390f35b34801561020557600080fd5b5061020e610809565b60405161021b9190612d1d565b60405180910390f35b34801561023057600080fd5b5061024b60048036038101906102469190612d75565b61089b565b6040516102589190612de3565b60405180910390f35b34801561026d57600080fd5b5061028860048036038101906102839190612e2a565b6108e1565b005b34801561029657600080fd5b506102b160048036038101906102ac9190612f9f565b6109f8565b6040516102be9190613153565b60405180910390f35b3480156102d357600080fd5b506102ee60048036038101906102e99190613175565b610c01565b005b3480156102fc57600080fd5b5061031760048036038101906103129190612f9f565b610c61565b6040516103249190612c72565b60405180910390f35b34801561033957600080fd5b50610354600480360381019061034f91906131c8565b610cc8565b6040516103619190613292565b60405180910390f35b34801561037657600080fd5b50610391600480360381019061038c9190613175565b610ddf565b005b34801561039f57600080fd5b506103ba60048036038101906103b59190612d75565b610dff565b6040516103c79190613353565b60405180910390f35b6103ea60048036038101906103e59190612d75565b610fce565b005b3480156103f857600080fd5b50610413600480360381019061040e9190612d75565b611281565b6040516104209190612de3565b60405180910390f35b34801561043557600080fd5b50610450600480360381019061044b9190613375565b611307565b60405161045d9190613153565b60405180910390f35b34801561047257600080fd5b5061048d600480360381019061048891906133b5565b611405565b60405161049a9190613292565b60405180910390f35b3480156104af57600080fd5b506104b86114bc565b005b3480156104c657600080fd5b506104cf6114d0565b6040516104dc9190612de3565b60405180910390f35b3480156104f157600080fd5b506104fa6114fa565b6040516105079190612d1d565b60405180910390f35b34801561051c57600080fd5b506105376004803603810190610532919061340e565b61158c565b005b34801561054557600080fd5b5061054e6115a2565b60405161055b9190613292565b60405180910390f35b34801561057057600080fd5b5061058b60048036038101906105869190613375565b6115b8565b005b34801561059957600080fd5b506105b460048036038101906105af91906134ef565b61164d565b005b3480156105c257600080fd5b506105dd60048036038101906105d89190612f9f565b6116af565b005b3480156105eb57600080fd5b5061060660048036038101906106019190612d75565b61175c565b6040516106139190612d1d565b60405180910390f35b34801561062857600080fd5b50610643600480360381019061063e9190613572565b61186e565b6040516106509190612c72565b60405180910390f35b34801561066557600080fd5b50610680600480360381019061067b91906133b5565b611902565b60405161068d9190612d1d565b60405180910390f35b3480156106a257600080fd5b506106bd60048036038101906106b89190612f9f565b6119d9565b6040516106ca9190612de3565b60405180910390f35b3480156106df57600080fd5b506106fa60048036038101906106f591906133b5565b611a44565b005b34801561070857600080fd5b50610711611ac7565b60405161071e9190613153565b60405180910390f35b60007f80ac58cd000000000000000000000000000000000000000000000000000000007bffffffffffffffffffffffffffffffffffffffffffffffffffffffff1916827bffffffffffffffffffffffffffffffffffffffffffffffffffffffff191614806107f257507f5b5e139f000000000000000000000000000000000000000000000000000000007bffffffffffffffffffffffffffffffffffffffffffffffffffffffff1916827bffffffffffffffffffffffffffffffffffffffffffffffffffffffff1916145b80610802575061080182611bbf565b5b9050919050565b606060008054610818906135e1565b80601f0160208091040260200160405190810160405280929190818152602001828054610844906135e1565b80156108915780601f1061086657610100808354040283529160200191610891565b820191906000526020600020905b81548152906001019060200180831161087457829003601f168201915b5050505050905090565b60006108a682611c29565b6004600083815260200190815260200160002060009054906101000a900473ffffffffffffffffffffffffffffffffffffffff169050919050565b60006108ec82611281565b90508073ffffffffffffffffffffffffffffffffffffffff168373ffffffffffffffffffffffffffffffffffffffff160361095c576040517f08c379a000000000000000000000000000000000000000000000000000000000815260040161095390613684565b60405180910390fd5b8073ffffffffffffffffffffffffffffffffffffffff1661097b611c74565b73ffffffffffffffffffffffffffffffffffffffff1614806109aa57506109a9816109a4611c74565b61186e565b5b6109e9576040517f08c379a00000000000000000000000000000000000000000000000000000000081526004016109e090613716565b60405180910390fd5b6109f38383611c7c565b505050565b60606000610a0583610c61565b15610a1e5782610a149061379f565b60601c9050610a60565b600c83604051610a2e9190613842565b908152602001604051809103902060009054906101000a900473ffffffffffffffffffffffffffffffffffffffff1690505b6000600960008373ffffffffffffffffffffffffffffffffffffffff1673ffffffffffffffffffffffffffffffffffffffff16815260200190815260200160002080549050905060008167ffffffffffffffff811115610ac357610ac2612e74565b5b604051908082528060200260200182016040528015610afc57816020015b610ae9612b51565b815260200190600190039081610ae15790505b50905060005b82811015610bf5576000600960008673ffffffffffffffffffffffffffffffffffffffff1673ffffffffffffffffffffffffffffffffffffffff1681526020019081526020016000208281548110610b5d57610b5c613859565b5b9060005260206000200154905060008114610be1576040518060600160405280828152602001610b8c8361175c565b8152602001600a6000848152602001908152602001600020600201548152508383600187610bba91906138b7565b610bc491906138b7565b81518110610bd557610bd4613859565b5b60200260200101819052505b508080610bed906138eb565b915050610b02565b50809350505050919050565b610c12610c0c611c74565b82611d35565b610c51576040517f08c379a0000000000000000000000000000000000000000000000000000000008152600401610c48906139a5565b60405180910390fd5b610c5c838383611dca565b505050565b600080829050602a815114610c7a576000915050610cc3565b600081610c869061379f565b9050600060601b6bffffffffffffffffffffffff1916816bffffffffffffffffffffffff191603610cbc57600092505050610cc3565b6001925050505b919050565b6000610cd460086120c3565b6000610ce060086120d9565b9050610cec33826120e7565b610cf68187612304565b600960003373ffffffffffffffffffffffffffffffffffffffff1673ffffffffffffffffffffffffffffffffffffffff168152602001908152602001600020819080600181540180825580915050600190039060005260206000200160009091909190915055604051806080016040528082815260200185815260200184815260200186815250600a6000838152602001908152602001600020600082015181600001556020820151816001019081610daf9190613b64565b50604082015181600201556060820151816003019081610dcf9190613b64565b5090505080915050949350505050565b610dfa8383836040518060200160405280600081525061164d565b505050565b610e07612b72565b6000600a600084815260200190815260200160002060405180608001604052908160008201548152602001600182018054610e41906135e1565b80601f0160208091040260200160405190810160405280929190818152602001828054610e6d906135e1565b8015610eba5780601f10610e8f57610100808354040283529160200191610eba565b820191906000526020600020905b815481529060010190602001808311610e9d57829003601f168201915b5050505050815260200160028201548152602001600382018054610edd906135e1565b80601f0160208091040260200160405190810160405280929190818152602001828054610f09906135e1565b8015610f565780601f10610f2b57610100808354040283529160200191610f56565b820191906000526020600020905b815481529060010190602001808311610f3957829003601f168201915b505050505081525050905060006040518060c00160405280858152602001610f7d86611281565b73ffffffffffffffffffffffffffffffffffffffff168152602001610fa18661175c565b81526020018360200151815260200183604001518152602001836060015181525090508092505050919050565b6000610fd982611281565b90503373ffffffffffffffffffffffffffffffffffffffff168173ffffffffffffffffffffffffffffffffffffffff1603611049576040517f08c379a000000000000000000000000000000000000000000000000000000000815260040161104090613c82565b60405180910390fd5b6000600a600084815260200190815260200160002060020154036110a2576040517f08c379a000000000000000000000000000000000000000000000000000000000815260040161109990613cee565b60405180910390fd5b8073ffffffffffffffffffffffffffffffffffffffff166108fc349081150290604051600060405180830381858888f193505050501580156110e8573d6000803e3d6000fd5b506110f4813384611dca565b60005b600960008373ffffffffffffffffffffffffffffffffffffffff1673ffffffffffffffffffffffffffffffffffffffff1681526020019081526020016000208054905081101561127c5782600960008473ffffffffffffffffffffffffffffffffffffffff1673ffffffffffffffffffffffffffffffffffffffff168152602001908152602001600020828154811061119357611192613859565b5b90600052602060002001540361126957600960008373ffffffffffffffffffffffffffffffffffffffff1673ffffffffffffffffffffffffffffffffffffffff16815260200190815260200160002081815481106111f4576111f3613859565b5b9060005260206000200160009055600960003373ffffffffffffffffffffffffffffffffffffffff1673ffffffffffffffffffffffffffffffffffffffff1681526020019081526020016000208390806001815401808255809150506001900390600052602060002001600090919091909150555b8080611274906138eb565b9150506110f7565b505050565b60008061128d83612371565b9050600073ffffffffffffffffffffffffffffffffffffffff168173ffffffffffffffffffffffffffffffffffffffff16036112fe576040517f08c379a00000000000000000000000000000000000000000000000000000000081526004016112f590613d5a565b60405180910390fd5b80915050919050565b606060006001848461131991906138b7565b6113239190613d7a565b67ffffffffffffffff81111561133c5761133b612e74565b5b60405190808252806020026020018201604052801561137557816020015b611362612b51565b81526020019060019003908161135a5790505b50905060008490505b8381116113fa57604051806060016040528082815260200161139f8361175c565b8152602001600a6000848152602001908152602001600020600201548152508286836113cb91906138b7565b815181106113dc576113db613859565b5b602002602001018190525080806113f2906138eb565b91505061137e565b508091505092915050565b60008073ffffffffffffffffffffffffffffffffffffffff168273ffffffffffffffffffffffffffffffffffffffff1603611475576040517f08c379a000000000000000000000000000000000000000000000000000000000815260040161146c90613e20565b60405180910390fd5b600360008373ffffffffffffffffffffffffffffffffffffffff1673ffffffffffffffffffffffffffffffffffffffff168152602001908152602001600020549050919050565b6114c46123ae565b6114ce600061242c565b565b6000600760009054906101000a900473ffffffffffffffffffffffffffffffffffffffff16905090565b606060018054611509906135e1565b80601f0160208091040260200160405190810160405280929190818152602001828054611535906135e1565b80156115825780601f1061155757610100808354040283529160200191611582565b820191906000526020600020905b81548152906001019060200180831161156557829003601f168201915b5050505050905090565b61159e611597611c74565b83836124f2565b5050565b6000806115af60086120d9565b90508091505090565b6115c182611281565b73ffffffffffffffffffffffffffffffffffffffff163373ffffffffffffffffffffffffffffffffffffffff161461162e576040517f08c379a000000000000000000000000000000000000000000000000000000000815260040161162590613e8c565b60405180910390fd5b80600a6000848152602001908152602001600020600201819055505050565b61165e611658611c74565b83611d35565b61169d576040517f08c379a0000000000000000000000000000000000000000000000000000000008152600401611694906139a5565b60405180910390fd5b6116a98484848461265e565b50505050565b80600b60003373ffffffffffffffffffffffffffffffffffffffff1673ffffffffffffffffffffffffffffffffffffffff16815260200190815260200160002090816116fb9190613b64565b5033600c8260405161170d9190613842565b908152602001604051809103902060006101000a81548173ffffffffffffffffffffffffffffffffffffffff021916908373ffffffffffffffffffffffffffffffffffffffff16021790555050565b606061176782611c29565b6000600660008481526020019081526020016000208054611787906135e1565b80601f01602080910402602001604051908101604052809291908181526020018280546117b3906135e1565b80156118005780601f106117d557610100808354040283529160200191611800565b820191906000526020600020905b8154815290600101906020018083116117e357829003601f168201915b5050505050905060006118116126ba565b90506000815103611826578192505050611869565b60008251111561185b578082604051602001611843929190613eac565b60405160208183030381529060405292505050611869565b611864846126d1565b925050505b919050565b6000600560008473ffffffffffffffffffffffffffffffffffffffff1673ffffffffffffffffffffffffffffffffffffffff16815260200190815260200160002060008373ffffffffffffffffffffffffffffffffffffffff1673ffffffffffffffffffffffffffffffffffffffff16815260200190815260200160002060009054906101000a900460ff16905092915050565b60606000600b60008473ffffffffffffffffffffffffffffffffffffffff1673ffffffffffffffffffffffffffffffffffffffff1681526020019081526020016000208054611950906135e1565b80601f016020809104026020016040519081016040528092919081815260200182805461197c906135e1565b80156119c95780601f1061199e576101008083540402835291602001916119c9565b820191906000526020600020905b8154815290600101906020018083116119ac57829003601f168201915b5050505050905080915050919050565b60006119e482610c61565b156119fd57816119f39061379f565b60601c9050611a3f565b600c82604051611a0d9190613842565b908152602001604051809103902060009054906101000a900473ffffffffffffffffffffffffffffffffffffffff1690505b919050565b611a4c6123ae565b600073ffffffffffffffffffffffffffffffffffffffff168173ffffffffffffffffffffffffffffffffffffffff1603611abb576040517f08c379a0000000000000000000000000000000000000000000000000000000008152600401611ab290613f42565b60405180910390fd5b611ac48161242c565b50565b60606000611ad560086120d9565b67ffffffffffffffff811115611aee57611aed612e74565b5b604051908082528060200260200182016040528015611b2757816020015b611b14612b51565b815260200190600190039081611b0c5790505b5090506000600190505b611b3b60086120d9565b8111611bb7576040518060600160405280828152602001611b5b8361175c565b8152602001600a60008481526020019081526020016000206002015481525082600183611b8891906138b7565b81518110611b9957611b98613859565b5b60200260200101819052508080611baf906138eb565b915050611b31565b508091505090565b60007f01ffc9a7000000000000000000000000000000000000000000000000000000007bffffffffffffffffffffffffffffffffffffffffffffffffffffffff1916827bffffffffffffffffffffffffffffffffffffffffffffffffffffffff1916149050919050565b611c3281612739565b611c71576040517f08c379a0000000000000000000000000000000000000000000000000000000008152600401611c6890613d5a565b60405180910390fd5b50565b600033905090565b816004600083815260200190815260200160002060006101000a81548173ffffffffffffffffffffffffffffffffffffffff021916908373ffffffffffffffffffffffffffffffffffffffff160217905550808273ffffffffffffffffffffffffffffffffffffffff16611cef83611281565b73ffffffffffffffffffffffffffffffffffffffff167f8c5be1e5ebec7d5bd14f71427d1e84f3dd0314c0f7b2291e5b200ac8c7c3b92560405160405180910390a45050565b600080611d4183611281565b90508073ffffffffffffffffffffffffffffffffffffffff168473ffffffffffffffffffffffffffffffffffffffff161480611d835750611d82818561186e565b5b80611dc157508373ffffffffffffffffffffffffffffffffffffffff16611da98461089b565b73ffffffffffffffffffffffffffffffffffffffff16145b91505092915050565b8273ffffffffffffffffffffffffffffffffffffffff16611dea82611281565b73ffffffffffffffffffffffffffffffffffffffff1614611e40576040517f08c379a0000000000000000000000000000000000000000000000000000000008152600401611e3790613fd4565b60405180910390fd5b600073ffffffffffffffffffffffffffffffffffffffff168273ffffffffffffffffffffffffffffffffffffffff1603611eaf576040517f08c379a0000000000000000000000000000000000000000000000000000000008152600401611ea690614066565b60405180910390fd5b611ebc838383600161277a565b8273ffffffffffffffffffffffffffffffffffffffff16611edc82611281565b73ffffffffffffffffffffffffffffffffffffffff1614611f32576040517f08c379a0000000000000000000000000000000000000000000000000000000008152600401611f2990613fd4565b60405180910390fd5b6004600082815260200190815260200160002060006101000a81549073ffffffffffffffffffffffffffffffffffffffff02191690556001600360008573ffffffffffffffffffffffffffffffffffffffff1673ffffffffffffffffffffffffffffffffffffffff168152602001908152602001600020600082825403925050819055506001600360008473ffffffffffffffffffffffffffffffffffffffff1673ffffffffffffffffffffffffffffffffffffffff16815260200190815260200160002060008282540192505081905550816002600083815260200190815260200160002060006101000a81548173ffffffffffffffffffffffffffffffffffffffff021916908373ffffffffffffffffffffffffffffffffffffffff160217905550808273ffffffffffffffffffffffffffffffffffffffff168473ffffffffffffffffffffffffffffffffffffffff167fddf252ad1be2c89b69c2b068fc378daa952ba7f163c4a11628f55a4df523b3ef60405160405180910390a46120be8383836001612780565b505050565b6001816000016000828254019250508190555050565b600081600001549050919050565b600073ffffffffffffffffffffffffffffffffffffffff168273ffffffffffffffffffffffffffffffffffffffff1603612156576040517f08c379a000000000000000000000000000000000000000000000000000000000815260040161214d906140d2565b60405180910390fd5b61215f81612739565b1561219f576040517f08c379a00000000000000000000000000000000000000000000000000000000081526004016121969061413e565b60405180910390fd5b6121ad60008383600161277a565b6121b681612739565b156121f6576040517f08c379a00000000000000000000000000000000000000000000000000000000081526004016121ed9061413e565b60405180910390fd5b6001600360008473ffffffffffffffffffffffffffffffffffffffff1673ffffffffffffffffffffffffffffffffffffffff16815260200190815260200160002060008282540192505081905550816002600083815260200190815260200160002060006101000a81548173ffffffffffffffffffffffffffffffffffffffff021916908373ffffffffffffffffffffffffffffffffffffffff160217905550808273ffffffffffffffffffffffffffffffffffffffff16600073ffffffffffffffffffffffffffffffffffffffff167fddf252ad1be2c89b69c2b068fc378daa952ba7f163c4a11628f55a4df523b3ef60405160405180910390a4612300600083836001612780565b5050565b61230d82612739565b61234c576040517f08c379a0000000000000000000000000000000000000000000000000000000008152600401612343906141d0565b60405180910390fd5b8060066000848152602001908152602001600020908161236c9190613b64565b505050565b60006002600083815260200190815260200160002060009054906101000a900473ffffffffffffffffffffffffffffffffffffffff169050919050565b6123b6611c74565b73ffffffffffffffffffffffffffffffffffffffff166123d46114d0565b73ffffffffffffffffffffffffffffffffffffffff161461242a576040517f08c379a00000000000000000000000000000000000000000000000000000000081526004016124219061423c565b60405180910390fd5b565b6000600760009054906101000a900473ffffffffffffffffffffffffffffffffffffffff16905081600760006101000a81548173ffffffffffffffffffffffffffffffffffffffff021916908373ffffffffffffffffffffffffffffffffffffffff1602179055508173ffffffffffffffffffffffffffffffffffffffff168173ffffffffffffffffffffffffffffffffffffffff167f8be0079c531659141344cd1fd0a4f28419497f9722a3daafe3b4186f6b6457e060405160405180910390a35050565b8173ffffffffffffffffffffffffffffffffffffffff168373ffffffffffffffffffffffffffffffffffffffff1603612560576040517f08c379a0000000000000000000000000000000000000000000000000000000008152600401612557906142a8565b60405180910390fd5b80600560008573ffffffffffffffffffffffffffffffffffffffff1673ffffffffffffffffffffffffffffffffffffffff16815260200190815260200160002060008473ffffffffffffffffffffffffffffffffffffffff1673ffffffffffffffffffffffffffffffffffffffff16815260200190815260200160002060006101000a81548160ff0219169083151502179055508173ffffffffffffffffffffffffffffffffffffffff168373ffffffffffffffffffffffffffffffffffffffff167f17307eab39ab6107e8899845ad3d59bd9653f200f220920489ca2b5937696c31836040516126519190612c72565b60405180910390a3505050565b612669848484611dca565b61267584848484612786565b6126b4576040517f08c379a00000000000000000000000000000000000000000000000000000000081526004016126ab9061433a565b60405180910390fd5b50505050565b606060405180602001604052806000815250905090565b60606126dc82611c29565b60006126e66126ba565b905060008151116127065760405180602001604052806000815250612731565b806127108461290d565b604051602001612721929190613eac565b6040516020818303038152906040525b915050919050565b60008073ffffffffffffffffffffffffffffffffffffffff1661275b83612371565b73ffffffffffffffffffffffffffffffffffffffff1614159050919050565b50505050565b50505050565b60006127a78473ffffffffffffffffffffffffffffffffffffffff166129db565b15612900578373ffffffffffffffffffffffffffffffffffffffff1663150b7a026127d0611c74565b8786866040518563ffffffff1660e01b81526004016127f294939291906143a4565b6020604051808303816000875af192505050801561282e57506040513d601f19601f8201168201806040525081019061282b9190614405565b60015b6128b0573d806000811461285e576040519150601f19603f3d011682016040523d82523d6000602084013e612863565b606091505b5060008151036128a8576040517f08c379a000000000000000000000000000000000000000000000000000000000815260040161289f9061433a565b60405180910390fd5b805181602001fd5b63150b7a0260e01b7bffffffffffffffffffffffffffffffffffffffffffffffffffffffff1916817bffffffffffffffffffffffffffffffffffffffffffffffffffffffff191614915050612905565b600190505b949350505050565b60606000600161291c846129fe565b01905060008167ffffffffffffffff81111561293b5761293a612e74565b5b6040519080825280601f01601f19166020018201604052801561296d5781602001600182028036833780820191505090505b509050600082602001820190505b6001156129d0578080600190039150507f3031323334353637383961626364656600000000000000000000000000000000600a86061a8153600a85816129c4576129c3614432565b5b0494506000850361297b575b819350505050919050565b6000808273ffffffffffffffffffffffffffffffffffffffff163b119050919050565b600080600090507a184f03e93ff9f4daa797ed6e38ed64bf6a1f0100000000000000008310612a5c577a184f03e93ff9f4daa797ed6e38ed64bf6a1f0100000000000000008381612a5257612a51614432565b5b0492506040810190505b6d04ee2d6d415b85acef81000000008310612a99576d04ee2d6d415b85acef81000000008381612a8f57612a8e614432565b5b0492506020810190505b662386f26fc100008310612ac857662386f26fc100008381612abe57612abd614432565b5b0492506010810190505b6305f5e1008310612af1576305f5e1008381612ae757612ae6614432565b5b0492506008810190505b6127108310612b16576127108381612b0c57612b0b614432565b5b0492506004810190505b60648310612b395760648381612b2f57612b2e614432565b5b0492506002810190505b600a8310612b48576001810190505b80915050919050565b60405180606001604052806000815260200160608152602001600081525090565b6040518060c0016040528060008152602001600073ffffffffffffffffffffffffffffffffffffffff168152602001606081526020016060815260200160008152602001606081525090565b6000604051905090565b600080fd5b600080fd5b60007fffffffff0000000000000000000000000000000000000000000000000000000082169050919050565b612c0781612bd2565b8114612c1257600080fd5b50565b600081359050612c2481612bfe565b92915050565b600060208284031215612c4057612c3f612bc8565b5b6000612c4e84828501612c15565b91505092915050565b60008115159050919050565b612c6c81612c57565b82525050565b6000602082019050612c876000830184612c63565b92915050565b600081519050919050565b600082825260208201905092915050565b60005b83811015612cc7578082015181840152602081019050612cac565b60008484015250505050565b6000601f19601f8301169050919050565b6000612cef82612c8d565b612cf98185612c98565b9350612d09818560208601612ca9565b612d1281612cd3565b840191505092915050565b60006020820190508181036000830152612d378184612ce4565b905092915050565b6000819050919050565b612d5281612d3f565b8114612d5d57600080fd5b50565b600081359050612d6f81612d49565b92915050565b600060208284031215612d8b57612d8a612bc8565b5b6000612d9984828501612d60565b91505092915050565b600073ffffffffffffffffffffffffffffffffffffffff82169050919050565b6000612dcd82612da2565b9050919050565b612ddd81612dc2565b82525050565b6000602082019050612df86000830184612dd4565b92915050565b612e0781612dc2565b8114612e1257600080fd5b50565b600081359050612e2481612dfe565b92915050565b60008060408385031215612e4157612e40612bc8565b5b6000612e4f85828601612e15565b9250506020612e6085828601612d60565b9150509250929050565b600080fd5b600080fd5b7f4e487b7100000000000000000000000000000000000000000000000000000000600052604160045260246000fd5b612eac82612cd3565b810181811067ffffffffffffffff82111715612ecb57612eca612e74565b5b80604052505050565b6000612ede612bbe565b9050612eea8282612ea3565b919050565b600067ffffffffffffffff821115612f0a57612f09612e74565b5b612f1382612cd3565b9050602081019050919050565b82818337600083830152505050565b6000612f42612f3d84612eef565b612ed4565b905082815260208101848484011115612f5e57612f5d612e6f565b5b612f69848285612f20565b509392505050565b600082601f830112612f8657612f85612e6a565b5b8135612f96848260208601612f2f565b91505092915050565b600060208284031215612fb557612fb4612bc8565b5b600082013567ffffffffffffffff811115612fd357612fd2612bcd565b5b612fdf84828501612f71565b91505092915050565b600081519050919050565b600082825260208201905092915050565b6000819050602082019050919050565b61301d81612d3f565b82525050565b600082825260208201905092915050565b600061303f82612c8d565b6130498185613023565b9350613059818560208601612ca9565b61306281612cd3565b840191505092915050565b60006060830160008301516130856000860182613014565b506020830151848203602086015261309d8282613034565b91505060408301516130b26040860182613014565b508091505092915050565b60006130c9838361306d565b905092915050565b6000602082019050919050565b60006130e982612fe8565b6130f38185612ff3565b93508360208202850161310585613004565b8060005b85811015613141578484038952815161312285826130bd565b945061312d836130d1565b925060208a01995050600181019050613109565b50829750879550505050505092915050565b6000602082019050818103600083015261316d81846130de565b905092915050565b60008060006060848603121561318e5761318d612bc8565b5b600061319c86828701612e15565b93505060206131ad86828701612e15565b92505060406131be86828701612d60565b9150509250925092565b600080600080608085870312156131e2576131e1612bc8565b5b600085013567ffffffffffffffff811115613200576131ff612bcd565b5b61320c87828801612f71565b945050602085013567ffffffffffffffff81111561322d5761322c612bcd565b5b61323987828801612f71565b935050604085013567ffffffffffffffff81111561325a57613259612bcd565b5b61326687828801612f71565b925050606061327787828801612d60565b91505092959194509250565b61328c81612d3f565b82525050565b60006020820190506132a76000830184613283565b92915050565b6132b681612dc2565b82525050565b600060c0830160008301516132d46000860182613014565b5060208301516132e760208601826132ad565b50604083015184820360408601526132ff8282613034565b915050606083015184820360608601526133198282613034565b915050608083015161332e6080860182613014565b5060a083015184820360a08601526133468282613034565b9150508091505092915050565b6000602082019050818103600083015261336d81846132bc565b905092915050565b6000806040838503121561338c5761338b612bc8565b5b600061339a85828601612d60565b92505060206133ab85828601612d60565b9150509250929050565b6000602082840312156133cb576133ca612bc8565b5b60006133d984828501612e15565b91505092915050565b6133eb81612c57565b81146133f657600080fd5b50565b600081359050613408816133e2565b92915050565b6000806040838503121561342557613424612bc8565b5b600061343385828601612e15565b9250506020613444858286016133f9565b9150509250929050565b600067ffffffffffffffff82111561346957613468612e74565b5b61347282612cd3565b9050602081019050919050565b600061349261348d8461344e565b612ed4565b9050828152602081018484840111156134ae576134ad612e6f565b5b6134b9848285612f20565b509392505050565b600082601f8301126134d6576134d5612e6a565b5b81356134e684826020860161347f565b91505092915050565b6000806000806080858703121561350957613508612bc8565b5b600061351787828801612e15565b945050602061352887828801612e15565b935050604061353987828801612d60565b925050606085013567ffffffffffffffff81111561355a57613559612bcd565b5b613566878288016134c1565b91505092959194509250565b6000806040838503121561358957613588612bc8565b5b600061359785828601612e15565b92505060206135a885828601612e15565b9150509250929050565b7f4e487b7100000000000000000000000000000000000000000000000000000000600052602260045260246000fd5b600060028204905060018216806135f957607f821691505b60208210810361360c5761360b6135b2565b5b50919050565b7f4552433732313a20617070726f76616c20746f2063757272656e74206f776e6560008201527f7200000000000000000000000000000000000000000000000000000000000000602082015250565b600061366e602183612c98565b915061367982613612565b604082019050919050565b6000602082019050818103600083015261369d81613661565b9050919050565b7f4552433732313a20617070726f76652063616c6c6572206973206e6f7420746f60008201527f6b656e206f776e6572206f7220617070726f76656420666f7220616c6c000000602082015250565b6000613700603d83612c98565b915061370b826136a4565b604082019050919050565b6000602082019050818103600083015261372f816136f3565b9050919050565b600081519050919050565b6000819050602082019050919050565b60007fffffffffffffffffffffffffffffffffffffffff00000000000000000000000082169050919050565b60006137898251613751565b80915050919050565b600082821b905092915050565b60006137aa82613736565b826137b484613741565b90506137bf8161377d565b925060148210156137ff576137fa7fffffffffffffffffffffffffffffffffffffffff00000000000000000000000083601403600802613792565b831692505b5050919050565b600081905092915050565b600061381c82612c8d565b6138268185613806565b9350613836818560208601612ca9565b80840191505092915050565b600061384e8284613811565b915081905092915050565b7f4e487b7100000000000000000000000000000000000000000000000000000000600052603260045260246000fd5b7f4e487b7100000000000000000000000000000000000000000000000000000000600052601160045260246000fd5b60006138c282612d3f565b91506138cd83612d3f565b92508282039050818111156138e5576138e4613888565b5b92915050565b60006138f682612d3f565b91507fffffffffffffffffffffffffffffffffffffffffffffffffffffffffffffffff820361392857613927613888565b5b600182019050919050565b7f4552433732313a2063616c6c6572206973206e6f7420746f6b656e206f776e6560008201527f72206f7220617070726f76656400000000000000000000000000000000000000602082015250565b600061398f602d83612c98565b915061399a82613933565b604082019050919050565b600060208201905081810360008301526139be81613982565b9050919050565b60008190508160005260206000209050919050565b60006020601f8301049050919050565b600060088302613a1a7fffffffffffffffffffffffffffffffffffffffffffffffffffffffffffffffff82613792565b613a248683613792565b95508019841693508086168417925050509392505050565b6000819050919050565b6000613a61613a5c613a5784612d3f565b613a3c565b612d3f565b9050919050565b6000819050919050565b613a7b83613a46565b613a8f613a8782613a68565b8484546139ea565b825550505050565b600090565b613aa4613a97565b613aaf818484613a72565b505050565b5b81811015613ad357613ac8600082613a9c565b600181019050613ab5565b5050565b601f821115613b1857613ae9816139c5565b613af2846139da565b81016020851015613b01578190505b613b15613b0d856139da565b830182613ab4565b50505b505050565b600082821c905092915050565b6000613b3b60001984600802613b1d565b1980831691505092915050565b6000613b548383613b2a565b9150826002028217905092915050565b613b6d82612c8d565b67ffffffffffffffff811115613b8657613b85612e74565b5b613b9082546135e1565b613b9b828285613ad7565b600060209050601f831160018114613bce5760008415613bbc578287015190505b613bc68582613b48565b865550613c2e565b601f198416613bdc866139c5565b60005b82811015613c0457848901518255600182019150602085019450602081019050613bdf565b86831015613c215784890151613c1d601f891682613b2a565b8355505b6001600288020188555050505b505050505050565b7f796f752061726520686f6c646572000000000000000000000000000000000000600082015250565b6000613c6c600e83612c98565b9150613c7782613c36565b602082019050919050565b60006020820190508181036000830152613c9b81613c5f565b9050919050565b7f6973206e6f7420666f722073616c650000000000000000000000000000000000600082015250565b6000613cd8600f83612c98565b9150613ce382613ca2565b602082019050919050565b60006020820190508181036000830152613d0781613ccb565b9050919050565b7f4552433732313a20696e76616c696420746f6b656e2049440000000000000000600082015250565b6000613d44601883612c98565b9150613d4f82613d0e565b602082019050919050565b60006020820190508181036000830152613d7381613d37565b9050919050565b6000613d8582612d3f565b9150613d9083612d3f565b9250828201905080821115613da857613da7613888565b5b92915050565b7f4552433732313a2061646472657373207a65726f206973206e6f74206120766160008201527f6c6964206f776e65720000000000000000000000000000000000000000000000602082015250565b6000613e0a602983612c98565b9150613e1582613dae565b604082019050919050565b60006020820190508181036000830152613e3981613dfd565b9050919050565b7f73656e646572206973206e6f74206f776e657200000000000000000000000000600082015250565b6000613e76601383612c98565b9150613e8182613e40565b602082019050919050565b60006020820190508181036000830152613ea581613e69565b9050919050565b6000613eb88285613811565b9150613ec48284613811565b91508190509392505050565b7f4f776e61626c653a206e6577206f776e657220697320746865207a65726f206160008201527f6464726573730000000000000000000000000000000000000000000000000000602082015250565b6000613f2c602683612c98565b9150613f3782613ed0565b604082019050919050565b60006020820190508181036000830152613f5b81613f1f565b9050919050565b7f4552433732313a207472616e736665722066726f6d20696e636f72726563742060008201527f6f776e6572000000000000000000000000000000000000000000000000000000602082015250565b6000613fbe602583612c98565b9150613fc982613f62565b604082019050919050565b60006020820190508181036000830152613fed81613fb1565b9050919050565b7f4552433732313a207472616e7366657220746f20746865207a65726f2061646460008201527f7265737300000000000000000000000000000000000000000000000000000000602082015250565b6000614050602483612c98565b915061405b82613ff4565b604082019050919050565b6000602082019050818103600083015261407f81614043565b9050919050565b7f4552433732313a206d696e7420746f20746865207a65726f2061646472657373600082015250565b60006140bc602083612c98565b91506140c782614086565b602082019050919050565b600060208201905081810360008301526140eb816140af565b9050919050565b7f4552433732313a20746f6b656e20616c7265616479206d696e74656400000000600082015250565b6000614128601c83612c98565b9150614133826140f2565b602082019050919050565b600060208201905081810360008301526141578161411b565b9050919050565b7f45524337323155524953746f726167653a2055524920736574206f66206e6f6e60008201527f6578697374656e7420746f6b656e000000000000000000000000000000000000602082015250565b60006141ba602e83612c98565b91506141c58261415e565b604082019050919050565b600060208201905081810360008301526141e9816141ad565b9050919050565b7f4f776e61626c653a2063616c6c6572206973206e6f7420746865206f776e6572600082015250565b6000614226602083612c98565b9150614231826141f0565b602082019050919050565b6000602082019050818103600083015261425581614219565b9050919050565b7f4552433732313a20617070726f766520746f2063616c6c657200000000000000600082015250565b6000614292601983612c98565b915061429d8261425c565b602082019050919050565b600060208201905081810360008301526142c181614285565b9050919050565b7f4552433732313a207472616e7366657220746f206e6f6e20455243373231526560008201527f63656976657220696d706c656d656e7465720000000000000000000000000000602082015250565b6000614324603283612c98565b915061432f826142c8565b604082019050919050565b6000602082019050818103600083015261435381614317565b9050919050565b600082825260208201905092915050565b600061437682613736565b614380818561435a565b9350614390818560208601612ca9565b61439981612cd3565b840191505092915050565b60006080820190506143b96000830187612dd4565b6143c66020830186612dd4565b6143d36040830185613283565b81810360608301526143e5818461436b565b905095945050505050565b6000815190506143ff81612bfe565b92915050565b60006020828403121561441b5761441a612bc8565b5b6000614429848285016143f0565b91505092915050565b7f4e487b7100000000000000000000000000000000000000000000000000000000600052601260045260246000fdfea26469706673582212204731a3a76f15d55d9d4451147871872b182a867103fae34cdc972f859884f4f164736f6c63430008130033",
  "immutableReferences": {},
  "source": "// SPDX-License-Identifier: MIT\npragma solidity >=0.4.22 <0.9.0;\n\nimport \"@openzeppelin/contracts/token/ERC721/ERC721.sol\";\nimport \"@openzeppelin/contracts/utils/Counters.sol\";\nimport \"@openzeppelin/contracts/access/Ownable.sol\";\nimport \"@openzeppelin/contracts/token/ERC721/extensions/ERC721URIStorage.sol\";\n\n//  price   getPrice  \n//   _tokenId   \n// --    \n\n// openzeppelin ERC721   ERC721URIStorage \n// ERC721 == NFT\ncontract MyNFT is ERC721URIStorage, Ownable {\n\n    //struct NFT{\n    //    string released;\n    //    uint tokenId;\n    //    string imageName;\n    //    address owner;\n    //    uint price;\n    //    string tokenURI;\n    //}\n\n    struct DetailOfNFT{\n        uint tokenId;\n        address owner;\n        string tokenURI;\n        string imageName;\n        uint price;\n        string released;\n    }\n\n    struct NFT{\n        uint tokenId;\n        string imageName;\n        uint price;\n        string released;\n    }\n\n    struct ShortNFT{\n        uint tokenId;\n        string tokenURI;\n    \tuint price;\n    }\n\n\t//      \n    using Counters for Counters.Counter;\n    Counters.Counter private _tokenIds;\n\n    mapping(address => uint[]) HoldersList;\n    mapping(uint => NFT) ListOfNft;\n    mapping(address => string) AddressToNickname;\n    mapping(string => address) NicknameToAddress;\n              \n    constructor () ERC721(\"MyNFT\", \"NFT\") {}\n\n    function mintNFT(string memory _tokenURI, string memory _released, string memory _imageName, uint _price) public returns (uint256) {\n        _tokenIds.increment();\n        uint256 newItemId = _tokenIds.current();\n\n\n        _mint(msg.sender, newItemId);\n        _setTokenURI(newItemId, _tokenURI);\n\n        HoldersList[msg.sender].push(newItemId);\n        ListOfNft[newItemId] = NFT(newItemId, _imageName, _price, _released);\n        //ListOfNft[newItemId] = NFT(_released, newItemId, _imageName, msg.sender, _price, _tokenURI);\n\n        return newItemId;\n    }\n     \n    function getAllNFT() public view returns(ShortNFT[] memory){\n        ShortNFT[] memory allNFT = new ShortNFT[](_tokenIds.current());\n        for(uint i = 1; i <= _tokenIds.current(); i++){\n            allNFT[i - 1] = ShortNFT(i, tokenURI(i), ListOfNft[i].price);\n        }\n        return allNFT;\n    }\n\n    //nft     \n    function getListShortNFT(uint _startIdx, uint _endIdx) public view returns(ShortNFT[] memory){\n        ShortNFT[] memory result = new ShortNFT[](_endIdx - _startIdx + 1);\n        for(uint i = _startIdx; i <= _endIdx; i++){\n            result[i - _startIdx] = ShortNFT(i, tokenURI(i), ListOfNft[i].price);\n        }\n        return result;\n    }\n\n    function getListHolder(string memory  _who) view public returns(ShortNFT[] memory){\n       \n\taddress _whoAddress;\n\t\n\tif(isValidAddress(_who)){\n\t\t_whoAddress = address(bytes20(bytes(_who)));\n\t}else{\n\t\t_whoAddress = NicknameToAddress[_who];\n\t} \n\n\n\tuint lengthHolderList = HoldersList[_whoAddress].length;\n        \n\tShortNFT[] memory result = new ShortNFT[](lengthHolderList);\n        for(uint i = 0; i < lengthHolderList; i++){\n            uint tokenId = HoldersList[_whoAddress][i];\n            if(tokenId != 0){\n                result[lengthHolderList - 1 - i] = ShortNFT(tokenId, tokenURI(tokenId), ListOfNft[tokenId].price);\n            }\n        }\n        return result;\n    }\n\n    function nicknameConverAddress(string memory _who) public view returns(address){\n    \tif(isValidAddress(_who)){\n\t\treturn address(bytes20(bytes(_who)));\n\t}else{\n\t\treturn NicknameToAddress[_who];\n\t}\n    }\n\t\n    function isValidAddress(string memory addressString) public pure returns (bool) {\n   \t bytes memory addressBytes = bytes(addressString);\n    \tif (addressBytes.length != 42) {\n        \treturn false; //   42   \n    \t}\n    \tbytes20 addressBytes20 = bytes20(addressBytes);\n    \tif (addressBytes20 == bytes20(0)) {\n        \treturn false; //   Null Address  \n    \t}\n    \treturn true;\n    }\n\n    function getDetailOfNft(uint _tokenId) public view returns(DetailOfNFT memory){\n        NFT memory selectedNft = ListOfNft[_tokenId];\n        DetailOfNFT memory result = DetailOfNFT(_tokenId, ownerOf(_tokenId), tokenURI(_tokenId), selectedNft.imageName, selectedNft.price, selectedNft.released);\n        return result;\n    }\n\n    function getNFTId() public view returns(uint256){\n        uint result = _tokenIds.current();\n        return result;\n    }\n\n    function changePrice(uint _tokenId, uint _price) public {\n        require(msg.sender == ownerOf(_tokenId), 'sender is not owner');\n        ListOfNft[_tokenId].price = _price;\n    }\n\n    function buyNFT(uint _tokenId) public payable{\n        address seller = ownerOf(_tokenId);\n        // \n        require(seller != msg.sender, 'you are holder');\n        //   0eth \n        require(ListOfNft[_tokenId].price != 0, 'is not for sale');\n       // require(msg.value == ListOfNft[_tokenId].price, 'not right price');\n        \n        //\n        payable(seller).transfer(msg.value);\n        //\n        _transfer(seller, msg.sender, _tokenId);\n        //ListOfNft[_tokenId].owner = msg.sender;\n\n        for(uint i = 0; i < HoldersList[seller].length; i++){\n            if(HoldersList[seller][i] == _tokenId){\n                delete HoldersList[seller][i];\n                HoldersList[msg.sender].push(_tokenId);\n            }\n        }\n    }\n   \n    function getNickName(address _who) public view  returns(string memory){\n\tstring memory _nickname = AddressToNickname[_who];\n\treturn _nickname;\n    }\n    function setNickName(string memory _nickname) public{\n    \tAddressToNickname[msg.sender] = _nickname;\n\tNicknameToAddress[_nickname] = msg.sender;\n    }\n}\n",
  "sourcePath": "/home/ubuntu/NFTContract/contracts/MyNFT.sol",
  "compiler": {
    "name": "solc",
    "version": "0.8.19+commit.7dd6d404.Emscripten.clang"
  },
  "schemaVersion": "3.4.13",
  "updatedAt": "2023-04-25T10:27:34.037Z",
  "networkType": "ethereum",
  "devdoc": {
    "events": {
      "Approval(address,address,uint256)": {
        "details": "Emitted when `owner` enables `approved` to manage the `tokenId` token."
      },
      "ApprovalForAll(address,address,bool)": {
        "details": "Emitted when `owner` enables or disables (`approved`) `operator` to manage all of its assets."
      },
      "Transfer(address,address,uint256)": {
        "details": "Emitted when `tokenId` token is transferred from `from` to `to`."
      }
    },
    "kind": "dev",
    "methods": {
      "approve(address,uint256)": {
        "details": "See {IERC721-approve}."
      },
      "balanceOf(address)": {
        "details": "See {IERC721-balanceOf}."
      },
      "getApproved(uint256)": {
        "details": "See {IERC721-getApproved}."
      },
      "isApprovedForAll(address,address)": {
        "details": "See {IERC721-isApprovedForAll}."
      },
      "name()": {
        "details": "See {IERC721Metadata-name}."
      },
      "owner()": {
        "details": "Returns the address of the current owner."
      },
      "ownerOf(uint256)": {
        "details": "See {IERC721-ownerOf}."
      },
      "renounceOwnership()": {
        "details": "Leaves the contract without owner. It will not be possible to call `onlyOwner` functions anymore. Can only be called by the current owner. NOTE: Renouncing ownership will leave the contract without an owner, thereby removing any functionality that is only available to the owner."
      },
      "safeTransferFrom(address,address,uint256)": {
        "details": "See {IERC721-safeTransferFrom}."
      },
      "safeTransferFrom(address,address,uint256,bytes)": {
        "details": "See {IERC721-safeTransferFrom}."
      },
      "setApprovalForAll(address,bool)": {
        "details": "See {IERC721-setApprovalForAll}."
      },
      "supportsInterface(bytes4)": {
        "details": "See {IERC165-supportsInterface}."
      },
      "symbol()": {
        "details": "See {IERC721Metadata-symbol}."
      },
      "tokenURI(uint256)": {
        "details": "See {IERC721Metadata-tokenURI}."
      },
      "transferFrom(address,address,uint256)": {
        "details": "See {IERC721-transferFrom}."
      },
      "transferOwnership(address)": {
        "details": "Transfers ownership of the contract to a new account (`newOwner`). Can only be called by the current owner."
      }
    },
    "version": 1
  },
  "userdoc": {
    "kind": "user",
    "methods": {},
    "version": 1
  }
}